:0200000400708A
:1000000081400141814101428142014381430144D8
:1000100081440145814501468146014781470148A8
:10002000814801498149014A814A014B814B014C78
:10003000814C014D814D014E814E014F814FF9623E
:1000400073A002308542FE0263C3020001A0970242
:1000500000009382220473905230970191FF9381A4
:10006000617A170290FF1302D27D137202FC73258E
:1000700040F185456370B5001316150132921701E2
:1000800090FF130121786111EF00E07CEF00A041A7
:100090006D7106C20AC40EC612C816CA1ACC1ECE8C
:1000A00022D026D22AD42ED632D836DA3ADC3EDE18
:1000B000C2C0C6C2CAC4CEC6D2C8D6CADACCDECE88
:1000C000E2D0E6D2EAD4EED6F2D8F6DAFADCFEDEF8
:1000D00073252034F32510340A86EF000052731084
:1000E000153489629382028073A0023092402241CB
:1000F000B2414242D2426243F243025492542255E8
:10010000B2554256D2566257F2570648964826498B
:10011000B649464AD64A664BF64B065C965C265D67
:10012000B65D465ED65E665FF65F51617300203055
:10013000411106C622C4000873E0107C396593059E
:10014000058088453706F4FF7D16718D88C5885572
:100150001365052088D58845370640FF7D16718DCB
:1001600088C58855056613060680518D88D573F0BD
:10017000107C2244B240410182805D7186C696C4E3
:100180009AC29EC022DE2ADC2EDA32D836D63AD483
:100190003ED242D046CE72CC76CA7AC87EC680089D
:1001A0003165130505400C5141652326B500032533
:1001B000C500AD456317B5006F00400081206F009A
:1001C00080006F004000096593050590C8411365E4
:1001D0000510C8C1B24F424FD24E624EF24802588B
:1001E00092572257B2564256D255625572548643A0
:1001F0001643A642B640616173002030411106C625
:1002000022C40008316593050540C859231BA4FE8C
:10021000C85988DD2244B240410182805D7186C6A2
:1002200096C49AC29EC022DE2ADC2EDA32D836D696
:100230003AD43ED242D046CE72CC76CA7AC87EC676
:1002400080083165130505404C5141652328B500F0
:1002500003250501B1456317B5006F00400035283F
:100260006F004000096593050590C84113650510AE
:10027000C8C1B24F424FD24E624EF2480258925716
:100280002257B2564256D25562557254864316438F
:10029000A642B640616173002030011106CE22CC27
:1002A00000103965930585832328B4FE884D0566C3
:1002B0002326C4FE518D88CD372509001305957C72
:1002C000232AA4FE974091FFE78000EF8326C4FE17
:1002D000032604FF032544FFB165138705404C5BEB
:1002E0000CDF4C4ED58D4CCE974091FFE780C0EC93
:1002F0006244F24005618280411106C622C40008B2
:1003000073E0107C39659305058088593706C0FF76
:100310007D16718D88D98859370680FF7D16718DBD
:1003200088D9C84D3166518DC8CDC8418D66558D6F
:10033000C8C1C841518DC8C1C8597D767D16718D1F
:10034000C8D98845370600FD7D16718D88C588554A
:100350000566518D88D5396593058583C84D518DC6
:10036000C8CD73F0107C2244B2404101828041111B
:1003700006C622C4000873E0107C31658325054061
:10038000F9992320B5408325054093E515002320E6
:10039000B54093050540C8411375F5F7C8C1C8417C
:1003A0001375F5FBC8C1C8417999C8C1C841136527
:1003B0000502C8C1C84113652500C8C1C8411375ED
:1003C000F5EFC8C1C84137060200518DC8C1C84108
:1003D0001375F5BFC8C1C84141769306F6FF758D08
:1003E000C8C1C8416D99C8C1C8415D99C8C1C8415B
:1003F0003D99C8C1C841B7060001558DC8C1C84163
:10040000B7060002558DC8C1C8411375F5DFC8C1D4
:10041000C855B70601FFFD16758DC8D5C855718D35
:1004200013655518C8D5C855370600F17D16718D6E
:100430003706000A518DC8D5885537060700518DFB
:1004400088D588551365750088D5C84D1375F5BFD7
:10045000C8CDC84D056613060680518DC8CDC84D60
:1004600013650510C8CDA8517D761306F60F718D62
:10047000A8D1C8491375F5DFC8C9C8491365051067
:10048000C8C9C84513650520C8C5C845136505100A
:10049000C8C5C84113650508C8C173F0107C224463
:1004A000B24041018280011106CE22CC00100145EC
:1004B0002328A4FE232AA4FE81273D3D953973708D
:1004C0000430852D032504FFB71510002326B4FE44
:1004D00023A8A5C0B715100023A8A5D04D2573E00B
:1004E000107C370570001305A5178965938505A055
:1004F00023A4A510370570001305C52123A6A51058
:1005000073F0107CAD350326C4FE032504FF83255C
:1005100006C193E505102328B6C0896503A605909A
:100520001366160023A0C590138605902C4693E50C
:1005300045002CC62C4693E585002CC6736004301C
:10054000C1652391A5006F004000416583552500DA
:100550000D456349B5026F00400041650355250014
:10056000C1651386450093151500B2952390A5002B
:100570006F004000C1650395250005052391A50086
:100580006FF0BFFC6F004000416603450600930515
:1005900015002300B600B1659385054088DD372539
:1005A00009001305957C974091FFE780E0C0416505
:1005B0000325C500AD45631DB5006F0040003965DA
:1005C0009305858388511365052088D16F0040000D
:1005D000416503250501B145631FB5006F0040006B
:1005E0003965930585838851056613060680518D0C
:1005F00088D16F0040006FF03FF9011106CE22CC88
:100600000010232AA4FE2328B4FE2326C4FE01459D
:100610006244F24005618280411106C622C400088E
:10062000416513050500232AA4FE6F004000032541
:1006300044FFC165938585026371B5026F00400078
:10064000832544FF014588C16F004000032544FF16
:100650001105232AA4FE6FF09FFD2244B240410100
:100660008280011106CE22CC0010371570001305D0
:1006700005F9232AA4FE4165130505002328A4FEDD
:100680004165130505002326A4FE6F0040000325E5
:1006900004FF8325C4FE6378B5026F004000032584
:1006A00044FF03050500832504FF2380A5000325DF
:1006B00004FF05052328A4FE032544FF0505232A7E
:1006C000A4FE6FF0DFFC6244F240056182800111FC
:1006D00006CE22CC001037157000130505F9232A29
:1006E000A4FE5165130505002328A4FE51651305DA
:1006F000051E2326A4FE6F004000032504FF83256A
:10070000C4FE6378B5026F004000032544FF030573
:100710000500832504FF2380A500032504FF0505AC
:100720002328A4FE032544FF0505232AA4FE6FF019
:10073000DFFC6244F24005618280011106CE22CCCA
:1007400000103715700013050517232AA4FE1305A2
:1007500000002328A4FE130500002326A4FE6F003A
:100760004000032504FF8325C4FE6378B5026F00B3
:100770004000032544FF03050500832504FF238073
:10078000A500032504FF05052328A4FE032544FF37
:100790000505232AA4FE6FF0DFFC6244F2400561E8
:1007A0008280011106CE22CC00103715700013058F
:1007B0000517232AA4FE0565130505802328A4FE3A
:1007C0000565130505802326A4FE6F004000032560
:1007D00004FF8325C4FE6378B5026F004000032543
:1007E00044FF03050500832504FF2380A50003259E
:1007F00004FF05052328A4FE032544FF0505232A3D
:10080000A4FE6FF0DFFC6244F2400561828041117A
:1008100006C622C4000873E0107C3965930505C044
:1008200013058006A8C173F0107C2244B240410138
:100830008280411106C622C4000873E0107C39652D
:10084000930505C013058002A8C173F0107C2244F3
:10085000B24041018280411106C622C40008453FD2
:1008600073E0107CB96503A505C61365150023A0C8
:10087000A5C673F0107C4D33ED33913D7D3D1537AA
:10088000973091FFE78000786D372244B2404101F4
:100890008280411106C622C400086F0040006F002C
:1008A0000000411106C622C400086F0040006F001E
:1008B0000000411106C622C400086F0040006F000E
:1008C0000000411106C622C400086F0040006F00FE
:1008D0000000411106C622C400086F0040006F00EE
:1008E0000000411106C622C400086F0040006F00DE
:1008F0000000411106C622C400086F0040006F00CE
:100900000000411106C622C400086F0040006F00BD
:100910000000411106C622C400086F0040006F00AD
:100920000000411106C622C400086F0040006F009D
:100930000000411106C622C400086F0040006F008D
:100940000000411106C622C400086F0040006F007D
:100950000000411106C622C400086F0040006F006D
:100960000000411106C622C400086F0040006F005D
:100970000000411106C622C400086F0040006F004D
:100980000000411106C622C400086F0040006F003D
:100990000000411106C622C400086F0040006F002D
:1009A0000000411106C622C400086F0040006F001D
:1009B0000000411106C622C400086F0040006F000D
:1009C0000000411106C622C400086F0040006F00FD
:1009D0000000411106C622C400086F0040006F00ED
:1009E0000000411106C622C400086F0040006F00DD
:1009F0000000411106C622C400086F0040006F00CD
:100A00000000411106C622C400086F0040006F00BC
:100A10000000411106C622C400086F0040006F00AC
:100A20000000411106C622C400086F0040006F009C
:100A30000000411106C622C400086F0040006F008C
:100A40000000411106C622C400086F0040006F007C
:100A50000000411106C622C400086F0040006F006C
:100A60000000411106C622C400086F0040006F005C
:100A70000000411106C622C400086F0040006F004C
:100A80000000411106C622C400086F0040006F003C
:100A90000000411106C622C400086F0040006F002C
:100AA0000000411106C622C400086F0040006F001C
:100AB0000000411106C622C400086F0040006F000C
:100AC0000000411106C622C400086F0040006F00FC
:100AD0000000411106C622C400086F0040006F00EC
:100AE0000000411106C622C400086F0040006F00DC
:100AF0000000411106C622C400086F0040006F00CC
:100B00000000411106C622C400086F0040006F00BB
:100B10000000411106C622C400086F0040006F00AB
:100B20000000411106C622C400086F0040006F009B
:100B30000000411106C622C4000873700430096524
:100B400093050590014588C588C988CD88D188D589
:100B500088D988DDA8C1A8C5A8C9A8CDA8D1C8C50D
:100B6000C8C9C8CDC8D1C8D5C8D9C8DDE8C1E8C58D
:100B7000E8C9E8CDE8D12244B240410182800111A8
:100B800006CE22CC001037157000130505DD232892
:100B9000A4FE0965130505A02326A4FE73E0107CBE
:100BA0000145231BA4FE6F004000831564FF13055D
:100BB000F006634BB5026F004000032504FF930568
:100BC00045002328B4FE08418325C4FE1386450052
:100BD0002326C4FE88C16F004000031564FF05058D
:100BE000231BA4FE6FF07FFC73F0107C7360043055
:100BF0006244F24005618280411106C622C40008A9
:100C00003128412A352829458D45973091FFE780C5
:100C1000C0418D282244B24041018280411106C664
:100C200022C4000873E0107C3965930505C01305E4
:100C30008006A8C173F0107C2244B240410182803A
:100C4000411106C622C4000873E0107C3965930583
:100C500005C0C8511375F5EFC8D1C8517999C8D1ED
:100C6000C8510966518DC8D1C8511166518DC8D17E
:100C7000C85113650540C8D173F0107C2244B240BE
:100C800041018280411106C622C4000873E0107C35
:100C90003966930506C0094588CD032506C07199BC
:100CA000136525002320A6C088451365850088C5E7
:100CB00088451365250088C5C84913651500C8C94E
:100CC000C84913652500C8C9C84913654500C8C986
:100CD000C84913650510C8C9C84913650520C8C9A6
:100CE000C84913650540C8C9C84513650510C8C57E
:100CF000C84513651500C8C5C84513652500C8C596
:100D0000C84513654500C8C5C84513658500C8C5F5
:100D1000C84513650501C8C5C84513650502C8C5A2
:100D2000C84513650504C8C5C8490966518DC8C9B9
:100D300088451365150088C588451365050188C574
:100D400088451365054088C588451365051088C525
:100D500088451365052088C588451166518D88C56D
:100D600088491365051088C988491365052088C915
:100D7000C845518DC8C5C8452166518DC8C588452F
:100D80001365450088C573F0107C2244B2404101D0
:100D9000828037457A00834515BF898985E973E0EC
:100DA000107C8325058E17D690FF1306A6E54CCE42
:100DB0008325458E0CD28325858E39662326B6C8B9
:100DC0000325C58E2328A6C873F0107C82800000FE
:100DD00092087000A2087000020B7000B208700048
:100DE000C2087000D2087000E2087000F2087000BB
:100DF00002097000120970002209700032097000A7
:100E0000020B7000020B7000020B7000020B7000EE
:100E10004209700052097000620970007209700086
:100E2000020B7000020B7000020B7000020B7000CE
:100E30008209700082097000020B7000020B7000C2
:100E4000020B7000020B7000020B7000020B7000AE
:100E500092097000020B7000020B7000020B700010
:100E6000020B7000020B7000020B7000020B70008E
:100E7000A2097000B2097000020B7000020B700032
:100E8000020B7000020B7000020B7000020B70006E
:100E9000C2097000D2097000E2097000F209700006
:100EA000020A7000120A7000020B7000020B700040
:100EB000220A7000020B7000020B7000020B70001F
:100EC000020B7000020B7000020B7000020B70002E
:100ED000320A7000420A7000520A7000620A700002
:100EE000720A7000820A7000020B7000020B700020
:100EF000020B7000020B7000920A7000A20A7000D0
:100F0000B20A7000C20A7000D20A7000E20A7000D1
:100F1000020B7000020B7000020B7000020B7000DD
:100F2000020B7000020B7000020B7000020B7000CD
:100F3000F20A7000020B7000020B7000020B7000CE
:100F4000020B7000020B7000020B7000020B7000AD
:100F5000120B7000020B7000020B7000020B70008D
:100F6000020B7000020B7000020B7000020B70008D
:100F7000220B7000020B7000020B7000020B70005D
:100F8000020B7000020B7000020B7000020B70006D
:100F9000411106C622C4000873E0107C37057B00AF
:100FA00093050580114523A6A50A73F0107C224401
:100FB000B24041018280411106C622C40008231BB1
:100FC000A4FE231AB4FE3965130505C048411D81EE
:100FD0000D8981456301B5026F00400073E0107C0C
:100FE0003965930505C0C8411375F5E7C8C173F0AD
:100FF000107C6F0040003965130505C008557D89D8
:10100000835564FF6306B5046F00400073E0107CF5
:10101000035664FF3965930505C088557D8A01999B
:10102000518D88D573F0107C97D06E00E78040B862
:101030006F0040003965130505C0484105898145A9
:101040006316B5006F0040006FF0DFFE6F004000D8
:10105000035544FF8545630BB5006F004000035501
:1010600044FF89456316B5026F00400073E0107CB1
:10107000035644FF3965930505C0C8410D8A1E0615
:101080001375F5E7518DC8C173F0107C6F004000F7
:10109000035544FF8D45631FB5026F00400073E0A8
:1010A000107C3965930505C02328B4FEC84113752B
:1010B000F5E713650510C8C10565130515765920B8
:1010C000832504FFC84113650518C8C173F0107C5F
:1010D0006F0040002244B24041018280411106C6A7
:1010E00022C4000873E0107C37057B00930505805F
:1010F00003A5850A1365150023A4A50A114523A697
:10110000A50A05651305959D23A0A508130570275D
:1011100023A8A50A1305D04E23ACA50A37752600CF
:101120001305153C23A2A50823A4A5080D651305E6
:10113000951323AAA50A73F0107C2244B240410102
:101140008280000031112EC8F325007C2EC6F325C5
:10115000003001000B002566010073900530B24598
:0A1160007390057CC24551018280A6
:02000004007387
:06FFE800B70070008280EA
:10FFF000FFFFFFFFFFFFFFFFFFFFFFFFFFFFFFFF11
:040000050070000087
:00000001FF
