:02000004007C7E
:1000000081400141814101428142014381430144D8
:1000100081440145814501468146014781470148A8
:10002000814801498149014A814A014B814B014C78
:10003000814C014D814D014E814E014F814FF9623E
:1000400073A002308542FE0263C3020001A0970242
:1000500000009382220473905230970185FF9381B0
:10006000617A170284FF1302D27D137202FC73259A
:1000700040F185456370B5001316150132921701E2
:1000800084FF130121786111EF00F01FEF000025BC
:100090006D7106C20AC40EC612C816CA1ACC1ECE8C
:1000A00022D026D22AD42ED632D836DA3ADC3EDE18
:1000B000C2C0C6C2CAC4CEC6D2C8D6CADACCDECE88
:1000C000E2D0E6D2EAD4EED6F2D8F6DAFADCFEDEF8
:1000D00073252034F32510340A86EF006075731001
:1000E000153489629382028073A0023092402241CB
:1000F000B2414242D2426243F243025492542255E8
:10010000B2554256D2566257F2570648964826498B
:10011000B649464AD64A664BF64B065C965C265D67
:10012000B65D465ED65E665FF65F51617300203055
:10018000411106C622C4000873E0107C396593054E
:10019000058088593706F8FF7D16718D88D9C84DBE
:1001A0001375F5F313650504C8CDC8411365050C37
:1001B000C8C173F0107C2244B240410182804111D9
:1001C00006C622C4000873E0107C3565930505005F
:1001D0000395C50113650520239EA5003735310120
:1001E000130505D088C53795980013050568C8C55F
:1001F0001305F00F88D503950502136505082390B4
:10020000A5020395C50113650501239EA50073F0A2
:10021000107C2244B24041018280011106CE22CCE2
:100220002ACA2EC832C60010C16503950508050507
:100230002390A5083565130505000845B73531013C
:10024000938505D06360B5026F0040003565930566
:10025000050088453766F8FF130606EE329588C913
:100260006F0080033565130505000C453795980030
:10027000130505686360B5026F004000356593059E
:100280000500884537A6070013060612329588C96F
:100290006F0040006F004000356593050500039531
:1002A0008502136505082394A5020395850213654D
:1002B00015002394A5020395C50113658500239EAF
:1002C000A5000965930505902145C8C13246C24580
:1002D00052456244F240056173002030011106CEA0
:1002E00022CC001001452326A4FE232AA4FECD2EF5
:1002F000413DF1356D2095280325C4FE737004300F
:10030000B71510002328B4FE23A8A5C0B715100008
:1003100023A8A5D0992E832504FF73E0107C370510
:100320007C001305A5210966130606A028D237050F
:100330007C001305E53D08CA73F0107C03A505C1D8
:100340001365950023A8A5C0096593050590884508
:100350001365050188C588511365150088D1736040
:1003600004306F0040006F000000411106C622C437
:10037000000873E0107C39658325058051767D1671
:10038000F18D2320B58093050580C85113650508BC
:10039000C8D173F0107C2244B240410182804111E7
:1003A00006C622C4000873E0107C39659305858673
:1003B000C841019913651501C8C109659305859662
:1003C000C8414D9913654500C8C1C8411365150062
:1003D000C8C173F0107C2244B240410182804111B7
:1003E00006C622C42AC22EC000080395218805052E
:1003F0002391A188396593058583C849136505084C
:10040000C8C90965930505900545C8C182451245CF
:100410002244B240410173002030411106C622C47B
:1004200000086F0040006F000000411106C622C4A2
:1004300000086F0040006F000000411106C622C492
:1004400000086F0040006F000000411106C622C482
:1004500000086F0040006F000000411106C622C472
:1004600000086F0040006F000000411106C622C462
:1004700000086F0040006F000000411106C622C452
:1004800000086F0040006F000000411106C622C442
:1004900000086F0040006F000000411106C622C432
:1004A00000086F0040006F000000411106C622C422
:1004B00000086F0040006F000000411106C622C412
:1004C00000086F0040006F000000411106C622C402
:1004D00000086F0040006F000000411106C622C4F2
:1004E00000086F0040006F000000411106C622C4E2
:1004F00000086F0040006F000000411106C622C4D2
:1005000000086F0040006F000000411106C622C4C1
:1005100000086F0040006F000000411106C622C4B1
:1005200000086F0040006F000000411106C622C4A1
:1005300000086F0040006F000000411106C622C491
:1005400000086F0040006F000000411106C622C481
:1005500000086F0040006F000000411106C622C471
:1005600000086F0040006F000000411106C622C461
:1005700000086F0040006F000000411106C622C451
:1005800000086F0040006F000000411106C622C441
:1005900000086F0040006F000000411106C622C431
:1005A00000086F0040006F000000411106C622C421
:1005B00000086F0040006F000000411106C622C411
:1005C00000086F0040006F000000411106C622C401
:1005D00000086F0040006F000000411106C622C4F1
:1005E00000086F0040006F000000411106C622C4E1
:1005F00000086F0040006F000000411106C622C4D1
:1006000000086F0040006F000000411106C622C4C0
:1006100000086F0040006F000000411106C622C4B0
:1006200000086F0040006F000000411106C622C4A0
:1006300000086F0040006F000000411106C622C490
:1006400000086F0040006F000000411106C622C480
:1006500000086F0040006F000000411106C622C470
:1006600000086F0040006F000000011106CE22CC90
:10067000001037157C00130505B02328A4FE09657A
:10068000130505A02326A4FE73E0107C0145231B5F
:10069000A4FE6F004000831564FF1305F006634B52
:1006A000B5026F004000032504FF93054500232891
:1006B000B4FE08418325C4FE138645002326C4FEEC
:1006C00088C16F004000031564FF0505231BA4FECD
:1006D0006FF07FFC73F0107C6244F2400561828011
:1006E000411106C622C400080520E12E812065457F
:1006F00005468D46B285972085FFE780A0908D281E
:100700002244B24041018280411106C622C4000841
:1007100073E0107C3965930505C013058006A8C1F8
:1007200073F0107C2244B24041018280411106C620
:1007300022C4000873E0107C3965930505C0C851D8
:100740001375F5EFC8D1C8517999C8D1C851096658
:10075000518DC8D1C8511166518DC8D1C85113658A
:100760000540C8D173F0107C2244B2404101828020
:10077000411106C622C4000873E0107C3966930557
:1007800006C0094588CD032506C07199136525006B
:100790002320A6C088451365850088C5C849136510
:1007A0001500C8C9C84913652500C8C9C8491365DB
:1007B0000510C8C9C84913650520C8C9C8491365CB
:1007C0000540C8C9C84513650510C8C5C8451365A7
:1007D0001500C8C5C84513652500C8C5C8451365BB
:1007E0004500C8C5C84513658500C8C5C849096620
:1007F000518DC8C988451365150088C5884513659E
:10080000050188C588451365054088C58845136579
:10081000051088C5C8451166518DC8C58845136542
:10082000450088C573F0107C2244B24041018280AB
:10083000011106CE22CC0010232AA4FE2328B4FEE8
:100840002326C4FE01456244F240056182804111C5
:1008500006C622C4000813850188232AA4FE6F005F
:100860004000032544FF938581886371B5026F00C2
:100870004000832544FF014588C16F0040000325E7
:1008800044FF1105232AA4FE6FF0BFFD2244B240AD
:1008900041018280011106CE22CC001037157C0068
:1008A000130505CC232AA4FE416513050500232862
:1008B000A4FE138501852326A4FE6F0040000325B6
:1008C00004FF8325C4FE6378B5026F004000032552
:1008D00044FF03050500832504FF2380A5000325AD
:1008E00004FF05052328A4FE032544FF0505232A4C
:1008F000A4FE6FF0DFFC6244F240056182800111CA
:1009000006CE22CC001037157C00130505D1232A12
:10091000A4FE4965130505002328A4FE49651305B7
:10092000051E2326A4FE6F004000032504FF832537
:10093000C4FE6378B5026F004000032544FF030541
:100940000500832504FF2380A500032504FF05057A
:100950002328A4FE032544FF0505232AA4FE6FF0E7
:10096000DFFC6244F24005618280011106CE22CC98
:10097000001037157C00130505EF232AA4FE13058C
:1009800000002328A4FE130500002326A4FE6F0008
:100990004000032504FF8325C4FE6378B5026F0081
:1009A0004000032544FF03050500832504FF238041
:1009B000A500032504FF05052328A4FE032544FF05
:1009C0000505232AA4FE6FF0DFFC6244F2400561B6
:1009D0008280011106CE22CC001037157C00130551
:1009E00005EF232AA4FE0565130505802328A4FE30
:1009F0000565130505802326A4FE6F00400003252E
:100A000004FF8325C4FE6378B5026F004000032510
:100A100044FF03050500832504FF2380A50003256B
:100A200004FF05052328A4FE032544FF0505232A0A
:100A3000A4FE6FF0DFFC6244F24005618280411148
:100A400006C622C4000873E0107C3965930505C012
:100A500013058006A8C173F0107C2244B240410106
:100A60008280411106C622C4000873E0107C3965FB
:100A7000930505C013058002A8C173F0107C2244C1
:100A8000B24041018280411106C622C40008453FA0
:100A900073E0107CB96503A505C61365150023A096
:100AA000A5C673F0107C6533F533913D7D3D153758
:100AB00097F084FFE78060576D372244B2404101D0
:100AC000828037357A00834515FF898985E973E08F
:100AD000107C832505FC39662326B6C8832545FC92
:100AE00097D684FF93860612CCCE832585FC8CD2C4
:100AF0000325C5FC2322A6C673F0107C828000006B
:100B00001A047C002A047C003A067C003A047C002B
:100B10004A047C005A047C006A047C007A047C004D
:100B20008A047C009A047C00AA047C00BA047C003D
:100B30003A067C003A067C003A067C003A067C00C5
:100B4000CA047C00DA047C00EA047C00FA047C001D
:100B50003A067C003A067C003A067C003A067C00A5
:100B60000A057C003A067C003A067C003A067C00C6
:100B70003A067C003A067C003A067C003A067C0085
:100B80001A057C003A067C003A067C003A067C0096
:100B90003A067C003A067C003A067C003A067C0065
:100BA0002A057C003A057C003A067C003A067C0067
:100BB0003A067C003A067C003A067C003A067C0045
:100BC0004A057C005A057C006A057C007A057C0099
:100BD0003A067C003A067C003A067C003A067C0025
:100BE0008A057C009A057C003A067C003A067C0067
:100BF0003A067C003A067C003A067C003A067C0005
:100C0000AA057C00BA057C003A067C003A067C0006
:100C10003A067C003A067C003A067C003A067C00E4
:100C20003A067C003A067C00CA057C00DA057C00A6
:100C3000EA057C00FA057C000A067C001A067C00A6
:100C40003A067C003A067C003A067C003A067C00B4
:100C50003A067C003A067C003A067C003A067C00A4
:100C60002A067C003A067C003A067C003A067C00A4
:100C70003A067C003A067C003A067C003A067C0084
:100C80004A067C003A067C003A067C003A067C0064
:100C90003A067C003A067C003A067C003A067C0064
:100CA0005A067C003A067C003A067C003A067C0034
:100CB0003A067C003A067C003A067C003A067C0044
:100CC00031112EC8F325007C2EC6F325003001001B
:100CD0000B002566010073900530B2457390057CCA
:100CE000C24551018280411106C622C4000873E04A
:100CF000107C37057B0093050580114523A6A50AC6
:0C0D000073F0107C2244B240410182805C
:100D1000011106CE22CC0010231BA4FE231AB4FE20
:100D20002319C4FE2318D4FE3965130505C04841B4
:100D30001D810D8981456301B5026F00400073E09C
:100D4000107C3965930505C0C8411375F5E7C8C126
:100D500073F0107C6F0040003965130505C008551D
:100D600019813D89835544FF6306B5026F00400039
:100D700073E0107C035644FF3965930505C0885520
:100D80003D8A1A061375F5C3518D88D573F0107C12
:100D90006F0040003965130505C0085529813D895C
:100DA000835524FF6308B5026F00400073E0107C98
:100DB000035624FF3965930505C088553D8A2A06E8
:100DC000F1769386F63F758D518D88D573F0107C42
:100DD0006F0040003965130505C008551375F5030C
:100DE000835564FF6306B5026F00400073E0107C1A
:100DF000035664FF3965930505C088551376F603DD
:100E0000137505FC518D88D573F0107C6F00400080
:100E1000035504FF8545630BB5006F004000035583
:100E200004FF89456316B5026F00400073E0107C33
:100E3000035604FF3965930505C0C8410D8A1E0697
:100E40001375F5E7518DC8C173F0107C6F00400039
:100E5000035504FF8D456310B5046F00400073E037
:100E6000107C3965930505C02326B4FEC84113756F
:100E7000F5E713650510C8C1056513051576EFD0B4
:100E80003FE98325C4FEC84113650518C8C173F046
:100E9000107C6F0040006F0040003965130505C0ED
:100EA0004841058981456316B5006F0040006FF029
:100EB000DFFE6244F24005618280411106C622C411
:100EC000000873E0107C37057B009305058003A5BF
:100ED000850A1365150023A4A50A114523A6A50AB2
:0C0EE00073F0107C2244B240410182807B
:02000004007D7D
:06FFE000B7007C008280E6
:10FFF000FFFFFFFFFFFFFFFFFFFFFFFFFFFFFFFF11
:04000005007C00007B
:00000001FF
