:0200000400708A
:1000000081400141814101428142014381430144D8
:1000100081440145814501468146014781470148A8
:10002000814801498149014A814A014B814B014C78
:10003000814C014D814D014E814E014F814FF9623E
:1000400073A002308542FE0263C3020001A0970242
:1000500000009382220473905230970191FF9381A4
:10006000617A170290FF1302D27D137202FC73258E
:1000700040F185456370B5001316150132921701E2
:1000800090FF130121786111EF00E07DEF00604CDB
:100090006D7106C20AC40EC612C816CA1ACC1ECE8C
:1000A00022D026D22AD42ED632D836DA3ADC3EDE18
:1000B000C2C0C6C2CAC4CEC6D2C8D6CADACCDECE88
:1000C000E2D0E6D2EAD4EED6F2D8F6DAFADCFEDEF8
:1000D00073252034F32510340A86EF000053731083
:1000E000153489629382028073A0023092402241CB
:1000F000B2414242D2426243F243025492542255E8
:10010000B2554256D2566257F2570648964826498B
:10011000B649464AD64A664BF64B065C965C265D67
:10012000B65D465ED65E665FF65F51617300203055
:10013000411106C622C40008356593050500014536
:1001400088D141657D1588D503D585011375F5EFF7
:10015000239CA50003D5C5013D99239EA5000395C9
:10016000C50113651500239EA5000395C501136500
:100170006500239EA5000395850113651500239C4A
:10018000A50003D585016D99239CA50003958501E4
:1001900013650501239CA50003D585011375F5FBA7
:1001A000239CA5000395850113652500239CA500CC
:1001B0000395850113658500239CA50003958501A2
:1001C00013650502239CA5000395850113650508A9
:1001D000239CA5000395C50113650502239EA50078
:1001E00003D5C5011375F5F3239EA500039585017D
:1001F00013650510239CA5000395C5011365050132
:10020000239EA5000395C50113658500239EA500C7
:100210000395850113650510239CA5000395050230
:10022000136505012390A5022244B240410182805A
:100230005D7186C696C49AC29EC022DE2ADC2EDA82
:1002400032D836D63AD43ED242D046CE72CC76CAD6
:100250007AC87EC680083565130505004C452D65B6
:100260001305052048490605136515006362B502AC
:100270006F0040003565130505004845AD65938561
:100280000520CC498605FD156377B5006F00400059
:1002900031246F0040003565130505000C492D65BC
:1002A0001305052048490605136515006362B5026C
:1002B0006F0040003565130505000849AD6593855D
:1002C0000520CC498605FD156377B5006F00400019
:1002D000F1226F0040003565130505004C492D657E
:1002E0001305052048490605136515006362B5022C
:1002F0006F0040003565130505004849AD659385DD
:100300000520CC498605FD156377B5006F004000D8
:1003100071226F004000C16503A50500050523A0FB
:10032000A50041650325850085456314B5086F0068
:1003300040002D65130505204C491305F004636B3F
:10034000B5026F0040002D6593050520C8490505DD
:10035000C8C939659305858388511365052088D1FF
:100360003745874713052577974091FFE780C0E41D
:100370006F00E003C165014523A4A5002D65930529
:100380000520C8497D15C8C93965930585838851FD
:10039000056613060680518D88D1374587471305BA
:1003A0002577974091FFE78020E16F0040006F00C4
:1003B00060082D65130505204849AD45636DB502FC
:1003C0006F0040002D6593050520C8497D15C8C9FB
:1003D0003965930585838851056613060680518D1E
:1003E00088D13745874713052577974091FFE780E8
:1003F000A0DC6F00E003C165054523A4A5002D65C1
:1004000093050520C8490505C8C939659305858345
:100410008851056613060680518D88D13745874778
:1004200013052577974091FFE78000D96F004000C2
:100430006F004000C16503A54500050523A2A50086
:100440003565930505000395850213650501239421
:10045000A50203958502136515002394A502039553
:10046000C50113658500239EA500096593050590C8
:100470002145C8C1B24F424FD24E624EF248025897
:1004800092572257B2564256D255625572548643FD
:100490001643A642B640616173002030411106C682
:1004A00022C4000801002244B2404101828041116F
:1004B00006C622C40008AD6503A50520719923A0D6
:1004C000A52013860520294548CA014548C608C607
:1004D00048561365C50048D603A505201375F5C712
:1004E0001365050823A0A52003A50520797613062A
:1004F000F63F718D23A0A520C165054523A4A50065
:100500002244B24041018280411106C622C4000843
:1005100073E0107C39659305058088453706F4FF44
:100520007D16718D88C588551365052088D5884549
:10053000370640FF7D16718D88C588550566130600
:100540000680518D88D573F0107C2244B240410161
:100550008280011106CE22CC001001452326A4FE84
:10056000232AA4FE252F4D37312DE12BAD25032560
:10057000C4FEB71510002328B4FE23A8A5C0B715E4
:10058000100023A8A5D0712D73E0107C37057000F2
:10059000130505238965938505A0A8D173F0107C08
:1005A00073E0107C3965930505C02324B4FE8845AB
:1005B0006D9988C573F0107CDD3D832584FE73E062
:1005C000107C88451365450088C573F0107C8D3616
:1005D0000325C4FE832504FF41662320A60041664F
:1005E0002322A60003A505C11365850023A8A5C085
:1005F00009659305059088511365150088D17360CE
:1006000004306F0040006F000000011106CE22CCC4
:100610000010232AA4FE2328B4FE2326C4FE01458D
:100620006244F24005618280411106C622C400087E
:10063000416513050500232AA4FE6F004000032531
:1006400044FFC165938505016371B5026F004000E9
:10065000832544FF014588C16F004000032544FF06
:100660001105232AA4FE6FF09FFD2244B2404101F0
:100670008280011106CE22CC0010371570001305C0
:100680000504232AA4FE4165130505002328A4FEC2
:100690004165130505002326A4FE6F0040000325D5
:1006A00004FF8325C4FE6378B5026F004000032574
:1006B00044FF03050500832504FF2380A5000325CF
:1006C00004FF05052328A4FE032544FF0505232A6E
:1006D000A4FE6FF0DFFC6244F240056182800111EC
:1006E00006CE22CC00103715700013050504232A0E
:1006F000A4FE5165130505002328A4FE51651305CA
:10070000051E2326A4FE6F004000032504FF832559
:10071000C4FE6378B5026F004000032544FF030563
:100720000500832504FF2380A500032504FF05059C
:100730002328A4FE032544FF0505232AA4FE6FF009
:10074000DFFC6244F24005618280011106CE22CCBA
:1007500000103715700013050522232AA4FE130587
:1007600000002328A4FE130500002326A4FE6F002A
:100770004000032504FF8325C4FE6378B5026F00A3
:100780004000032544FF03050500832504FF238063
:10079000A500032504FF05052328A4FE032544FF27
:1007A0000505232AA4FE6FF0DFFC6244F2400561D8
:1007B0008280011106CE22CC00103715700013057F
:1007C0000522232AA4FE0565130505802328A4FE1F
:1007D0000565130505802326A4FE6F004000032550
:1007E00004FF8325C4FE6378B5026F004000032533
:1007F00044FF03050500832504FF2380A50003258E
:1008000004FF05052328A4FE032544FF0505232A2C
:10081000A4FE6FF0DFFC6244F2400561828041116A
:1008200006C622C4000873E0107C3965930505C034
:1008300013058006A8C173F0107C2244B240410128
:100840008280411106C622C4000873E0107C39651D
:10085000930505C013058002A8C173F0107C2244E3
:10086000B24041018280411106C622C40008453FC2
:1008700073E0107CB96503A505C61365150023A0B8
:10088000A5C673F0107C4D33ED33913D7D3D15379A
:10089000973091FFE78000776D372244B2404101E5
:1008A0008280411106C622C400086F0040006F001C
:1008B0000000411106C622C400086F0040006F000E
:1008C0000000411106C622C400086F0040006F00FE
:1008D0000000411106C622C400086F0040006F00EE
:1008E0000000411106C622C400086F0040006F00DE
:1008F0000000411106C622C400086F0040006F00CE
:100900000000411106C622C400086F0040006F00BD
:100910000000411106C622C400086F0040006F00AD
:100920000000411106C622C400086F0040006F009D
:100930000000411106C622C400086F0040006F008D
:100940000000411106C622C400086F0040006F007D
:100950000000411106C622C400086F0040006F006D
:100960000000411106C622C400086F0040006F005D
:100970000000411106C622C400086F0040006F004D
:100980000000411106C622C400086F0040006F003D
:100990000000411106C622C400086F0040006F002D
:1009A0000000411106C622C400086F0040006F001D
:1009B0000000411106C622C400086F0040006F000D
:1009C0000000411106C622C400086F0040006F00FD
:1009D0000000411106C622C400086F0040006F00ED
:1009E0000000411106C622C400086F0040006F00DD
:1009F0000000411106C622C400086F0040006F00CD
:100A00000000411106C622C400086F0040006F00BC
:100A10000000411106C622C400086F0040006F00AC
:100A20000000411106C622C400086F0040006F009C
:100A30000000411106C622C400086F0040006F008C
:100A40000000411106C622C400086F0040006F007C
:100A50000000411106C622C400086F0040006F006C
:100A60000000411106C622C400086F0040006F005C
:100A70000000411106C622C400086F0040006F004C
:100A80000000411106C622C400086F0040006F003C
:100A90000000411106C622C400086F0040006F002C
:100AA0000000411106C622C400086F0040006F001C
:100AB0000000411106C622C400086F0040006F000C
:100AC0000000411106C622C400086F0040006F00FC
:100AD0000000411106C622C400086F0040006F00EC
:100AE0000000411106C622C400086F0040006F00DC
:100AF0000000411106C622C400086F0040006F00CC
:100B00000000411106C622C400086F0040006F00BB
:100B10000000411106C622C400086F0040006F00AB
:100B20000000411106C622C400086F0040006F009B
:100B30000000411106C622C400086F0040006F008B
:100B40000000411106C622C4000873E0107CB9659C
:100B500013860580085A1375F5FD08DA084EFD76F0
:100B60009386F63F758D08CE03A5058005661306AE
:100B700006C0518D23A0A58073F0107C2244B240A2
:100B800041018280411106C622C4000873E0107C36
:100B9000B96513860580085A1365050108DA085AF5
:100BA0001365050208DA03A505801375F5CF1365F3
:100BB000051023A0A58003A505807D761306F63FCA
:100BC000718D1365054023A0A58073F0107C22442D
:100BD000B24041018280411106C622C400087370F0
:100BE0000430096593050590014588C588C988CDFD
:100BF00088D188D588D988DDA8C1A8C5A8C9A8CDBD
:100C0000A8D1C8C5C8C9C8CDC8D1C8D5C8D9C8DD3C
:100C1000E8C1E8C5E8C9E8CDE8D12244B2404101C5
:100C20008280011106CE22CC00103715700013050A
:100C300045E72328A4FE0965130505A02326A4FE85
:100C400073E0107C0145231BA4FE6F004000831558
:100C500064FF1305F006634BB5026F0040000325E7
:100C600004FF930545002328B4FE08418325C4FEF4
:100C7000138645002326C4FE88C16F00400003157B
:100C800064FF0505231BA4FE6FF07FFC73F0107C4E
:100C9000736004306244F24005618280411106C6EF
:100CA00022C400083128412A352829458D4597302E
:100CB00091FFE78080378D282244B2404101828035
:100CC000411106C622C4000873E0107C3965930503
:100CD00005C013058006A8C173F0107C2244B24001
:100CE00041018280411106C622C4000873E0107CD5
:100CF0003965930505C0C8511375F5EFC8D1C851C2
:100D00007999C8D1C8510966518DC8D1C8511166A9
:100D1000518DC8D1C85113650540C8D173F0107CFE
:100D20002244B24041018280411106C622C400081B
:100D300073E0107C3966930506C0094588CD03250C
:100D400006C07199136525002320A6C08845136548
:100D5000850088C588451365250088C5C849136581
:100D60001500C8C9C84913652500C8C9C849136515
:100D70004500C8C9C84913650510C8C9C8491365E5
:100D80000520C8C9C84913650540C8C9C8451365C9
:100D90000510C8C5C84513651500C8C5C845136505
:100DA0002500C8C5C84513654500C8C5C8451365B5
:100DB0008500C8C5C84513650501C8C5C845136584
:100DC0000502C8C5C84513650504C8C5C8490966F4
:100DD000518DC8C988451365150088C588451365B8
:100DE000050188C588451365054088C58845136594
:100DF000051088C588451365052088C58845116696
:100E0000518D88C588491365051088C988491365BF
:100E1000052088C9C845518DC8C5C8452166518D72
:100E2000C8C588451365450088C573F0107C224409
:100E3000B2404101828037457A00834515BF8989D8
:100E400085E973E0107C8325058E17D690FF130685
:100E500066DB4CCE8325458E0CD28325858E396684
:100E60002326B6C80325C58E2328A6C873F0107C98
:100E700082800000A2087000B2087000120B70009F
:100E8000C2087000D2087000E2087000F20870001A
:100E90000209700012097000220970003209700006
:100EA00042097000120B7000120B7000120B7000E0
:100EB000120B700052097000620970007209700014
:100EC00082097000120B7000120B7000120B700080
:100ED000120B70009209700092097000120B7000E2
:100EE000120B7000120B7000120B7000120B7000CE
:100EF000120B7000A2097000120B7000120B700030
:100F0000120B7000120B7000120B7000120B7000AD
:100F1000120B7000B2097000C2097000120B700051
:100F2000120B7000120B7000120B7000120B70008D
:100F3000120B7000D2097000E2097000F209700013
:100F4000020A7000120A7000220A7000120B700070
:100F5000120B7000320A7000120B7000120B70003E
:100F6000120B7000120B7000120B7000120B70004D
:100F7000120B7000420A7000520A7000620A700080
:100F8000720A7000820A7000920A7000120B7000E0
:100F9000120B7000120B7000120B7000A20A70008E
:100FA000B20A7000C20A7000D20A7000E20A700031
:100FB000F20A7000120B7000120B7000120B70001E
:100FC000120B7000120B7000120B7000120B7000ED
:100FD000120B7000020B7000120B7000120B7000ED
:100FE000120B7000120B7000120B7000120B7000CD
:100FF000120B7000220B7000120B7000120B7000AD
:10100000120B7000120B7000120B7000120B7000AC
:10101000120B7000320B7000120B7000120B70007C
:10102000120B7000120B7000120B7000120B70008C
:04103000120B70002F
:10104000411106C622C4000873E0107C37057B00FE
:1010500093050580114523A6A50A73F0107C224450
:10106000B24041018280411106C622C40008231B00
:10107000A4FE231AB4FE3965130505C048411D813D
:101080000D8981456301B5026F00400073E0107C5B
:101090003965930505C0C8411375F5E7C8C173F0FC
:1010A000107C6F0040003965130505C008557D8927
:1010B000835564FF6306B5046F00400073E0107C45
:1010C000035664FF3965930505C088557D8A0199EB
:1010D000518D88D573F0107C97D06E00E78080C268
:1010E0006F0040003965130505C0484105898145F9
:1010F0006316B5006F0040006FF0DFFE6F00400028
:10110000035544FF8545630BB5006F004000035550
:1011100044FF89456316B5026F00400073E0107C00
:10112000035644FF3965930505C0C8410D8A1E0664
:101130001375F5E7518DC8C173F0107C6F00400046
:10114000035544FF8D45631FB5026F00400073E0F7
:10115000107C3965930505C02328B4FEC84113757A
:10116000F5E713650510C8C1056513051576592007
:10117000832504FFC84113650518C8C173F0107CAE
:101180006F0040002244B24041018280411106C6F6
:1011900022C4000873E0107C37057B0093050580AE
:1011A00003A5850A1365150023A4A50A114523A6E6
:1011B000A50A05651305959D23A0A50813057027AD
:1011C00023A8A50A1305D04E23ACA50A377526001F
:1011D0001305153C23A2A50823A4A5080D65130536
:1011E000951323AAA50A73F0107C2244B240410152
:1011F0008280000031112EC8F325007C2EC6F32515
:10120000003001000B002566010073900530B245E7
:0A1210007390057CC24551018280F5
:02000004007387
:06FFE800B70070008280EA
:10FFF000FFFFFFFFFFFFFFFFFFFFFFFFFFFFFFFF11
:040000050070000087
:00000001FF
