:02000004007C7E
:1000000081400141814101428142014381430144D8
:1000100081440145814501468146014781470148A8
:10002000814801498149014A814A014B814B014C78
:10003000814C014D814D014E814E014F814FF9623E
:1000400073A002308542FE0263C3020001A0970242
:1000500000009382220473905230970185FF9381B0
:10006000617A170284FF1302D27D137202FC73259A
:1000700040F185456370B5001316150132921701E2
:1000800084FF130121786111EF00C05FEF00400F82
:100090006D7106C20AC40EC612C816CA1ACC1ECE8C
:1000A00022D026D22AD42ED632D836DA3ADC3EDE18
:1000B000C2C0C6C2CAC4CEC6D2C8D6CADACCDECE88
:1000C000E2D0E6D2EAD4EED6F2D8F6DAFADCFEDEF8
:1000D00073252034F32510340A86EF004035731061
:1000E000153489629382028073A0023092402241CB
:1000F000B2414242D2426243F243025492542255E8
:10010000B2554256D2566257F2570648964826498B
:10011000B649464AD64A664BF64B065C965C265D67
:10012000B65D465ED65E665FF65F51617300203055
:10018000011106CE22CC00100145232AA4FE812AAB
:10019000112A5945930504FE972085FFE7802038F2
:1001A0002318A4FE1305300323A4A1C80545231971
:1001B000A4FE6F004000835524FF1D456347B50230
:1001C0006F004000035524FF0A05938581C8AA9556
:1001D00003A5C5FF050588C16F004000031524FF76
:1001E00005052319A4FE6FF01FFD416513050500E9
:1001F0000325050B938581C82146930684FE97202D
:1002000085FFE78020E02318A4FE014523A0A1C8B4
:100210002319A4FE6F004000835524FF1D4563464B
:10022000B5046F0040004165130505000325050B6B
:10023000835524FF8A052E950841138681C8B295FF
:100240008C41630BB5006F00400003A501C8050594
:1002500023A0A1C86F0040006F004000031524FFD9
:1002600005052319A4FE6FF03FFB6F00400003A5B6
:1002700001C88145631DB5006F00400039659305D5
:100280008583C84D13651500C8CD6F0060013965C1
:1002900093058583884D1365150088CD6F00400058
:1002A0006FF0FFFC411106C622C4000873E0107C09
:1002B0003965930505808845719988C5885513650A
:1002C000150088D5396593058583884D136515001C
:1002D00088CD73F0107C2244B240410182804111EC
:1002E00006C622C400080520E12E8120654505468A
:1002F0008D46B285972085FFE780C03D8D2822443A
:10030000B24041018280411106C622C4000873E058
:10031000107C3965930505C013058006A8C173F0EC
:10032000107C2244B24041018280411106C622C4A1
:10033000000873E0107C3965930505C0C85113753A
:10034000F5EFC8D1C8517999C8D1C8510966518D06
:10035000C8D1C8511166518DC8D1C8511365054027
:10036000C8D173F0107C2244B24041018280411117
:1003700006C622C4000873E0107C3966930506C0E7
:10038000094588CD032506C07199136525002320F2
:10039000A6C088451365850088C5C8491365150042
:1003A000C8C9C84913652500C8C9C84913650510DF
:1003B000C8C9C84913650520C8C9C849136505409F
:1003C000C8C9C84513650510C8C5C84513651500DB
:1003D000C8C5C84513652500C8C5C845136545008F
:1003E000C8C5C84513658500C8C5C8490966518D8B
:1003F000C8C988451365150088C58845136505017A
:1004000088C588451365054088C58845136505106E
:1004100088C5C8451166518DC8C588451365450016
:1004200088C573F0107C2244B240410182800111E2
:1004300006CE22CC0010232AA4FE2328B4FE2326B5
:10044000C4FE01456244F24005618280411106C646
:1004500022C40008138501C8232AA4FE6F004000AF
:10046000032544FF938581CA6371B5026F00400084
:10047000832544FF014588C16F004000032544FFE8
:100480001105232AA4FE6FF0BFFD2244B2404101B2
:100490008280011106CE22CC001037057C001305A6
:1004A0000570232AA4FE4165130505002328A4FE38
:1004B000138501C52326A4FE6F004000032504FF19
:1004C0008325C4FE6378B5026F004000032544FF16
:1004D00003050500832504FF2380A500032504FFF1
:1004E00005052328A4FE032544FF0505232AA4FEB1
:1004F0006FF0DFFC6244F24005618280011106CE9C
:1005000022CC001037157C00130505B5232AA4FE64
:100510004965130505002328A4FE4D651305058BC9
:100520002326A4FE6F004000032504FF8325C4FE9C
:100530006378B5026F004000032544FF0305050002
:10054000832504FF2380A500032504FF0505232838
:10055000A4FE032544FF0505232AA4FE6FF0DFFC5B
:100560006244F24005618280011106CE22CC001067
:1005700037157C0013050540232AA4FE130500004F
:100580002328A4FE130500002326A4FE6F004000CC
:10059000032504FF8325C4FE6378B5026F00400085
:1005A000032544FF03050500832504FF2380A500E0
:1005B000032504FF05052328A4FE032544FF0505A4
:1005C000232AA4FE6FF0DFFC6244F24005618280C2
:1005D000011106CE22CC001037157C001305054012
:1005E000232AA4FE0565130505802328A4FE0565BE
:1005F000130505802326A4FE6F004000032504FF99
:100600008325C4FE6378B5026F004000032544FFD4
:1006100003050500832504FF2380A500032504FFAF
:1006200005052328A4FE032544FF0505232AA4FE6F
:100630006FF0DFFC6244F24005618280411106C622
:1006400022C4000873E0107C3965930505C01305CA
:100650008006A8C173F0107C2244B2404101828020
:10066000411106C622C4000873E0107C3965930569
:1006700005C013058002A8C173F0107C2244B2406B
:1006800041018280411106C622C40008453F73E043
:10069000107CB96503A505C61365150023A0A5C682
:1006A00073F0107C6533F533913D7D3D1537970030
:1006B00085FFE78080D76D372244B24041018280B8
:1006C00037357A00834515FF898985E973E0107C09
:1006D000832505FC39662326B6C8832545FC97D6B5
:1006E00084FF93862652CCCE832585FC8CD20325AD
:1006F000C5FC2322A6C673F0107C828000F87A0025
:1007000000007C00FF037C0000047C00FF077C00ED
:1007100000087C00FF0B7C00000C7C00FF0F7C00BD
:1007200000107C00FF137C0000147C00FF177C008D
:1007300000187C00FF1B7C00001C7C00FF1F7C005D
:1007400000207C00FF237C0000247C00FF277C002D
:1007500000287C00FF2B7C00002C7C00FF2F7C00FD
:1007600000307C00FF337C0000347C00FF377C00CD
:1007700000387C00FF3B7C00003C7C00FF3F7C009D
:1007800000407C00FF437C0000447C00FF477C006D
:1007900000487C00FF4B7C00004C7C00FF4F7C003D
:1007A00000507C00FF537C0000547C00FF577C000D
:1007B00000587C00FF5B7C0000607C00FF637C00D5
:1007C00000647C00FF677C0000687C00FF6B7C009D
:1007D000006C7C00FF6F7C0000707C00FF737C006D
:1007E00000747C00FF777C00005C7C00FF5F7C0075
:1007F00000787C00FF7B7C00007C7C00FF7F7C001D
:1008000000807C00FF837C0000847C00FF877C00EC
:1008100000887C00FF8B7C00008C7C00FF8F7C00BC
:1008200000907C00FF937C0000947C00FF977C008C
:1008300000987C00FF9B7C00009C7C00FF9F7C005C
:1008400000A07C00FFA37C0000A47C00FFA77C002C
:1008500000A87C00FFAB7C0000AC7C00FFAF7C00FC
:1008600000B07C00FFB37C0000B47C00FFB77C00CC
:1008700000B87C00FFBB7C0000BC7C00FFBF7C009C
:1008800000C07C00FFC37C0000C47C00FFC77C006C
:1008900000C87C00FFCB7C0000CC7C00FFCF7C003C
:1008A00000D07C00FFD37C0000D47C00FFD77C000C
:1008B00000D87C00FFDB7C0000DC7C00FFDF7C00DC
:1008C00000E07C00FFE37C0000E47C00FFE77C00AC
:1008D00000E87C00FFEB7C0000EC7C00FFEF7C007C
:1008E00000F07C00FFF37C0000F47C00FFF77C004C
:1008F00000F87C00FFFB7C0000FC7C00FFFF7C001C
:1009000000007D00FF037D0000047D00FF077D00E7
:1009100000087D00FF0B7D00000C7D00FF0F7D00B7
:1009200000107D00FF137D0000147D00FF177D0087
:1009300000187D00FF1B7D00001C7D00FF1F7D0057
:1009400000207D00FF237D0000247D00FF277D0027
:1009500000287D00FF2B7D00002C7D00FF2F7D00F7
:1009600000307D00FF337D0000347D00FF377D00C7
:1009700000387D00FF3B7D00003C7D00FF3F7D0097
:1009800000407D00FF437D0000447D00FF477D0067
:1009900000487D00FF4B7D00004C7D00FF4F7D0037
:1009A00000507D00FF537D0000547D00FF577D0007
:1009B00000587D00FF5B7D00005C7D00FF5F7D00D7
:1009C00000607D00FF637D0000647D00FF677D00A7
:1009D00000687D00FF6B7D00006C7D00FF6F7D0077
:1009E00000707D00FF737D0000747D00FF777D0047
:1009F00000787D00FF7B7D00007C7D00FF7F7D0017
:100A000000807D00FF837D0000847D00FF877D00E6
:100A100000887D00FF8B7D00008C7D00FF8F7D00B6
:100A200000907D00FF937D0000947D00FF977D0086
:100A300000987D00FF9B7D00009C7D00FF9F7D0056
:100A400000A07D00FFA37D0000A47D00FFA77D0026
:100A500000A87D00FFAB7D0000AC7D00FFAF7D00F6
:100A600000B07D00FFB37D0000B47D00FFB77D00C6
:100A700000B87D00FFBB7D0000BC7D00FFBF7D0096
:100A800000C07D00FFC37D0000C47D00FFC77D0066
:100A900000C87D00FFCB7D0000CC7D00FFCF7D0036
:100AA00000D07D00FFD37D0000D47D00FFD77D0006
:100AB00000D87D00FFDB7D0000DC7D00FFDF7D00D6
:100AC00000E07D00FFE37D0000E47D00FFE77D00A6
:100AD00000E87D00FFEB7D0000EC7D00FFEF7D0076
:100AE00000F07D00FFF37D0000F47D00FFF77D0046
:100AF00000F87D00FFFB7D0000FC7D00FFFF7D0016
:100B000031112EC8F325007C2EC6F32500300100DC
:100B10000B002566010073900530B2457390057C8B
:100B2000C24551018280411106C622C4000873E00B
:100B3000107C37057B0093050580114523A6A50A87
:0C0B400073F0107C2244B240410182801E
:100B5000397106DE22DC80002328A4FE2326B4FEA1
:100B60002324C4FE2322D4FE37057C000325C56F51
:100B70000841058981456309B5006F00400029459A
:100B8000231BA4FE6F002012032504FF4981FD45AD
:100B90006369B5026F004000832504FF37057E00BE
:100BA00079156360B5026F004000032504FF8325BB
:100BB00084FE2E95B7057E00FD156369B5006F00B4
:100BC00040003145231BA4FE6F00E00D032504FF08
:100BD000832584FE130604FDE92881456309B500D9
:100BE0006F0040007D45231BA4FE6F00C00B73E027
:100BF000107C37057C008325C56F03A58509136527
:100C0000150023ACA50873F0107C01452320A4FE39
:100C10006F004000032504FE832584FE6379B5023E
:100C20006F0040000325C4FE832504FE13962500B3
:100C300032950841832504FFB29588C16F004000BA
:100C4000032504FE05052320A4FE6FF0BFFC6F0002
:100C5000400037057C000325C56F0325450905893C
:100C600081456306B5006F0040006FF09FFE0325CD
:100C700004FF8325C4FE032684FE930684FDF12031
:100C80002317A4FC0355E4FC81456319B5006F00EC
:100C900040000145231BA4FE6F00E0007945231BA3
:100CA000A4FE6F004000035564FF6254F2502161BE
:100CB0008280011106CE22CC00102328A4FE232618
:100CC000B4FE2324C4FE0145A301A4FE2322A4FEF6
:100CD0006F004000032544FE8325C4FE6370B50405
:100CE0006F004000032504FF832544FE8A052E95EE
:100CF0000841FD55630BB5006F004000030534FE4D
:100D00000505A301A4FE6F0040006F00400003250D
:100D100044FE05052322A4FE6FF0DFFB034534FEED
:100D200081456319B5006F0040000145231BA4FEF7
:100D30006F00E0007D45231BA4FE6F0040000355BB
:100D400064FF6244F24005618280797106D622D444
:100D500000182328A4FE2326B4FE2324C4FE232245
:100D6000D4FE0145A30FA4FC2320A4FE6F00400085
:100D7000032504FE832584FE6374B5046F004000E0
:100D80000325C4FE832504FE1396250032950841F1
:100D9000832504FFB2958C41630BB5006F004000C2
:100DA0000305F4FD0505A30FA4FC6F0040006F00D0
:100DB0004000032504FE05052320A4FE6FF05FFB21
:100DC0000345F4FD81456319B5006F0040000145FE
:100DD000231BA4FE6F00000113058002231BA4FE49
:100DE0006F004000035564FF2254B2504561828079
:100DF000397106DE22DC80002328A4FE2326B4FEFF
:100E00002324C4FE2322D4FE37057C000325C56FAE
:100E10000841058981456309B5006F0040002945F7
:100E2000231BA4FE6F00201A032504FF45819305B0
:100E3000D003636AB5026F004000032504FF935599
:100E4000C5001305207A6360B5026F0040000325DA
:100E500004FF832584FE2E9531819305307A6369E2
:100E6000B5006F0040003145231BA4FE6F00A015A4
:100E7000032504FF832584FE130604FD1D3D8145E3
:100E80006309B5006F0040007D45231BA4FE6F0081
:100E90008013034584FE0D8981456309B5006F0009
:100EA00040007945231BA4FE6F00E011034504FFB9
:100EB0000D8981456309B5006F0040007945231B0A
:100EC000A4FE6F00401073E0107C37057C00832582
:100ED000C56F03A5050A1365150023A0A50A73F0C5
:100EE000107C01452320A4FE6F004000032504FE72
:100EF000832584FE637DB5066F0040000325C4FE94
:100F0000832504FE1396250032950841832504FFAE
:100F1000B29588C10325C4FE832504FE13962500DF
:100F200032954841832504FFB295C8C10325C4FE0C
:100F3000832504FE1396250032950845832504FF7A
:100F4000B29588C50325C4FE832504FE13962500AB
:100F500032954845832504FFB295C8C56F0040000F
:100F6000032504FE11052320A4FE6FF03FF86F0057
:100F7000400037057C000325C56F03254509058919
:100F800081456306B5006F0040006FF09FFE0325AA
:100F900004FF8325C4FE032684FE930684FD753377
:100FA0002317A4FC0355E4FC81456319B5006F00C9
:100FB00040000145231BA4FE6F00E0007945231B80
:100FC000A4FE6F004000035564FF6254F25021619B
:100FD0008280011106CE22CC00102328A4FE231704
:100FE000B4FE2324C4FE0145A302A4FE2313A4FEE1
:100FF0006F004000035564FE8355E4FE6350B50462
:101000006F004000032504FF835564FE8A052E957A
:101010000841FD55630BB5006F004000030554FE09
:101020000505A302A4FE6F0040006F0040000315F9
:1010300064FE05052313A4FE6FF0DFFB034554FE99
:1010400081456319B5006F0040000145231BA4FED4
:101050006F00E0005945231BA4FE6F0040000355BC
:1010600064FF6244F24005618280011106CE22CC09
:101070000010A30AA4FE2328B4FE37057C00032534
:10108000C56F0841058981456309B5006F004000BF
:101090002945231BA4FE6F00400A034554FF930516
:1010A00000086349B5006F0040005145231BA4FEB2
:1010B0006F00A00873E0107C034654FF37057C00E6
:1010C0008325C56F03A505091376F607137505F883
:1010D000518D23A8A50873F0107C6F0040003705E0
:1010E0007C000325C56F03254509058981456306F5
:1010F000B5006F0040006FF09FFE034554FFC165CF
:10110000938505000E052E950841930500101306E2
:1011100084FEC1352313A4FE035564FE8145630993
:10112000B5006F0040005945231BA4FE6F00E0008E
:101130000145231BA4FE6F004000035564FF624479
:10114000F24005618280011106CE22CC00102328D6
:10115000A4FE37057C000325C56F0841058981453C
:101160006309B5006F0040002945231BA4FE6F00F2
:10117000600A73E0107C37057C008325C56F054548
:1011800023A6A50873F0107C6F00400037057C0093
:101190000325C56F03254509058981456306B5000B
:1011A0006F0040006FF09FFE0145A303A4FE6F0097
:1011B0004000834574FE1305F0076348B5046F00D3
:1011C0004000034574FEC165938505000E052E950C
:1011D000084193050010130684FEE53B2312A4FE8C
:1011E000035544FE81456309B5006F004000594531
:1011F000231BA4FE6F0000026F004000030574FE75
:101200000505A303A4FE6FF0DFFA0145231BA4FE2E
:101210006F004000035564FF6244F2400561828024
:10122000011106CE22CC0010231BA4FE231AB4FE0B
:101230002319C4FE2318D4FE3965130505C048419F
:101240001D810D8981456301B5026F00400073E087
:10125000107C3965930505C0C8411375F5E7C8C111
:1012600073F0107C6F0040003965130505C0085508
:1012700019813D89835544FF6306B5026F00400024
:1012800073E0107C035644FF3965930505C088550B
:101290003D8A1A061375F5C3518D88D573F0107CFD
:1012A0006F0040003965130505C0085529813D8947
:1012B000835524FF6308B5026F00400073E0107C83
:1012C000035624FF3965930505C088553D8A2A06D3
:1012D000F1769386F63F758D518D88D573F0107C2D
:1012E0006F0040003965130505C008551375F503F7
:1012F000835564FF6306B5026F00400073E0107C05
:10130000035664FF3965930505C088551376F603C7
:10131000137505FC518D88D573F0107C6F0040006B
:10132000035504FF8545630BB5006F00400003556E
:1013300004FF89456316B5026F00400073E0107C1E
:10134000035604FF3965930505C0C8410D8A1E0682
:101350001375F5E7518DC8C173F0107C6F00400024
:10136000035504FF8D456310B5046F00400073E022
:10137000107C3965930505C02326B4FEC84113755A
:10138000F5E713650510C8C1056513051576EFD09F
:101390003FBC8325C4FEC84113650518C8C173F05E
:1013A000107C6F0040006F0040003965130505C0D8
:1013B0004841058981456316B5006F0040006FF014
:1013C000DFFE6244F24005618280411106C622C4FC
:1013D000000873E0107C37057B009305058003A5AA
:1013E000850A1365150023A4A50A114523A6A50A9D
:0C13F00073F0107C2244B2404101828066
:02000004007D7D
:06FFE000B7007C008280E6
:10FFF000FFFFFFFFFFFFFFFFFFFFFFFFFFFFFFFF11
:04000005007C00007B
:00000001FF
