:0200000400708A
:1000000081400141814101428142014381430144D8
:1000100081440145814501468146014781470148A8
:10002000814801498149014A814A014B814B014C78
:10003000814C014D814D014E814E014F814FF9623E
:1000400073A002308542FE0263C3020001A0970242
:1000500000009382220473905230970191FF9381A4
:10006000617A170290FF1302D27D137202FC73258E
:1000700040F185456370B5001316150132921701E2
:1000800090FF130121786111EF003018EF00604DEF
:100090006D7106C20AC40EC612C816CA1ACC1ECE8C
:1000A00022D026D22AD42ED632D836DA3ADC3EDE18
:1000B000C2C0C6C2CAC4CEC6D2C8D6CADACCDECE88
:1000C000E2D0E6D2EAD4EED6F2D8F6DAFADCFEDEF8
:1000D00073252034F32510340A86EF00406D731029
:1000E000153489629382028073A0023092402241CB
:1000F000B2414242D2426243F243025492542255E8
:10010000B2554256D2566257F2570648964826498B
:10011000B649464AD64A664BF64B065C965C265D67
:10012000B65D465ED65E665FF65F51617300203055
:10013000411106C622C400084165B7853B45232C02
:10014000B5008325850137C5DB48130505A0EF10F1
:10015000200AEF108021C165239EA5002244B240F1
:1001600041018280411106C622C40008356513058D
:1001700005400C4D41662320B60068451581058970
:10018000C1652392A5002244B24041018280411101
:1001900006C622C400083565130505400C4D4166AE
:1001A0002320B6006845158193751500416523121B
:1001B000B500035545008545631AB5006F00400042
:1001C000C165054523A4A5006F00E001C1657D550B
:1001D00023A4A500C16503A505001345F5FF23A0D1
:1001E000A5006F004000416503258500C16583A51A
:1001F00005003305B5029305C0123305B502098524
:10020000EF10C019C16523A6A5002244B2404101E8
:100210008280411106C622C4000835659305054059
:10022000884D41662320A600E84515811376150008
:1002300041652312C500EC4D41662328B6000355E5
:1002400045008545631AB5006F004000C16505454E
:1002500023A4A5006F002002C1657D5523A4A5003D
:10026000C16503A605000565130505FA118D23A0D8
:10027000A5006F004000416503258500B5659385A5
:1002800005408C513305B5029305C003B305B50293
:10029000139525002E95C16583A505018A05335563
:1002A000B502EF100016C16523A6A5004165032520
:1002B0000500930580163305B502B7556210938586
:1002C00035DD3315B5029355F50121852E95EF10D7
:1002D000E00CC16523AAA5002244B24041018280FE
:1002E000411106C622C4000873E0107C35659305F1
:1002F00005407D5588C50D66130506EE88D1C855A5
:10030000D176FD16758D9166558DC8D5C855856613
:1003100093860680558DC8D58859B166558D88D984
:100320008859518D88D988591365850088D988598D
:100330001365450088D988591365250088D973F05D
:10034000107C2244B24041018280411106C622C481
:10035000000873E0107C3565930505407D5588C520
:100360000D66130506EE88D1C855D176FD16758D3C
:10037000C8D5C855FD769386F67F758DC8D5885942
:10038000B166558D88D98859518D88D9885913659A
:10039000850088D988591365450088D9885913651F
:1003A000250088D973F0107C2244B240410182803C
:1003B000411106C622C4000873E0107C3565930520
:1003C00005400565130605FA90C51305057788D124
:1003D000C85551767D16718DC8D5C8557D761306E2
:1003E000F67F718DC8D588593166518D88D9885965
:1003F0000D66518D88D988591365850088D988592B
:100400001365450088D988591365250088D9C859CE
:10041000419913651500C8D9C8591375F5F81365C6
:100420000501C8D9C8592166518DC8D973F0107C0F
:100430002244B24041018280411106C622C4000814
:1004400041658325850137C55B49130505A0EF008C
:10045000305AEF0090712D6693050600C8C901451A
:10046000C8C588C903250600719913652500232096
:10047000A600032506006D992320A600032506008B
:100480005D992320A600032506001365050323209C
:10049000A60003250600F9761387F63F798D232001
:1004A000A600032506001375F5C72320A600032523
:1004B0000600FD16758D2320A60003250600D176C3
:1004C000FD16758DA166558D2320A6004165035547
:1004D000C501C8D1C8554D9913654500C8D5C85543
:1004E000719913652500C8D588591375F5F31365FF
:1004F000050488D988591375F5FC1365050288D958
:100500002244B24041018280411106C622C4000843
:1005100073E0107C3965130605800846B70500FDB9
:10052000FD156D8D08C608568566558D08D639654A
:1005300093058583884D558D88CD0846B706F4FF11
:10054000FD16758D08C608561365052008D6884D1A
:100550001365052088CD73F0107C2244B240410120
:100560008280011106CE22CC001001452324A4FE76
:10057000232AA4FEEF003023EF00D007EF00300C59
:100580006137EF00F015032584FEB715100023280E
:10059000B4FE23A8A5C0B715100023A8A5D0EF006E
:1005A000F0189D2873E0107C370570001305656412
:1005B0008965938505A088CD73F0107C953E73E026
:1005C000107C3965930505C02326B4FE88456D99D6
:1005D00088C573F0107C8D358325C4FE73E0107CD4
:1005E00088451365450088C573F0107CD53983258F
:1005F00004FF03A505C11365150023A8A5C009655F
:100600009305059088451365050488C5736004301B
:100610006F0040006F000000411106C622C40008B0
:100620001D21416513058502B705F04237067A445E
:10063000712909659305058088453D9988C522443F
:10064000B240410182805D7186C696C49AC29EC046
:1006500022DE2ADC2EDA32D836D63AD43ED242D046
:1006600046CE72CC76CA7AC87EC68008416583259C
:10067000050285052320B5020325050293553500A3
:10068000130500276367B5006F004000E13C6F0071
:100690008008416503250502935545001305002791
:1006A0006368B5006F0040004D31D5346F006006BF
:1006B0004165232AA4FAB7057042232CB50083258F
:1006C000850137C5DB48130505A0EF007032EF0048
:1006D000D049AA85032544FB4166232CC4FA231E76
:1006E000B6008325850137C55B49130505A0EF00DA
:1006F0003030EF0090472A86032584FBAD65938553
:100700000500D0C90355C501C8D15D3119366F0048
:1007100040006F00400041650325C500C16583A509
:100720008501EF00303D8145631DB5026F0040003B
:10073000416503250500C16583A505014D8D8145F2
:100740006301B5026F004000396593058583C84D8C
:100750000566518DC8CDC84D13650520C8CD6F0005
:10076000E001396593058583884D0566518D88CDF7
:10077000884D1365052088CD6F00400009659305FD
:1007800005900545C8C1B24F424FD24E624EF24865
:10079000025892572257B2564256D2556255725459
:1007A00086431643A642B6406161730020300111B2
:1007B00006CE22CC0010232AA4FE2328B4FE232632
:1007C000C4FE01456244F24005618280411106C6C3
:1007D00022C40008416513050500232AA4FE6F000A
:1007E0004000032544FFC165938585056371B5020B
:1007F0006F004000832544FF014588C16F00400021
:10080000032544FF1105232AA4FE6FF09FFD224417
:10081000B24041018280011106CE22CC0010371572
:10082000700013050576232AA4FE41651305050013
:100830002328A4FE4165130505002326A4FE6F00AE
:100840004000032504FF8325C4FE6378B5026F00D2
:100850004000032544FF03050500832504FF238092
:10086000A500032504FF05052328A4FE032544FF56
:100870000505232AA4FE6FF0DFFC6244F240056107
:100880008280011106CE22CC0010371570001305AE
:100890000576232AA4FE5165130505002328A4FE2E
:1008A00051651305051E2326A4FE6F004000032595
:1008B00004FF8325C4FE6378B5026F004000032562
:1008C00044FF03050500832504FF2380A5000325BD
:1008D00004FF05052328A4FE032544FF0505232A5C
:1008E000A4FE6FF0DFFC6244F240056182800111DA
:1008F00006CE22CC00103725700013050594232A5C
:10090000A4FE130500002328A4FE130500002326DF
:10091000A4FE6F004000032504FF8325C4FE637816
:10092000B5026F004000032544FF03050500832541
:1009300004FF2380A500032504FF05052328A4FE4A
:10094000032544FF0505232AA4FE6FF0DFFC624463
:10095000F24005618280011106CE22CC00103725BD
:10096000700013050594232AA4FE05651305058070
:100970002328A4FE0565130505802326A4FE6F0029
:100980004000032504FF8325C4FE6378B5026F0091
:100990004000032544FF03050500832504FF238051
:1009A000A500032504FF05052328A4FE032544FF15
:1009B0000505232AA4FE6FF0DFFC6244F2400561C6
:1009C0008280411106C622C4000873E0107C39659C
:1009D000930505C013058006A8C173F0107C22445E
:1009E000B24041018280411106C622C4000873E072
:1009F000107C3965930505C013058002A8C173F00A
:100A0000107C2244B24041018280411106C622C4BA
:100A10000008453F73E0107CB96503A505C6136562
:100A2000150023A0A5C673F0107C4D33ED33913D26
:100A30007D3D1537973091FFE780C05C6D372244CC
:100A4000B24041018280411106C622C400080965F6
:100A500013070580C16523A4E502FD5654C3014573
:100A600048C710471366060110C7104713660602F1
:100A700010C793858502C8C1896593870581416642
:100A8000232CF602896513870582C16523A4E5043A
:100A9000D4C354C3C8C748C7944793E6060194C754
:100AA000144793E6060114C7944793E6060294C7D9
:100AB000144793E6060214C71306860348C29385BB
:100AC0008504C8C12244B24041018280011106CE92
:100AD00022CC0010232AA4FE2328B4FE2326C4FE21
:100AE000032504FF832544FF88C50325C4FE832511
:100AF00044FFC8C5032504FF8325C4FE9125EF00EC
:100B000030022324A4FE032584FE832544FF8C4168
:100B1000C8C1032544FF0C410145C8C5832544FFD6
:100B200090410C4693E505010CC6832544FF904196
:100B30000C4693E505020CC6832544FF90410C4604
:100B40009166D58D0CC6832544FFC8C16244F2402E
:100B500005618280411106C622C400086F00400072
:100B60006F000000411106C622C400086F0040005B
:100B70006F000000411106C622C400086F0040004B
:100B80006F000000411106C622C400086F0040003B
:100B90006F000000411106C622C400086F0040002B
:100BA0006F000000411106C622C400086F0040001B
:100BB0006F000000411106C622C400086F0040000B
:100BC0006F000000411106C622C400086F004000FB
:100BD0006F000000411106C622C400086F004000EB
:100BE0006F000000411106C622C400086F004000DB
:100BF0006F000000411106C622C400086F004000CB
:100C00006F000000411106C622C400086F004000BA
:100C10006F000000411106C622C400086F004000AA
:100C20006F000000411106C622C400086F0040009A
:100C30006F000000411106C622C400086F0040008A
:100C40006F000000411106C622C400086F0040007A
:100C50006F000000411106C622C400086F0040006A
:100C60006F000000411106C622C400086F0040005A
:100C70006F000000411106C622C400086F0040004A
:100C80006F000000411106C622C400086F0040003A
:100C90006F000000411106C622C400086F0040002A
:100CA0006F000000411106C622C400086F0040001A
:100CB0006F000000411106C622C400086F0040000A
:100CC0006F000000411106C622C400086F004000FA
:100CD0006F000000411106C622C400086F004000EA
:100CE0006F000000411106C622C400086F004000DA
:100CF0006F000000411106C622C400086F004000CA
:100D00006F000000411106C622C400086F004000B9
:100D10006F000000411106C622C400086F004000A9
:100D20006F000000411106C622C400086F00400099
:100D30006F000000411106C622C400086F00400089
:100D40006F000000411106C622C400086F00400079
:100D50006F000000411106C622C400086F00400069
:100D60006F000000411106C622C400086F00400059
:100D70006F000000411106C622C400086F00400049
:100D80006F000000411106C622C400086F00400039
:100D90006F000000411106C622C400086F00400029
:100DA0006F000000411106C622C400086F00400019
:100DB0006F000000411106C622C400086F00400009
:100DC0006F000000411106C622C400086F004000F9
:100DD0006F000000411106C622C400086F004000E9
:100DE0006F000000411106C622C400086F004000D9
:100DF0006F000000411106C622C4000873E0107C99
:100E0000B96513860580085A1365150008DA085A73
:100E10001365250008DA03A505807199136515008F
:100E200023A0A58003A505804D991365450023A047
:100E3000A58073F0107C2244B240410182804111B0
:100E400006C622C4000873E0107C3965930505804E
:100E500088593706F0FF7D16718D88D98859370675
:100E6000E0FF7D16718D88D988593706C0FF7D1641
:100E7000718D88D98859370680FF7D16718D88D984
:100E8000C84D1375F5CFC8CDC84D7D761307F63F15
:100E9000798DC8CDC84D75769306F6FF758DC8CD92
:100EA000C84D51767D16718DC8CDC8411375F5CFEB
:100EB00013650510C8C1C841798D13650540C8C1C7
:100EC000C841758D8566558DC8C1C841718D116643
:100ED000518DC8C173F0107C2244B2404101828020
:100EE000411106C622C400087370043009659305D9
:100EF0000590014588C588C988CD88D188D588D90D
:100F000088DDA8C1A8C5A8C9A8CDA8D1C8C5C8C929
:100F1000C8CDC8D1C8D5C8D9C8DDE8C1E8C5E8C9B9
:100F2000E8CDE8D12244B24041018280011106CED1
:100F300022CC001037157000130545492328A4FE64
:100F40000965130505A02326A4FE73E0107C014566
:100F5000231BA4FE6F004000831564FF1305F006F9
:100F6000634BB5026F004000032504FF9305450065
:100F70002328B4FE08418325C4FE1386450023269A
:100F8000C4FE88C16F004000031564FF0505231BE4
:100F9000A4FE6FF07FFC73F0107C73600430624439
:100FA000F24005618280411106C622C40008312842
:100FB0006521352829458D45973091FFE780E0066A
:100FC0008D282244B24041018280411106C622C4CC
:100FD000000873E0107C3965930505C01305800691
:100FE000A8C173F0107C2244B240410182804111BB
:100FF00006C622C4000873E0107C3965930505C05D
:10100000C8511375F5EFC8D1C8517999C8D1C851E5
:101010000966518DC8D1C8511166518DC8D1C851CA
:1010200013650540C8D173F0107C2244B2404101E1
:101030008280411106C622C4000873E0107C396624
:10104000930506C0094588CD032506C0719913652F
:1010500025002320A6C088451365850088C58845DE
:101060001365250088C5C84913651500C8C9C84956
:1010700013652500C8C9C84913654500C8C9C849D2
:1010800013650510C8C9C84913650520C8C9C849F2
:1010900013650540C8C9C84513650510C8C5C845CE
:1010A00013651500C8C5C84513652500C8C5C845E2
:1010B00013654500C8C5C84513658500C8C5C84542
:1010C00013650501C8C5C84513650502C8C5C845EF
:1010D00013650504C8C5C8490966518DC8C9884546
:1010E0001365150088C588451365050188C58845C1
:1010F0001365054088C588451365051088C5884572
:101100001365052088C588451166518D88C58849B5
:101110001365051088C988491365052088C9C84525
:10112000518DC8C5C8452166518DC8C58845136510
:10113000450088C573F0107C2244B2404101828092
:10114000370700809302F00FB347B500F98F1316ED
:101150001500618293961500E18229CEBDC6630F0A
:1011600056046389560636962205598DA205D98DF7
:10117000B306B5023335B502B336D000558D63449E
:10118000050006057D16130616F863480604FD12D1
:10119000635F56009316850121815E06329563D602
:1011A00006000505860691E279995D8D82803705F6
:1011B000807FE5BF638D56003E858280260501E96C
:1011C000E39756FEA60581E5DDB7E31756FE370522
:1011D000C07F8280A605E5FDD9BF050671FE218589
:1011E000930215000905E39902FC3705800075BFDD
:1011F0009302F00F13171500618393971500E18395
:101200003343B5001353F3017E035DCFF9CB630580
:10121000570C638D570C1D8F970200009382C243B9
:1012200093D6F50093F6C60F96969C4213D6874147
:101230009396F500E18293F216008582938606FC70
:1012400096963306D602A207A1833E96A205A181F7
:10125000B7078000DD8DB386C502220521815D8D33
:10126000B397C602B332B500331555003307574064
:1012700093564601858A93C616002E061D8E158E3E
:101280000A05B317A6021306E7075A050D8DB386A4
:10129000B7029302E00F637F56003385A640B32266
:1012A0000500969713F5170085833E955E063295E7
:1012B0001A9582801A85634556003703807F1A95F8
:1012C00082803705807FE5BF89C763935702A605F3
:1012D00085C13705C07F8280260565FDE39357FEF3
:1012E000CDBFE31057FE26056DF5E1BFA605F5F16C
:1012F0001A858280370600FF931615006360D602B8
:1013000093961500636CD6003366B500060609C6D1
:101310000D8D3335A0008280014582800545828095
:101320009357F5411316150093558601938515F8CB
:1013300063CF0500B70600807D470D8F635BE0003B
:101340002205558D3355E5003D8D1D8D828001456B
:10135000828013C7F6FFB70500FF63F3C500798DE0
:10136000758D634305003A8582806357A00293150B
:101370001500E181938515F863C00502B305B040FF
:10138000FD0563C905002205B7060080558D33555C
:10139000B50082807D558280014582801356F5011B
:1013A00022061306D60929CD9356F541B345D5003B
:1013B000958D93D6050199E2C205411693D6850114
:1013C00099E2A205611693D6C50199E292057116BC
:1013D00093D6E50199E28A05791663C4050086056E
:1013E0007D165E0613D58500DE0533A30500AE9598
:1013F0009A9563D60500AE95B335B0002E9532951B
:10140000828031C91306D0099356050199E242053D
:1014100041169356850199E2220561169356C5013E
:1014200099E2120571169356E50199E20A057916BB
:101430006344050006057D165E069315750121813E
:1014400033A30500AE959A9563D60500AE95B335E6
:10145000B0002E953295828037457A00834515BFBE
:10146000898985E973E0107C8325058E17C690FF76
:10147000130646794CCE8325458E0CD28325858E66
:1014800039662326B6C80325C58E2328A6C873F05F
:10149000107C8280540B7000640B7000C40D7000CF
:1014A000740B7000840B7000940B7000A40B700020
:1014B000B40B7000C40B7000D40B7000E40B700010
:1014C000F40B7000C40D7000C40D7000C40D7000EA
:1014D000C40D7000040C7000140C7000240C70001B
:1014E000340C7000C40D7000C40D7000C40D700089
:1014F000C40D7000440C7000440C7000C40D7000EA
:10150000C40D7000C40D7000C40D7000C40D7000D7
:10151000C40D7000540C7000C40D7000C40D700038
:10152000C40D7000C40D7000C40D7000C40D7000B7
:10153000C40D7000640C7000740C7000C40D700059
:10154000C40D7000C40D7000C40D7000C40D700097
:10155000C40D7000840C7000940C7000A40C70001A
:10156000B40C7000C40C7000D40C7000C40D70007A
:10157000C40D7000E40C7000C40D7000C40D700048
:10158000C40D7000C40D7000C40D7000C40D700057
:10159000C40D7000F40C7000040D7000140D700088
:1015A000240D7000340D7000440D7000C40D7000E7
:1015B000C40D7000C40D7000C40D7000540D700097
:1015C000640D7000740D7000840D7000940D700037
:1015D000A40D7000C40D7000C40D7000C40D700027
:1015E000C40D7000C40D7000C40D7000C40D7000F7
:1015F000C40D7000B40D7000C40D7000C40D7000F7
:10160000C40D7000C40D7000C40D7000C40D7000D6
:10161000C40D7000D40D7000C40D7000C40D7000B6
:10162000C40D7000C40D7000C40D7000C40D7000B6
:10163000C40D7000E40D7000C40D7000C40D700086
:10164000C40D7000C40D7000C40D7000C40D700096
:10165000C40D700040E00F8233A20F8604660F892C
:101660009D2B0F8DEBF20E90DBBB0E935B860E97DE
:101670005A520E99C81F0E9C96EE0D9FB6BE0DA233
:101680001B900DA4B8620DA681360DA96A0B0DAB97
:1016900069E10CAD72B80CAF7E900CB181690CB3EE
:1016A00073430CB54C1E0CB703FA0BB891D60BBAAA
:1016B000EEB30BBC14920BBDFC700BBF9E500BC065
:1016C000F6300BC1FD110BC3AEF30AC403D60AC535
:1016D000F7B80AC7859C0AC8A8800AC95C650ACA07
:1016E0009D4A0ACB66300ACCB3160ACD81FD09CEDD
:1016F000CBE409CF8ECC09D0C7B409D1729D09D2F1
:101700008D8609D3137009D3025A09D4584409D5D8
:10171000112F09D62B1A09D7A40509D778F108D8B3
:10172000A5DD08D92ACA08D903B708DA30A408DB2E
:10173000AC9108DB787F08DC906D08DCF35B08DD9A
:10174000A04A08DE933908DECC2808DF491808DFF4
:04175000080808E09D
:10176000411106C622C4000873E0107C37057B00D7
:1017700093050580114523A6A50A73F0107C224429
:10178000B24041018280411106C622C40008231BD9
:10179000A4FE231AB4FE3965130505C048411D8116
:1017A0000D8981456301B5026F00400073E0107C34
:1017B0003965930505C0C8411375F5E7C8C173F0D5
:1017C000107C6F0040003965130505C008557D8900
:1017D000835564FF6306B5046F00400073E0107C1E
:1017E000035664FF3965930505C088557D8A0199C4
:1017F000518D88D573F0107C97D06E00E78020F370
:101800006F0040003965130505C0484105898145D1
:101810006316B5006F0040006FF0DFFE6F00400000
:10182000035544FF8545630BB5006F004000035529
:1018300044FF89456316B5026F00400073E0107CD9
:10184000035644FF3965930505C0C8410D8A1E063D
:101850001375F5E7518DC8C173F0107C6F0040001F
:10186000035544FF8D45631FB5026F00400073E0D0
:10187000107C3965930505C02328B4FEC841137553
:10188000F5E713650510C8C10565130515765920E0
:10189000832504FFC84113650518C8C173F0107C87
:1018A0006F0040002244B24041018280411106C6CF
:1018B00022C4000873E0107C37057B009305058087
:1018C00003A5850A1365150023A4A50A114523A6BF
:1018D000A50A05651305959D23A0A5081305702786
:1018E00023A8A50A1305D04E23ACA50A37752600F8
:1018F0001305153C23A2A50823A4A5080D6513050F
:10190000951323AAA50A73F0107C2244B24041012A
:101910008280000031112EC8F325007C2EC6F325ED
:10192000003001000B002566010073900530B245C0
:0A1930007390057CC24551018280CE
:02000004007387
:06FFE800B70070008280EA
:10FFF000FFFFFFFFFFFFFFFFFFFFFFFFFFFFFFFF11
:040000050070000087
:00000001FF
