:02000004007C7E
:1000000081400141814101428142014381430144D8
:1000100081440145814501468146014781470148A8
:10002000814801498149014A814A014B814B014C78
:10003000814C014D814D014E814E014F814FF9623E
:1000400073A002308542FE0263C3020001A0970242
:1000500000009382220473905230970185FF9381B0
:10006000617A170284FF1302D27D137202FC73259A
:1000700040F185456370B5001316150132921701E2
:1000800084FF130121786111EF009061EF00405867
:100090006D7106C20AC40EC612C816CA1ACC1ECE8C
:1000A00022D026D22AD42ED632D836DA3ADC3EDE18
:1000B000C2C0C6C2CAC4CEC6D2C8D6CADACCDECE88
:1000C000E2D0E6D2EAD4EED6F2D8F6DAFADCFEDEF8
:1000D00073252034F32510340A86EF00B0367310F0
:1000E000153489629382028073A0023092402241CB
:1000F000B2414242D2426243F243025492542255E8
:10010000B2554256D2566257F2570648964826498B
:10011000B649464AD64A664BF64B065C965C265D67
:10012000B65D465ED65E665FF65F51617300203055
:10018000411106C622C40008231BA4FEAD6603A5C8
:1001900006005D9923A0A600035564FF7D15938595
:1001A0000600C8C95945C8D11305000B88D10145BF
:1001B00088D5C8C588C903A606003167598E23A013
:1001C000C60003A60600719A23A0C60003A6060077
:1001D0006D9A23A0C60003A606001366060323A09B
:1001E000C60003A606001376F6C723A0C60003A622
:1001F000060079771307F73F798E23A0C600D04D0C
:10020000719AD0CDD04D4D9AD0CDD04D3D9AD0CD14
:10021000D04D1376F6FBD0CDD055719A13661600EB
:10022000D0D5D0551376F6FC13660602D0D590597A
:10023000719A1366160090D990591376F6CF13660B
:10024000062090D9F051619A13661600F0D1F05152
:1002500013668600F0D1B055719A13661600B0D5BA
:1002600073E0107C03A6050A1366160023A0C50AD6
:1002700003A6050A6D9A23A0C50A23A0A50803A515
:10028000050871991365150023A0A50803A50508A5
:100290006D9923A0A50803A505081D9923A0A5080D
:1002A00003A505081365050423A0A5081305C00FC1
:1002B00023ACA50873F0107C2244B2404101828037
:1002C000411106C622C40008231BA4FE2D66032587
:1002D0000640136585002320A640035564FF7D1565
:1002E00093050640C8C95945C8D1014588D5C8C538
:1002F00088C903250640B166558D2320A6400325F5
:10030000064071992320A640032506406D992320BD
:10031000A64003250640136505032320A6400325B8
:1003200006401375F5C72320A64003250640F9763D
:100330009386F63F758D2320A640C84D7199C8CD90
:10034000C84D4D99C8CDC84D3D99C8CDC84D137500
:10035000F5FBC8CDC855719913651500C8D5C855AA
:100360001375F5FC13650502C8D588597199136595
:10037000150088D988591375F5CF1365052088D9DC
:10038000E851619913651500E8D1E85113658500BE
:10039000E8D1A855719913651500A8D52244B2403B
:1003A00041018280411106C622C40008231BA4FE1D
:1003B000316603250680136585002320A68003553A
:1003C00064FF7D1593050680C8C95945C8D113053A
:1003D000000B88D1014588D5C8C588C9032506808A
:1003E000B166558D2320A6800325068071992320B0
:1003F000A680032506806D992320A680032506800C
:10040000136505032320A680032506801375F5C711
:100410002320A68003250680F9769386F63F758D06
:100420002320A680C84D7199C8CDC84D4D99C8CD1F
:10043000C84D3D99C8CDC84D1375F5FBC8CDC855FD
:10044000719913651500C8D5C8551375F5FC13656A
:100450000502C8D5885971991365150088D988593E
:100460001375F5CF1365052088D9E8516199136597
:100470001500E8D1E85113658500E8D1A8557199B8
:1004800013651500A8D52244B24041018280411174
:1004900006C622C42AC22EC00008C165054523A095
:1004A000A5006F0040004165832505001305F00F8E
:1004B0006340B5066F004000416503250500220535
:1004C000AD659385050088D1C16501452392A500DE
:1004D0006F00400041658355450009651305F570BF
:1004E000634EB5006F0040006F004000C16503958A
:1004F000450005052392A5006FF0DFFD6F00400069
:10050000C16503A50500050523A0A5006FF0BFF98F
:100510002D6593050500A85913651500A8D909652F
:10052000930505901145C8C1824512452244B24049
:10053000410173002030411106C622C42AC22EC0D8
:1005400000082D6593050540A85913651500A8D925
:100550000965930505901145C8C18245124522449D
:10056000B240410173002030411106C622C42AC2A4
:100570002EC00008C165054523A0A5006F004000FE
:100580004165832505001305F00F6340B5066F0034
:1005900040004165032505002205B165938505806E
:1005A00088D1C16501452392A5006F0040004165D7
:1005B0008355450009651305F570634EB5006F005E
:1005C00040006F004000C16503954500050523927A
:1005D000A5006FF0DFFD6F004000C16503A50500B9
:1005E000050523A0A5006FF0BFF9316593050580CF
:1005F000A85913651500A8D90965930505901145FB
:10060000C8C1824512452244B240410173002030E6
:10061000011106CE22CC001001452322A4FE232A7C
:10062000A4FEE121292E8D267D26FD2E032544FEE4
:10063000B71510002328B4FE23A8A5C0B7151000D5
:1006400023A8A5D0052973E0107C37057C0013058D
:10065000E5488965938505A0A8C137057C00130589
:100660006553E8C137057C0013058556A8C573F0AE
:10067000107C73E0107C3965930505C02326B4FE19
:1006800088456D9988C573F0107C130520032324D9
:10069000A4FEFD34032584FE2531032584FE193391
:1006A0000326C4FE832504FF73E0107C084613650F
:1006B000450008C673F0107C03A505C1136545000D
:1006C00023A8A5C0096593050590884D13651500FD
:1006D00088CD884D1365250088CD884D136545006C
:1006E00088CD736004306F0040006F00000041113E
:1006F00006C622C400086F0040006F0000004111D0
:1007000006C622C400086F0040006F0000004111BF
:1007100006C622C400086F0040006F0000004111AF
:1007200006C622C400086F0040006F00000041119F
:1007300006C622C400086F0040006F00000041118F
:1007400006C622C400086F0040006F00000041117F
:1007500006C622C400086F0040006F00000041116F
:1007600006C622C400086F0040006F00000041115F
:1007700006C622C400086F0040006F00000041114F
:1007800006C622C400086F0040006F00000041113F
:1007900006C622C400086F0040006F00000041112F
:1007A00006C622C400086F0040006F00000041111F
:1007B00006C622C400086F0040006F00000041110F
:1007C00006C622C400086F0040006F0000004111FF
:1007D00006C622C400086F0040006F0000004111EF
:1007E00006C622C400086F0040006F0000004111DF
:1007F00006C622C400086F0040006F0000004111CF
:1008000006C622C400086F0040006F0000004111BE
:1008100006C622C400086F0040006F0000004111AE
:1008200006C622C400086F0040006F00000041119E
:1008300006C622C400086F0040006F00000041118E
:1008400006C622C400086F0040006F00000041117E
:1008500006C622C400086F0040006F00000041116E
:1008600006C622C400086F0040006F00000041115E
:1008700006C622C400086F0040006F00000041114E
:1008800006C622C400086F0040006F00000041113E
:1008900006C622C400086F0040006F00000041112E
:1008A00006C622C400086F0040006F00000041111E
:1008B00006C622C400086F0040006F00000041110E
:1008C00006C622C400086F0040006F0000004111FE
:1008D00006C622C400086F0040006F0000004111EE
:1008E00006C622C400086F0040006F0000004111DE
:1008F00006C622C400086F0040006F0000004111CE
:1009000006C622C400086F0040006F0000004111BD
:1009100006C622C400086F0040006F0000004111AD
:1009200006C622C400086F0040006F00000041119D
:1009300006C622C400086F0040006F00000041118D
:1009400006C622C4000873E0107CB96513860580D2
:10095000085A1365150008DA085A1365250008DAE5
:1009600003A5058071991365150023A0A58003A533
:1009700005804D991365450023A0A58073F0107C78
:100980002244B24041018280411106C622C40008BF
:1009900073E0107CB96513860580085A136545001D
:1009A00008DA085A1365850008DA03A5058013756F
:1009B000F5FC1365050123A0A58003A5058013752B
:1009C000F5F31365050423A0A58073F0107C224481
:1009D000B24041018280411106C622C4000873E082
:1009E000107CB96513860580085A1365050108DA7D
:1009F000085A1365050208DA03A505801375F5CFBB
:100A00001365051023A0A58003A505807D76130638
:100A1000F63F718D1365054023A0A58073F0107C0F
:100A20002244B24041018280411106C622C400081E
:100A300073700430096593050590014588C588C920
:100A400088CD88D188D588D988DDA8C1A8C5A8C98E
:100A5000A8CDA8D1C8C5C8C9C8CDC8D1C8D5C8D91E
:100A6000C8DDE8C1E8C5E8C9E8CDE8D12244B24014
:100A700041018280011106CE22CC001037157C0086
:100A80001305C5F42328A4FE0965130505A0232634
:100A9000A4FE73E0107C0145231BA4FE6F00400000
:100AA000831564FF1305F006634BB5026F00400029
:100AB000032504FF930545002328B4FE0841832540
:100AC000C4FE138645002326C4FE88C16F00400083
:100AD000031564FF0505231BA4FE6FF07FFC73F074
:100AE000107C6244F24005618280411106C622C436
:100AF00000083128E526352829458D45971085FFC2
:100B0000E780A0528D282244B240410182804111E9
:100B100006C622C4000873E0107C3965930505C041
:100B200013058006A8C173F0107C2244B240410135
:100B30008280411106C622C4000873E0107C39652A
:100B4000930505C0C8511375F5EFC8D1C8517999FF
:100B5000C8D1C8510966518DC8D1C8511166518D8F
:100B6000C8D1C85113650540C8D173F0107C224428
:100B7000B24041018280411106C622C4000873E0E0
:100B8000107C396593050580C84113650503C8C10C
:100B90003966930506C0094588CD032506C07199BD
:100BA000136525002320A6C088451365850088C5E8
:100BB000C84913651500C8C9C84913652500C8C9C7
:100BC000C84913650510C8C9C84913650520C8C9B7
:100BD000C84913650540C8C9C84513650510C8C58F
:100BE000C84513651500C8C5C84513652500C8C5A7
:100BF000C84513654500C8C5C84513658500C8C507
:100C0000C8490966518DC8C988451365150088C54E
:100C100088451365050188C588451365054088C565
:100C200088451365051088C5C8451166518DC8C52E
:100C300088451365450088C573F0107C2244B24096
:100C400041018280011106CE22CC0010232AA4FE8D
:100C50002328B4FE2326C4FE01456244F240056108
:100C60008280411106C622C40008416513050500B3
:100C7000232AA4FE6F004000032544FFC16593852D
:100C800085006371B5026F004000832544FF014574
:100C900088C16F004000032544FF1105232AA4FEEC
:100CA0006FF09FFD2244B24041018280011106CEC7
:100CB00022CC001037157C0013050511232AA4FE51
:100CC0004165130505002328A4FE416513050500B1
:100CD0002326A4FE6F004000032504FF8325C4FEE5
:100CE0006378B5026F004000032544FF030505004B
:100CF000832504FF2380A500032504FF0505232881
:100D0000A4FE032544FF0505232AA4FE6FF0DFFCA3
:100D10006244F24005618280011106CE22CC0010AF
:100D200037157C0013050511232AA4FE4965130518
:100D300005002328A4FE49651305851D2326A4FE6E
:100D40006F004000032504FF8325C4FE6378B502CD
:100D50006F004000032544FF03050500832504FFC1
:100D60002380A500032504FF05052328A4FE0325F1
:100D700044FF0505232AA4FE6FF0DFFC6244F24025
:100D800005618280011106CE22CC001037157C004F
:100D90001305852E232AA4FE130500002328A4FE94
:100DA000130500002326A4FE6F004000032504FF66
:100DB0008325C4FE6378B5026F004000032544FF1D
:100DC00003050500832504FF2380A500032504FFF8
:100DD00005052328A4FE032544FF0505232AA4FEB8
:100DE0006FF0DFFC6244F24005618280011106CEA3
:100DF00022CC001037157C001305852E232AA4FE73
:100E00000565130505802328A4FE056513050580E7
:100E10002326A4FE6F004000032504FF8325C4FEA3
:100E20006378B5026F004000032544FF0305050009
:100E3000832504FF2380A500032504FF050523283F
:100E4000A4FE032544FF0505232AA4FE6FF0DFFC62
:100E50006244F24005618280411106C622C4000846
:100E600073E0107C3965930505C013058006A8C1A1
:100E700073F0107C2244B24041018280411106C6C9
:100E800022C4000873E0107C3965930505C0130582
:100E90008002A8C173F0107C2244B24041018280DC
:100EA000411106C622C40008453F73E0107CB965B5
:100EB00003A505C61365150023A0A5C673F0107C15
:100EC0004D33ED33913D7D3D1537971085FFE7801C
:100ED000802E6D372244B24041018280B7457A00AE
:100EE00003C515BF09892DE173E0107C03A6058EAB
:100EF00017D584FF130505D150CD03A6458E10D11B
:100F000083A6858E39662326D6C883A6C58E232858
:100F1000D6C883A5058CB7B6AA55938656A5639304
:100F2000D502B7457A0083A6058D54CD83A6458D9D
:100F300014D103A5858D2326A6C803A5C58D9305C9
:100F400006C988C173F0107C82800000EE067C0028
:100F5000FE067C000E097C000E077C001E077C004C
:100F60002E077C003E077C004E077C005E077C005D
:100F70006E077C007E077C008E077C000E097C00DB
:100F80000E097C000E097C000E097C009E077C0087
:100F9000AE077C00BE077C00CE077C000E097C00FB
:100FA0000E097C000E097C000E097C00DE077C0027
:100FB0000E097C000E097C000E097C000E097C00E5
:100FC0000E097C000E097C000E097C00EE077C00F7
:100FD0000E097C000E097C000E097C000E097C00C5
:100FE0000E097C000E097C000E097C00FE077C00C7
:100FF0000E087C000E097C000E097C000E097C00A6
:101000000E097C000E097C000E097C001E087C0085
:101010002E087C003E087C004E087C000E097C00F7
:101020000E097C000E097C000E097C005E087C0025
:101030006E087C000E097C000E097C000E097C0005
:101040000E097C000E097C000E097C007E087C00E5
:101050008E087C000E097C000E097C000E097C00C5
:101060000E097C000E097C000E097C000E097C0034
:101070000E097C009E087C00AE087C00BE087C0047
:10108000CE087C00DE087C00EE087C000E097C00A7
:101090000E097C000E097C000E097C000E097C0004
:1010A0000E097C000E097C000E097C00FE087C0005
:1010B0000E097C000E097C000E097C000E097C00E4
:1010C0000E097C000E097C000E097C001E097C00C4
:1010D0000E097C000E097C000E097C000E097C00C4
:1010E0000E097C000E097C000E097C002E097C0094
:1010F0000E097C000E097C000E097C000E097C00A4
:0C1100000E097C000E097C000E097C002A
:1011100031112EC8F325007C2EC6F32500300100C6
:101120000B002566010073900530B2457390057C75
:10113000C24551018280411106C622C40008231B0A
:10114000A4FE231AB4FE3965130505C048411D816C
:101150000D8981456301B5026F00400073E0107C8A
:101160003965930505C0C8411375F5E7C8C173F02B
:10117000107C6F0040003965130505C008557D8956
:10118000835564FF6306B5046F00400073E0107C74
:10119000035664FF3965930505C088557D8A01991A
:1011A000518D88D573F0107C97F07A00E78060A7A6
:1011B0006F0040003965130505C048410589814528
:1011C0006316B5006F0040006FF0DFFE6F00400057
:1011D000035544FF8545630BB5006F004000035580
:1011E00044FF89456316B5026F00400073E0107C30
:1011F000035644FF3965930505C0C8410D8A1E0694
:101200001375F5E7518DC8C173F0107C6F00400075
:10121000035544FF8D45631FB5026F00400073E026
:10122000107C3965930505C02328B4FEC8411375A9
:10123000F5E713650510C8C1056513051576C93DA9
:10124000832504FFC84113650518C8C173F0107CDD
:101250006F0040002244B24041018280411106C625
:1012600022C4000873E0107C37057B0093050580DD
:1012700003A5850A1365150023A4A50A114523A615
:10128000A50A05651305959D23A0A50813057027DC
:1012900023A8A50A1305D04E23ACA50A377526004E
:1012A0001305153C23A2A50823A4A5080D65130565
:1012B000951323AAA50A73F0107C2244B240410181
:1012C0008280411106C622C4000873E0107C3705F5
:1012D0007B0093050580114523A6A50A73F0107CB9
:0812E0002244B240410182806A
:02000004007D7D
:06FFE800B7007C008280DE
:10FFF000FFFFFFFFFFFFFFFFFFFFFFFFFFFFFFFF11
:04000005007C00007B
:00000001FF
