:02000004007C7E
:1000000081400141814101428142014381430144D8
:1000100081440145814501468146014781470148A8
:10002000814801498149014A814A014B814B014C78
:10003000814C014D814D014E814E014F814FF9623E
:1000400073A002308542FE0263C3020001A0970242
:1000500000009382220473905230970185FF9381B0
:10006000617A170284FF1302D27D137202FC73259A
:1000700040F185456370B5001316150132921701E2
:1000800084FF130121786111EF00F047EF00A05DBC
:100090006D7106C20AC40EC612C816CA1ACC1ECE8C
:1000A00022D026D22AD42ED632D836DA3ADC3EDE18
:1000B000C2C0C6C2CAC4CEC6D2C8D6CADACCDECE88
:1000C000E2D0E6D2EAD4EED6F2D8F6DAFADCFEDEF8
:1000D00073252034F32510340A86EF00101D7310A9
:1000E000153489629382028073A0023092402241CB
:1000F000B2414242D2426243F243025492542255E8
:10010000B2554256D2566257F2570648964826498B
:10011000B649464AD64A664BF64B065C965C265D67
:10012000B65D465ED65E665FF65F51617300203055
:10018000411106C622C4000841658325050237C512
:10019000DB49130505A0EF00D03AEF00904D2D6626
:1001A00093050600C8C90145C8C588C903250600CE
:1001B0007199136525002320A600032506006D997B
:1001C0002320A600032506005D992320A600032511
:1001D0000600136505032320A60003250600F97613
:1001E0001387F63F798D2320A6000325060013759B
:1001F000F5C72320A60003250600FD16758D2320D4
:10020000A60003250600D176FD16758DA166558DD5
:100210002320A600416503550500C8D1C8554D9956
:1002200013654500C8D5C855719913652500C8D513
:1002300088591375F5F31365050488D98859137522
:10024000F5FC1365050288D92244B2404101828041
:10025000411106C622C400083565130505400C4D42
:1002600041662322B600684515810589C16523943E
:10027000A5002244B24041018280411106C622C439
:1002800000083565130505400C4D41662322B60074
:10029000684515819375150041652314B500035514
:1002A00085008545631AB5006F004000C1650545AE
:1002B00023A6A5006F00E001C1657D5523A6A5001A
:1002C000C16503A545001345F5FF23A2A5006F00F6
:1002D000400041650325C500C16583A54500330580
:1002E000B502B72509009385057C3305B502B755DE
:1002F0006210938535DD3315B5029355F5012185DF
:100300002E95EF00303AC16523A8A5002244B240E3
:1003100041018280411106C622C40008356593055B
:100320000540884D41662322A600E84515811376D5
:10033000150041652314C500EC4D4166232AB60023
:10034000035585008545631AB5006F004000C165FF
:10035000054523A6A5006F002002C1657D5523A693
:10036000A500C16503A645000565130505FA118DB5
:1003700023A2A5006F00400041650325C500B7E535
:100380006D00938505D03305B502C16583A5450190
:100390008A053345B502EF00F030C16523A8A500FA
:1003A000416503254500930580163305B502B75511
:1003B0006210938535DD3315B5029355F50121851E
:1003C0002E95EF00302EC16523ACA5002244B2402B
:1003D00041018280411106C622C4000873E0107CEE
:1003E0003966930506808859FD76FD16758D88D986
:1003F00003250680B7060003558D2320A680C85923
:100400006D99C8D988451365050388C58859417613
:100410007D16718D88D9C841719913652500C8C1B1
:10042000885901767D16718D88D9C8414D9913651B
:100430008500C8C173F0107C2244B2404101828023
:10044000411106C622C4000873E0107C356593058F
:1004500005407D5588C50D66130506EE88D1C85543
:10046000D176FD16758D9166558DC8D5C8558566B2
:1004700093860680558DC8D58859B166558D88D923
:100480008859518D88D988591365850088D988592C
:100490001365450088D988591365250088D973F0FC
:1004A000107C2244B24041018280411106C622C420
:1004B000000873E0107C3565930505407D5588C5BF
:1004C0000D66130506EE88D1C855D176FD16758DDB
:1004D000C8D5C855FD769386F67F758DC8D58859E1
:1004E000B166558D88D98859518D88D98859136539
:1004F000850088D988591365450088D988591365BE
:10050000250088D973F0107C2244B24041018280DA
:10051000411106C622C4000873E0107C35659305BE
:1005200005400565130605FA90C51305057788D1C2
:10053000C85551767D16718DC8D5C8557D76130680
:10054000F67F718DC8D588593166518D88D9885903
:100550000D66518D88D988591365850088D98859C9
:100560001365450088D988591365250088D9C8596D
:10057000419913651500C8D9C8591375F5F8136565
:100580000501C8D9C8592166518DC8D973F0107CAE
:100590002244B24041018280411106C622C40008B3
:1005A00073E0107C396593050580C8411365050C1F
:1005B000C8C188593706F8FF7D16718D88D9C84D96
:1005C0001375F5F313650504C8CD73F0107C224450
:1005D000B24041018280411106C622C4000873E086
:1005E000107C3565930505000395C501136505204D
:1005F000239EA50037353101130505D088C53795F1
:10060000980013050568C8C51305F00F88D5039534
:100610000502136505082390A5020395C50113651E
:100620000501239EA50073F0107C2244B2404101D5
:100630008280411106C622C4000873E0107C39652F
:100640008325058075767D16F18D2320B580930571
:100650000580C85113650504C8D173F0107C22448D
:10066000B24041018280011106CE22CC001001452A
:100670002326A4FE232AA4FEE12C393F012A352C8F
:10068000913B453F73700430B52C0325C4FEB7156C
:1006900010002328B4FE23A8A5C0B715100023A876
:1006A000A5D073E0107C37057C001305C57C8965F7
:1006B000938505A088C973F0107C313F4165B785EB
:1006C000BB452320B5028325050237C5DB49130549
:1006D00005A0852DEF00E079C1652390A50073E0AA
:1006E000107C3965930505C02324B4FE88456D99B7
:1006F00088C573F0107C6934832584FE73E0107C18
:1007000088451365450088C573F0107C153B0325AB
:10071000C4FE832504FF41662322A60041662314FC
:10072000A60041662328A60003A505C11365150090
:1007300023A8A5C0096593050590884513650501A3
:1007400088C5736004306F004000416503250501D2
:10075000C16583A50502EF00006F8145631DB500EB
:100760006F0040003965930585838849136505044A
:1007700088C96F006001396593058583C845136595
:100780000504C8C56F0040006FF03FFC411106C66C
:1007900022C4000873E0107C396593058586C84142
:1007A000019913655500C8C1096593058596C8412F
:1007B0004D9913654500C8C1C84113651500C8C1EE
:1007C00073F0107C2244B240410182805D7186C684
:1007D00096C49AC29EC022DE2ADC2EDA32D836D6E1
:1007E0003AD43ED242D046CE72CC76CA7AC87EC6C1
:1007F000800841658315C5018505231EB500835515
:10080000C50111456347B5006F00400091346F008A
:10081000A00741658355C50125456348B5006F00B4
:1008200040006131993C6F00E0054165232AA4FA3C
:10083000B70570422320B5028325050237C55B4901
:10084000130505A0FD293525AA85032544FB41662E
:10085000232CC4FA2310B6008325050237C5DB49D3
:10086000130505A0F92931252A86032584FBAD65EA
:1008700093850500D0C903550500C8D15139593CAD
:100880006F0040006F004000096593050590054525
:10089000C8C1B24F424FD24E624EF24802589257F0
:1008A0002257B2564256D255625572548643164369
:1008B000A642B640616173002030411106C622C4D1
:1008C000000873E0107CB96513860580085A13652B
:1008D000150008DA085A1365250008DA03A5058013
:1008E00071991365150023A0A58003A505804D9976
:1008F0001365450023A0A58073F0107C2244B2400C
:1009000041018280411106C622C400087370043080
:10091000096593050590014588C588C988CD88D1AA
:1009200088D588D988DDA8C1A8C5A8C9A8CDA8D16F
:10093000C8C5C8C9C8CDC8D1C8D5C8D9C8DDE8C1DF
:10094000E8C5E8C9E8CDE8D12244B240410182803F
:10095000411106C622C400083128452B35282945F7
:100960008D45971085FFE780406C8D282244B2406A
:1009700041018280411106C622C4000873E0107C48
:100980003965930505C013058006A8C173F0107C76
:100990002244B24041018280411106C622C40008AF
:1009A00073E0107C3965930505C0C8511375F5EFE8
:1009B000C8D1C8517999C8D1C8510966518DC8D1DB
:1009C000C8511166518DC8D1C85113650540C8D1B1
:1009D00073F0107C2244B24041018280411106C66E
:1009E00022C4000873E0107C396593050580C84176
:1009F00013650503C8C13966930506C0094588CD4E
:100A0000032506C07199136525002320A6C08845DB
:100A10001365850088C5C84913651500C8C9C8494C
:100A200013652500C8C9C84913650510C8C9C84958
:100A300013650520C8C9C84913650540C8C9C8451C
:100A400013650510C8C5C84513651500C8C5C84558
:100A500013652500C8C5C84513654500C8C5C84508
:100A600013658500C8C5C8490966518DC8C9884540
:100A70001365150088C588451365050188C5884537
:100A80001365054088C588451365051088C5C845A8
:100A90001166518DC8C588451365450088C573F03A
:100AA000107C2244B24041018280011106CE22CC4A
:100AB0000010232AA4FE2328B4FE2326C4FE0145E9
:100AC0006244F24005618280411106C622C40008DA
:100AD000416513050500232AA4FE6F00400003258D
:100AE00044FFC165938585026371B5026F004000C4
:100AF000832544FF014588C16F004000032544FF62
:100B00001105232AA4FE6FF09FFD2244B24041014B
:100B10008280011106CE22CC001037157C0013050F
:100B20000508232AA4FE4165130505002328A4FE19
:100B30004165130505002326A4FE6F004000032530
:100B400004FF8325C4FE6378B5026F0040000325CF
:100B500044FF03050500832504FF2380A50003252A
:100B600004FF05052328A4FE032544FF0505232AC9
:100B7000A4FE6FF0DFFC6244F24005618280011147
:100B800006CE22CC001037157C0013050508232A59
:100B9000A4FE4965130505002328A4FE4965130535
:100BA000851D2326A4FE6F004000032504FF832536
:100BB000C4FE6378B5026F004000032544FF0305BF
:100BC0000500832504FF2380A500032504FF0505F8
:100BD0002328A4FE032544FF0505232AA4FE6FF065
:100BE000DFFC6244F24005618280011106CE22CC16
:100BF000001037157C0013058525232AA4FE130554
:100C000000002328A4FE130500002326A4FE6F0085
:100C10004000032504FF8325C4FE6378B5026F00FE
:100C20004000032544FF03050500832504FF2380BE
:100C3000A500032504FF05052328A4FE032544FF82
:100C40000505232AA4FE6FF0DFFC6244F240056133
:100C50008280011106CE22CC001037157C001305CE
:100C60008525232AA4FE0565130505802328A4FEF7
:100C70000565130505802326A4FE6F0040000325AB
:100C800004FF8325C4FE6378B5026F00400003258E
:100C900044FF03050500832504FF2380A5000325E9
:100CA00004FF05052328A4FE032544FF0505232A88
:100CB000A4FE6FF0DFFC6244F240056182804111C6
:100CC00006C622C4000873E0107C3965930505C090
:100CD00013058006A8C173F0107C2244B240410184
:100CE0008280411106C622C4000873E0107C396579
:100CF000930505C013058002A8C173F0107C22443F
:100D0000B24041018280411106C622C40008453F1D
:100D100073E0107CB96503A505C61365150023A013
:100D2000A5C673F0107C4D33ED33913D7D3D1537F5
:100D3000971085FFE78020486D372244B24041017B
:100D400082809302F00F13171500618393971500AB
:100D5000E1833343B5001353F3017E035DCFF9CB39
:100D60006305570C638D570C1D8F9702000093820B
:100D7000E22093D6F50093F6C60F96969C4213D6C2
:100D800087419396F500E18293F21600858293865F
:100D900006FC96963306D602A207A1833E96A205CC
:100DA000A181B7078000DD8DB386C50222052181B0
:100DB0005D8DB397C602B332B500331555003307C6
:100DC000574093564601858A93C616002E061D8EFF
:100DD000158E0A05B317A6021306E7075A050D8DEF
:100DE000B386B7029302E00F637F56003385A640B7
:100DF000B3220500969713F5170085833E955E068E
:100E000032951A9582801A85634556003703807F94
:100E10001A9582803705807FE5BF89C763935702A3
:100E2000A60585C13705C07F8280260565FDE39351
:100E300057FECDBFE31057FE26056DF5E1BFA605B1
:100E4000F5F11A858280370600FF9316150063605E
:100E5000D60293961500636CD6003366B50006067D
:100E600009C60D8D3335A00082800145828005457D
:100E700082806357A00293151500E181938515F8D0
:100E800063C00502B305B040FD0563C90500220536
:100E9000B7060080558D3355B50082807D55828020
:100EA000014582801356F50122061306D60929CD85
:100EB0009356F541B345D500958D93D6050199E23A
:100EC000C205411693D6850199E2A205611693D613
:100ED000C50199E29205711693D6E50199E28A055A
:100EE000791663C4050086057D165E0613D5850058
:100EF000DE0533A30500AE959A9563D60500AE9541
:100F0000B335B0002E9532958280B7457A0003C57F
:100F100015BF09892DE173E0107C03A6058E17D556
:100F200084FF130525CE50CD03A6458E10D183A690
:100F3000858E39662326D6C883A6C58E2328D6C8B3
:100F400083A5058CB7B6AA55938656A56393D5029B
:100F5000B7457A0083A6058D54CD83A6458D14D15F
:100F600003A5858D2326A6C803A5C58D930506C9AF
:100F700088C173F0107C828040E00F8233A20F861C
:100F800004660F899D2B0F8DEBF20E90DBBB0E9349
:100F90005B860E975A520E99C81F0E9C96EE0D9FB7
:100FA000B6BE0DA21B900DA4B8620DA681360DA988
:100FB0006A0B0DAB69E10CAD72B80CAF7E900CB151
:100FC00081690CB373430CB54C1E0CB703FA0BB814
:100FD00091D60BBAEEB30BBC14920BBDFC700BBFD9
:100FE0009E500BC0F6300BC1FD110BC3AEF30AC40B
:100FF00003D60AC5F7B80AC7859C0AC8A8800AC9DB
:101000005C650ACA9D4A0ACB66300ACCB3160ACD83
:1010100081FD09CECBE409CF8ECC09D0C7B409D16C
:10102000729D09D28D8609D3137009D3025A09D44F
:10103000584409D5112F09D62B1A09D7A40509D769
:1010400078F108D8A5DD08D92ACA08D903B708DA83
:1010500030A408DBAC9108DB787F08DC906D08DCFD
:10106000F35B08DDA04A08DE933908DECC2808DFF0
:08107000491808DF080808E038
:1010800031112EC8F325007C2EC6F3250030010057
:101090000B002566010073900530B2457390057C06
:1010A000C24551018280411106C622C40008231B9B
:1010B000A4FE231AB4FE3965130505C048411D81FD
:1010C0000D8981456301B5026F00400073E0107C1B
:1010D0003965930505C0C8411375F5E7C8C173F0BC
:1010E000107C6F0040003965130505C008557D89E7
:1010F000835564FF6306B5046F00400073E0107C05
:10110000035664FF3965930505C088557D8A0199AA
:10111000518D88D573F0107C97F07A00E780C08DF0
:101120006F0040003965130505C0484105898145B8
:101130006316B5006F0040006FF0DFFE6F004000E7
:10114000035544FF8545630BB5006F004000035510
:1011500044FF89456316B5026F00400073E0107CC0
:10116000035644FF3965930505C0C8410D8A1E0624
:101170001375F5E7518DC8C173F0107C6F00400006
:10118000035544FF8D45631FB5026F00400073E0B7
:10119000107C3965930505C02328B4FEC84113753A
:1011A000F5E713650510C8C1056513051576C93D3A
:1011B000832504FFC84113650518C8C173F0107C6E
:1011C0006F0040002244B24041018280411106C6B6
:1011D00022C4000873E0107C37057B00930505806E
:1011E00003A5850A1365150023A4A50A114523A6A6
:1011F000A50A05651305959D23A0A508130570276D
:1012000023A8A50A1305D04E23ACA50A37752600DE
:101210001305153C23A2A50823A4A5080D651305F5
:10122000951323AAA50A73F0107C2244B240410111
:101230008280411106C622C4000873E0107C370585
:101240007B0093050580114523A6A50A73F0107C49
:081250002244B24041018280FA
:02000004007D7D
:06FFE800B7007C008280DE
:10FFF000FFFFFFFFFFFFFFFFFFFFFFFFFFFFFFFF11
:04000005007C00007B
:00000001FF
