:0200000400708A
:1000000081400141814101428142014381430144D8
:1000100081440145814501468146014781470148A8
:10002000814801498149014A814A014B814B014C78
:10003000814C014D814D014E814E014F814FF9623E
:1000400073A002308542FE0263C3020001A0970242
:1000500000009382220473905230970191FF9381A4
:10006000617A170290FF1302D27D137202FC73258E
:1000700040F185456370B5001316150132921701E2
:1000800090FF130121786111EF00B000EF000046EE
:100090006D7106C20AC40EC612C816CA1ACC1ECE8C
:1000A00022D026D22AD42ED632D836DA3ADC3EDE18
:1000B000C2C0C6C2CAC4CEC6D2C8D6CADACCDECE88
:1000C000E2D0E6D2EAD4EED6F2D8F6DAFADCFEDEF8
:1000D00073252034F32510340A86EF00C0557310C1
:1000E000153489629382028073A0023092402241CB
:1000F000B2414242D2426243F243025492542255E8
:10010000B2554256D2566257F2570648964826498B
:10011000B649464AD64A664BF64B065C965C265D67
:10012000B65D465ED65E665FF65F51617300203055
:10013000411106C622C400082D669305060013056A
:10014000007DC8C90145C8C588C99306803ED4D181
:1001500088D5032506007199136525002320A60084
:10016000032506006D992320A600032506001375BC
:10017000F5C72320A60003250600F9769386F63FEF
:10018000758D2320A600C84D3D99C8CDC84D137567
:10019000F5FBC8CDC84D7199C8CDC84D4D99C8CD96
:1001A000C8551375F5FC13650502C8D5C8551375F8
:1001B000F5F313650504C8D588591375F5CF136594
:1001C000052088D988597D761306F63F718D136511
:1001D000054088D9E851619913651500E8D1E851C7
:1001E00013658500E8D1A855719913651500A8D548
:1001F000C85D13653500C8DDC85D4D991365850080
:10020000C8DDC85D1375F5FCC8DD13052003A8C162
:10021000E8C12244B24041018280411106C622C495
:1002200000082D66930506101305007DC8C9014519
:10023000C8C588C99306803ED4D188D50325061049
:100240007199136525002320A610032506106D99CA
:100250002320A610032506101375F5C72320A6102A
:1002600003250610F9769386F63F758D2320A61098
:10027000C84D3D99C8CDC84D1375F5FBC8CDC84DC7
:100280007199C8CDC84D4D99C8CDC8551375F5FCA9
:1002900013650502C8D5C8551375F5F31365050434
:1002A000C8D588591375F5CF1365052088D98859A5
:1002B0007D761306F63F718D1365054088D9E851A8
:1002C000619913651500E8D1E85113658500E8D1FF
:1002D000A855719913651500A8D5C85D136535003B
:1002E000C8DDC85D4D9913658500C8DDC85D13750F
:1002F000F5FCC8DD13052003A8C1E8C12244B240C3
:1003000041018280411106C622C400082D66930572
:1003100006201305007DC8C90145C8C588C99306D4
:10032000803ED4D188D50325062071991365250018
:100330002320A620032506206D992320A62003252F
:1003400006201375F5C72320A62003250620F9767D
:100350009386F63F758D2320A620C84D3D99C8CDC4
:10036000C84D1375F5FBC8CDC84D7199C8CDC84DA2
:100370004D99C8CDC8554D9913658500C8D5C85548
:100380007D761306F63F718D13650540C8D58859F3
:100390004D991365450088D988591375F5FC136587
:1003A000050288D9E851619913651500E8D1E85133
:1003B00013658500E8D1A855719913651500A8D576
:1003C000C85D13653500C8DDC85D4D9913658500AE
:1003D000C8DDC85D1375F5FCC8DD13052003A8C191
:1003E000E8C12244B240410182805D7186C696C454
:1003F0009AC29EC022DE2ADC2EDA32D836D63AD411
:100400003ED242D046CE72CC76CA7AC87EC680082A
:100410007D222D6593050500A85913651500A8D9FF
:100420000965930505901145C8C1B24F424FD24EA0
:10043000624EF248025892572257B2564256D2554F
:100440006255725486431643A642B64061617300FA
:1004500020305D7186C696C49AC29EC022DE2ADC18
:100460002EDA32D836D63AD43ED242D046CE72CCEC
:1004700076CA7AC87EC68008BD2A2D659305051008
:10048000A85913651500A8D909659305059011456C
:10049000C8C1B24F424FD24E624EF24802589257F4
:1004A0002257B2564256D25562557254864316436D
:1004B000A642B640616173002030411106C622C4D5
:1004C0002AC22EC000082D6593050520A859136582
:1004D0001500A8D90965930505901145C8C1824545
:1004E00012452244B240410173002030011106CE72
:1004F00022CC001001452324A4FE232AA4FEEF00F1
:100500001002B525552D0127812F032584FEB7152F
:1005100010002328B4FE23A8A5C0B715100023A8F7
:10052000A5D0EF00207873E0107C3705700013052C
:10053000A53E8965938505A0A8C137057000130500
:100540002545E8C1370570001305A54BA8C573F014
:10055000107C73E0107C3965930505C02326B4FE3A
:1005600088456D9988C573F0107CD9367D31593B2B
:100570000326C4FE832504FF73E0107C0846136540
:10058000450008C673F0107C03A505C1136545003E
:1005900023A8A5C0096593050590884D136515002E
:1005A00088CD884D1365250088CD884D136545009D
:1005B00088CD736004306F0040006F00000041116F
:1005C00006C622C400082D6593050500A85D05999F
:1005D00013652500A8DDA85D13650570A8DDA85D7D
:1005E0001375F5F1A8DDA85D13651500A8DD22449B
:1005F000B24041018280411106C622C400082D6527
:1006000093050510A85D059913652500A8DDA85D73
:100610001375F58F13650540A8DDA85D1375F5F119
:1006200013650504A8DDA85D13651500A8DD224447
:10063000B24041018280011106CE22CC0010232A53
:10064000A4FE2328B4FE2326C4FE01456244F240E2
:1006500005618280411106C622C400084165130568
:100660000500232AA4FE6F004000032544FFC16556
:10067000938505006371B5026F004000832544FF38
:10068000014588C16F004000032544FF1105232A5E
:10069000A4FE6FF09FFD2244B2404101828001110F
:1006A00006CE22CC0010371570001305050C232A46
:1006B000A4FE4165130505002328A4FE416513052A
:1006C00005002326A4FE6F004000032504FF8325B8
:1006D000C4FE6378B5026F004000032544FF0305A4
:1006E0000500832504FF2380A500032504FF0505DD
:1006F0002328A4FE032544FF0505232AA4FE6FF04A
:10070000DFFC6244F24005618280011106CE22CCFA
:100710000010371570001305050C232AA4FE51653F
:10072000130505002328A4FE51651305051E232685
:10073000A4FE6F004000032504FF8325C4FE6378F8
:10074000B5026F004000032544FF03050500832523
:1007500004FF2380A500032504FF05052328A4FE2C
:10076000032544FF0505232AA4FE6FF0DFFC624445
:10077000F24005618280011106CE22CC00103715AF
:1007800070001305052A232AA4FE13050000232860
:10079000A4FE130500002326A4FE6F0040000325DD
:1007A00004FF8325C4FE6378B5026F004000032573
:1007B00044FF03050500832504FF2380A5000325CE
:1007C00004FF05052328A4FE032544FF0505232A6D
:1007D000A4FE6FF0DFFC6244F240056182800111EB
:1007E00006CE22CC0010371570001305052A232AE7
:1007F000A4FE0565130505802328A4FE05651305E1
:1008000005802326A4FE6F004000032504FF8325F6
:10081000C4FE6378B5026F004000032544FF030562
:100820000500832504FF2380A500032504FF05059B
:100830002328A4FE032544FF0505232AA4FE6FF008
:10084000DFFC6244F24005618280411106C622C489
:10085000000873E0107C3965930505C01305800618
:10086000A8C173F0107C2244B24041018280411142
:1008700006C622C4000873E0107C3965930505C0E4
:1008800013058002A8C173F0107C2244B2404101DC
:100890008280411106C622C40008453F73E0107CE7
:1008A000B96503A505C61365150023A0A5C673F099
:1008B000107C4D33ED33913D7D3D1537973091FFE1
:1008C000E78040746D372244B2404101828041117B
:1008D00006C622C400086F0040006F0000004111EE
:1008E00006C622C400086F0040006F0000004111DE
:1008F00006C622C400086F0040006F0000004111CE
:1009000006C622C400086F0040006F0000004111BD
:1009100006C622C400086F0040006F0000004111AD
:1009200006C622C400086F0040006F00000041119D
:1009300006C622C400086F0040006F00000041118D
:1009400006C622C400086F0040006F00000041117D
:1009500006C622C400086F0040006F00000041116D
:1009600006C622C400086F0040006F00000041115D
:1009700006C622C400086F0040006F00000041114D
:1009800006C622C400086F0040006F00000041113D
:1009900006C622C400086F0040006F00000041112D
:1009A00006C622C400086F0040006F00000041111D
:1009B00006C622C400086F0040006F00000041110D
:1009C00006C622C400086F0040006F0000004111FD
:1009D00006C622C400086F0040006F0000004111ED
:1009E00006C622C400086F0040006F0000004111DD
:1009F00006C622C400086F0040006F0000004111CD
:100A000006C622C400086F0040006F0000004111BC
:100A100006C622C400086F0040006F0000004111AC
:100A200006C622C400086F0040006F00000041119C
:100A300006C622C400086F0040006F00000041118C
:100A400006C622C400086F0040006F00000041117C
:100A500006C622C400086F0040006F00000041116C
:100A600006C622C400086F0040006F00000041115C
:100A700006C622C400086F0040006F00000041114C
:100A800006C622C400086F0040006F00000041113C
:100A900006C622C400086F0040006F00000041112C
:100AA00006C622C400086F0040006F00000041111C
:100AB00006C622C400086F0040006F00000041110C
:100AC00006C622C400086F0040006F0000004111FC
:100AD00006C622C400086F0040006F0000004111EC
:100AE00006C622C400086F0040006F0000004111DC
:100AF00006C622C400086F0040006F0000004111CC
:100B000006C622C400086F0040006F0000004111BB
:100B100006C622C400086F0040006F0000004111AB
:100B200006C622C400086F0040006F00000041119B
:100B300006C622C400086F0040006F00000041118B
:100B400006C622C400086F0040006F00000041117B
:100B500006C622C400086F0040006F00000041116B
:100B600006C622C400086F0040006F00000041115B
:100B700006C622C4000873E0107CB96513860580A0
:100B8000085A1365150008DA085A1365250008DAB3
:100B900003A5058071991365150023A0A58003A501
:100BA00005804D991365450023A0A58073F0107C46
:100BB0002244B24041018280411106C622C400088D
:100BC00073E0107CB96513860580085A13654500EB
:100BD00008DA085A1365850008DA03A5058013753D
:100BE000F5FC1365050123A0A58003A505801375F9
:100BF000F5F31365050423A0A58073F0107C22444F
:100C0000B24041018280411106C622C4000873E04F
:100C1000107CB96513860580085A1365050108DA4A
:100C2000085A1365050208DA03A505801375F5CF88
:100C30001365051023A0A58003A505807D76130606
:100C4000F63F718D1365054023A0A58073F0107CDD
:100C50002244B24041018280411106C622C40008EC
:100C600073700430096593050590014588C588C9EE
:100C700088CD88D188D588D988DDA8C1A8C5A8C95C
:100C8000A8CDA8D1C8C5C8C9C8CDC8D1C8D5C8D9EC
:100C9000C8DDE8C1E8C5E8C9E8CDE8D12244B240E2
:100CA00041018280011106CE22CC00103715700060
:100CB000130545EF2328A4FE0965130505A0232687
:100CC000A4FE73E0107C0145231BA4FE6F004000CE
:100CD000831564FF1305F006634BB5026F004000F7
:100CE000032504FF930545002328B4FE084183250E
:100CF000C4FE138645002326C4FE88C16F00400051
:100D0000031564FF0505231BA4FE6FF07FFC73F041
:100D1000107C736004306244F240056182804111AE
:100D200006C622C400083128412A352829458D45A8
:100D3000973091FFE780602F8D282244B240410117
:100D40008280411106C622C4000873E0107C396518
:100D5000930505C013058006A8C173F0107C2244DA
:100D6000B24041018280411106C622C4000873E0EE
:100D7000107C3965930505C0C8511375F5EFC8D1CE
:100D8000C8517999C8D1C8510966518DC8D1C85187
:100D90001166518DC8D1C85113650540C8D173F093
:100DA000107C2244B24041018280411106C622C417
:100DB000000873E0107C3966930506C0094588CDAC
:100DC000032506C07199136525002320A6C0884518
:100DD0001365850088C588451365250088C5C84901
:100DE00013651500C8C9C84913652500C8C9C84995
:100DF00013654500C8C9C84913650510C8C9C84965
:100E000013650520C8C9C84913650540C8C9C84548
:100E100013650510C8C5C84513651500C8C5C84584
:100E200013652500C8C5C84513654500C8C5C84534
:100E300013658500C8C5C84513650501C8C5C84503
:100E400013650502C8C5C84513650504C8C5C8496A
:100E50000966518DC8C988451365150088C5884540
:100E60001365050188C588451365054088C5884513
:100E70001365051088C588451365052088C5884514
:100E80001166518D88C588491365051088C9884940
:100E90001365052088C9C845518DC8C5C845216658
:100EA000518DC8C588451365450088C573F0107C11
:100EB0002244B2404101828037457A00834515BF04
:100EC000898985E973E0107C8325058E17D690FF0C
:100ED000130646D34CCE8325458E0CD28325858EB2
:100EE00039662326B6C80325C58E2328A6C873F005
:100EF000107C8280CE087000DE0870003E0B70000F
:100F0000EE087000FE0870000E0970001E097000E7
:100F10002E0970003E0970004E0970005E097000D5
:100F20006E0970003E0B70003E0B70003E0B7000AF
:100F30003E0B70007E0970008E0970009E097000E3
:100F4000AE0970003E0B70003E0B70003E0B70004F
:100F50003E0B7000BE097000BE0970003E0B7000B1
:100F60003E0B70003E0B70003E0B70003E0B70009D
:100F70003E0B7000CE0970003E0B70003E0B7000FF
:100F80003E0B70003E0B70003E0B70003E0B70007D
:100F90003E0B7000DE097000EE0970003E0B700021
:100FA0003E0B70003E0B70003E0B70003E0B70005D
:100FB0003E0B7000FE0970000E0A70001E0A7000E1
:100FC0002E0A70003E0A70004E0A70003E0B700040
:100FD0003E0B70005E0A70003E0B70003E0B70000E
:100FE0003E0B70003E0B70003E0B70003E0B70001D
:100FF0003E0B70006E0A70007E0A70008E0A700050
:101000009E0A7000AE0A7000BE0A70003E0B7000AF
:101010003E0B70003E0B70003E0B7000CE0A70005D
:10102000DE0A7000EE0A7000FE0A70000E0B7000FF
:101030001E0B70003E0B70003E0B70003E0B7000EC
:101040003E0B70003E0B70003E0B70003E0B7000BC
:101050003E0B70002E0B70003E0B70003E0B7000BC
:101060003E0B70003E0B70003E0B70003E0B70009C
:101070003E0B70004E0B70003E0B70003E0B70007C
:101080003E0B70003E0B70003E0B70003E0B70007C
:101090003E0B70005E0B70003E0B70003E0B70004C
:1010A0003E0B70003E0B70003E0B70003E0B70005C
:0410B0003E0B700083
:1010C000411106C622C4000873E0107C37057B007E
:1010D00093050580114523A6A50A73F0107C2244D0
:1010E000B24041018280411106C622C40008231B80
:1010F000A4FE231AB4FE3965130505C048411D81BD
:101100000D8981456301B5026F00400073E0107CDA
:101110003965930505C0C8411375F5E7C8C173F07B
:10112000107C6F0040003965130505C008557D89A6
:10113000835564FF6306B5046F00400073E0107CC4
:10114000035664FF3965930505C088557D8A01996A
:10115000518D88D573F0107C97D06E00E780A0CABF
:101160006F0040003965130505C048410589814578
:101170006316B5006F0040006FF0DFFE6F004000A7
:10118000035544FF8545630BB5006F0040000355D0
:1011900044FF89456316B5026F00400073E0107C80
:1011A000035644FF3965930505C0C8410D8A1E06E4
:1011B0001375F5E7518DC8C173F0107C6F004000C6
:1011C000035544FF8D45631FB5026F00400073E077
:1011D000107C3965930505C02328B4FEC8411375FA
:1011E000F5E713650510C8C1056513051576592087
:1011F000832504FFC84113650518C8C173F0107C2E
:101200006F0040002244B24041018280411106C675
:1012100022C4000873E0107C37057B00930505802D
:1012200003A5850A1365150023A4A50A114523A665
:10123000A50A05651305959D23A0A508130570272C
:1012400023A8A50A1305D04E23ACA50A377526009E
:101250001305153C23A2A50823A4A5080D651305B5
:10126000951323AAA50A73F0107C2244B2404101D1
:101270008280000031112EC8F325007C2EC6F32594
:10128000003001000B002566010073900530B24567
:0A1290007390057CC2455101828075
:02000004007387
:06FFE800B70070008280EA
:10FFF000FFFFFFFFFFFFFFFFFFFFFFFFFFFFFFFF11
:040000050070000087
:00000001FF
