:0200000400708A
:1000000081400141814101428142014381430144D8
:1000100081440145814501468146014781470148A8
:10002000814801498149014A814A014B814B014C78
:10003000814C014D814D014E814E014F814FF9623E
:1000400073A002308542FE0263C3020001A0970242
:1000500000009382220473905230970191FF9381A4
:10006000617A170290FF1302D27D137202FC73258E
:1000700040F185456370B5001316150132921701E2
:1000800090FF130121786111EF006075EF002048A7
:100090006D7106C20AC40EC612C816CA1ACC1ECE8C
:1000A00022D026D22AD42ED632D836DA3ADC3EDE18
:1000B000C2C0C6C2CAC4CEC6D2C8D6CADACCDECE88
:1000C000E2D0E6D2EAD4EED6F2D8F6DAFADCFEDEF8
:1000D00073252034F32510340A86EF00804A73100C
:1000E000153489629382028073A0023092402241CB
:1000F000B2414242D2426243F243025492542255E8
:10010000B2554256D2566257F2570648964826498B
:10011000B649464AD64A664BF64B065C965C265D67
:10012000B65D465ED65E665FF65F51617300203055
:10013000197186DEA2DC000173E0107C37157000B7
:100140002322A4F8832545A6EC492322B4FE832567
:1001500044FE93E585002322B4FE832544FE032656
:1001600045A66CCA832545A6AC4D2324B4FE832541
:1001700084FE93E585002324B4FE832584FE0326B4
:1001800045A62CCEB715700003A685A6814523246D
:10019000B4F84CCA832645A67D5690CE832645A644
:1001A000D0DE832645A6F0C2256613060620232648
:1001B000C4F84CC24CCA4CD24CDA6CC26CCA6CD279
:1001C0006CDA2322B608232AB6082322B60A232A89
:1001D000B60A2322B60C232AB60C2322B60E232AF3
:1001E000B60E2322B610232AB6102322B612232AD3
:1001F000B6122322B614232AB6142322B616232AB3
:10020000B6162322B618232AB6182322B61A232A92
:10021000B61A2322B61C232AB61C2322B61E232A72
:10022000B61E832545A68C55232CB4FA832584FB62
:100230000566D18D232CB4FA832584FB032645A6BD
:100240000CD6032545A608592320A4FC6F004000C6
:1002500037157000032545A608592320A4FC6F001C
:100260004000032504FC118105898145E302B5FEA8
:100270006F0040000145232EA4FA0325C4FBB705F7
:1002800001FFFD156D8DB70502004D8D232EA4FADB
:100290000325C4FB619913654500232EA4FA0325A9
:1002A000C4FB137575F813658506232EA4FA832500
:1002B000C4FB37157000032645A64CD6832545A6FA
:1002C0008C55232CB4FA832584FB7D767D16F18D25
:1002D000232CB4FA832584FB032645A60CD60325DC
:1002E00045A608592320A4FC6F0040003715700074
:1002F000032545A608592320A4FC6F0040000325D0
:1003000004FC118105898145E312B5FE6F004000B0
:1003100037157000032545A681450CC137167000BE
:10032000832686A63705040088CA032686A608C247
:10033000256513060520484A41991365250048CADA
:10034000484241991365250048C2A56613850600F9
:1003500050411366160050C15041759A50C103A612
:1003600006001366160023A0C60003A60600136647
:10037000260023A0C600084D0589631DB5006F0047
:100380004000256593050500884D1365150088CD4F
:100390006F00400073F0107C6654F6500961828053
:1003A000411106C622C400080145231BA4FE231ADE
:1003B000A4FE6F004000256513050500084D81452A
:1003C0006316B5006F0040006FF0FFFE2565130552
:1003D00005200C45E181231BB4FE084541811375BE
:1003E000F50F231AA4FE031544FF9315850003158A
:1003F00064FF4D8D231BA4FE256593050500884DE4
:100400001365150088CD035564FF2244B2404101B5
:100410008280411106C622C400086F004000256595
:1004200013050500084D058981456316B5006F0069
:1004300040006FF0DFFE416583160500A5659385DA
:100440000520904DE206370700017D17798E558E05
:1004500090CD0315050022053706FF00698E884DF3
:10046000B70601FFFD16758D518D88CD2565930565
:10047000050088451365250088C52244B240410126
:1004800082805D714AC27329107C73F0107C86C62D
:1004900096C49AC29EC022DE2ADC2EDA32D836D624
:1004A0003AD43ED242D046CE72CC76CA7AC87EC604
:1004B0008008C16503A54500050523A2A500CD352B
:1004C000C1652390A500B1372565930505007D55CD
:1004D000C8DD096593050590C84113650510C8C1BD
:1004E000B24F424FD24E624EF248025892572257B4
:1004F000B2564256D2556255725486431643A642AE
:10050000B6407310197C12496161730020304111AB
:1005100006C622C400080145232AA4FE85260939FF
:10052000ED2C73E0107C256593050500A845136547
:100530001500A8C5E8457999E8C5A84113651500D7
:10054000A8C137057000130525488965938505A066
:1005500023A8A51073F0107C096593050590A845A4
:1005600013650501A8C5B715100003A505C11365DE
:10057000051023A8A5C0736004306F0040006F0011
:100580000000011106CE22CC0010232AA4FE23284D
:10059000B4FE2326C4FE01456244F2400561828018
:1005A000411106C622C40008416513050500232A2F
:1005B000A4FE6F004000032544FFC16593858500BC
:1005C0006371B5026F004000832544FF014588C177
:1005D0006F004000032544FF1105232AA4FE6FF09D
:1005E0009FFD2244B24041018280011106CE22CCFF
:1005F000001037157000130505A7232AA4FE4165D6
:10060000130505002328A4FE4165130505002326D4
:10061000A4FE6F004000032504FF8325C4FE637819
:10062000B5026F004000032544FF03050500832544
:1006300004FF2380A500032504FF05052328A4FE4D
:10064000032544FF0505232AA4FE6FF0DFFC624466
:10065000F24005618280011106CE22CC00103715D0
:100660007000130505A7232AA4FE51651305050094
:100670002328A4FE51651305051E2326A4FE6F0042
:100680004000032504FF8325C4FE6378B5026F0094
:100690004000032544FF03050500832504FF238054
:1006A000A500032504FF05052328A4FE032544FF18
:1006B0000505232AA4FE6FF0DFFC6244F2400561C9
:1006C0008280011106CE22CC001037157000130570
:1006D00005C5232AA4FE130500002328A4FE130544
:1006E00000002326A4FE6F004000032504FF83259D
:1006F000C4FE6378B5026F004000032544FF030584
:100700000500832504FF2380A500032504FF0505BC
:100710002328A4FE032544FF0505232AA4FE6FF029
:10072000DFFC6244F24005618280011106CE22CCDA
:10073000001037157000130505C5232AA4FE0565B2
:10074000130505802328A4FE0565130505802326CF
:10075000A4FE6F004000032504FF8325C4FE6378D8
:10076000B5026F004000032544FF03050500832503
:1007700004FF2380A500032504FF05052328A4FE0C
:10078000032544FF0505232AA4FE6FF0DFFC624425
:10079000F24005618280411106C622C4000873E060
:1007A000107C3965930505C013058006A8C173F058
:1007B000107C2244B24041018280411106C622C40D
:1007C000000873E0107C3965930505C013058002AD
:1007D000A8C173F0107C2244B240410182804111D3
:1007E00006C622C40008453F73E0107CB96503A526
:1007F00005C61365150023A0A5C673F0107C4D3304
:10080000ED33913D7D3D1537973091FFE780807F37
:100810006D372244B24041018280411106C622C494
:10082000000873E0107C3965930505808859370608
:1008300000C07D16718D88D98859370600807D16D5
:10084000718D88D9C84D37060030518DC8CDC8414B
:10085000370600D07D16718D37060010518DC8C146
:10086000C841370600409306F6FF758D518DC8C10B
:1008700073F0107C2244B24041018280411106C6CF
:1008800022C4000831284D22352829458D4597304E
:1008900091FFE780807951202244B240410182805B
:1008A000411106C622C4000873E0107C3965930527
:1008B00005C013058006A8C173F0107C2244B24025
:1008C00041018280411106C622C4000873E0107CF9
:1008D0003965930505C0C85171767D16718DC8D1F3
:1008E000C8510966518DC8D1C8517599C8D1C85130
:1008F00013651500C8D1C85113654500C8D1C8514A
:1009000013650540C8D1C85113650510C8D173F0EF
:10091000107C2244B24041018280411106C622C4AB
:10092000000873E0107C3966930506C0094588CD40
:10093000032506C07199136525002320A6C08845AC
:100940001365850088C588451365250088C5C84995
:1009500013651500C8C9C84913652500C8C9C84929
:1009600013654500C8C9C84913650510C8C9C849F9
:1009700013650520C8C9C84913650540C8C9C845DD
:1009800013650510C8C5C84513651500C8C5C84519
:1009900013652500C8C5C84513654500C8C5C845C9
:1009A00013658500C8C5C84513650501C8C5C84598
:1009B00013650502C8C5C84513650504C8C5C849FF
:1009C0000966518DC8C988451365150088C58845D5
:1009D0001365050188C588451365054088C58845A8
:1009E0001365051088C588451365052088C58845A9
:1009F0001166518D88C588491365051088C98849D5
:100A00001365052088C9C845518DC8C5C8452166EC
:100A1000518DC8C588451365450088C573F0107CA5
:100A20002244B2404101828037457A00834515BF98
:100A3000898985E973E0107C8325058E17D690FFA0
:100A40001306461C4CCE8325458E0CD28325858EFD
:100A500039662326B6C80325C58E2328A6C873F099
:0C0A6000107C82800090000000920000DA
:100A7000411106C622C4000873E0107C37057B00D4
:100A800093050580114523A6A50A73F0107C224426
:100A9000B24041018280411106C622C40008231BD6
:100AA000A4FE231AB4FE3965130505C048411D8113
:100AB0000D8981456301B5026F00400073E0107C31
:100AC0003965930505C0C8411375F5E7C8C173F0D2
:100AD000107C6F0040003965130505C008557D89FD
:100AE000835564FF6306B5046F00400073E0107C1B
:100AF000035664FF3965930505C088557D8A0199C1
:100B0000518D88D573F0107C97D06E00E78080807F
:100B10006F0040003965130505C0484105898145CE
:100B20006316B5006F0040006FF0DFFE6F004000FD
:100B3000035544FF8545630BB5006F004000035526
:100B400044FF89456316B5026F00400073E0107CD6
:100B5000035644FF3965930505C0C8410D8A1E063A
:100B60001375F5E7518DC8C173F0107C6F0040001C
:100B7000035544FF8D45631FB5026F00400073E0CD
:100B8000107C3965930505C02328B4FEC841137550
:100B9000F5E713650510C8C10565130515765920DD
:100BA000832504FFC84113650518C8C173F0107C84
:100BB0006F0040002244B24041018280411106C6CC
:100BC00022C4000873E0107C37057B009305058084
:100BD00003A5850A1365150023A4A50A114523A6BC
:100BE000A50A05651305959D23A0A5081305702783
:100BF00023A8A50A1305D04E23ACA50A37752600F5
:100C00001305153C23A2A50823A4A5080D6513050B
:100C1000951323AAA50A73F0107C2244B240410127
:100C20008280000031112EC8F325007C2EC6F325EA
:100C3000003001000B002566010073900530B245BD
:0A0C40007390057CC24551018280CB
:02000004007387
:06FFE800B70070008280EA
:10FFF000FFFFFFFFFFFFFFFFFFFFFFFFFFFFFFFF11
:040000050070000087
:00000001FF
