:0200000400708A
:1000000081400141814101428142014381430144D8
:1000100081440145814501468146014781470148A8
:10002000814801498149014A814A014B814B014C78
:10003000814C014D814D014E814E014F814FF9623E
:1000400073A002308542FE0263C3020001A0970242
:1000500000009382220473905230970191FF9381A4
:10006000617A170290FF1302D27D137202FC73258E
:1000700040F185456370B5001316150132921701E2
:1000800090FF130121786111EF00205CEF008024C4
:100090006D7106C20AC40EC612C816CA1ACC1ECE8C
:1000A00022D026D22AD42ED632D836DA3ADC3EDE18
:1000B000C2C0C6C2CAC4CEC6D2C8D6CADACCDECE88
:1000C000E2D0E6D2EAD4EED6F2D8F6DAFADCFEDEF8
:1000D00073252034F32510340A86EF004031731065
:1000E000153489629382028073A0023092402241CB
:1000F000B2414242D2426243F243025492542255E8
:10010000B2554256D2566257F2570648964826498B
:10011000B649464AD64A664BF64B065C965C265D67
:10012000B65D465ED65E665FF65F51617300203055
:10013000411106C622C4000873E0107C396593059E
:10014000058088593706F8FF7D16718D88D9C84D0E
:100150001375F5F313650504C8CDC8411365050C87
:10016000C8C173F0107C2244B24041018280411129
:1001700006C622C4000873E0107C356593050500AF
:100180000395C50113650520239EA5003735310170
:10019000130505D088C53795980013050568C8C5AF
:1001A0001305F00F88D50395050213650508239004
:1001B000A5020395C50113650501239EA50073F0F3
:1001C000107C2244B24041018280011106CE22CC33
:1001D0002ACA2EC832C60010C16503950500050560
:1001E0002390A5003565130505000845B735310195
:1001F000938505D06360B5026F00400035659305B7
:10020000050088453766F8FF130606EE329588C963
:100210006F0080033565130505000C453795980080
:10022000130505686360B5026F00400035659305EE
:100230000500884537A6070013060612329588C9BF
:100240006F0040006F004000356593050500039581
:100250008502136505082394A5020395850213659D
:1002600015002394A5020395C50113658500239EFF
:10027000A5000965930505902145C8C13246C245D0
:1002800052456244F240056173002030411106C6B8
:1002900022C4000873E0107C396593050580884509
:1002A000370600FD7D16718D88C588550566518D10
:1002B00088D58845B70640FFFD16758D88C58855D9
:1002C00013060680518D88D573F0107C2244B2400D
:1002D00041018280011106CE22CC00100145232667
:1002E000A4FE232AA4FE6D2D55379935493595284E
:1002F0000325C4FE73700430B71510002328B4FE24
:1003000023A8A5C0B715100023A8A5D0292D8325A3
:1003100004FF73E0107C370570001305A51C096607
:10032000130606A028D2370570001305253A08CA1F
:1003300073F0107C03A505C11365950023A8A5C023
:1003400009659305059088451365050188C58851A1
:100350001365150088D1736004306F0040006F0092
:100360000000411106C622C4000873E0107C396504
:1003700093058586C841019913651501C8C10965B2
:1003800093058596C8414D9913654500C8C1C8417C
:1003900013651500C8C173F0107C2244B2404101BE
:1003A0008280011106CE22CC2ACA2EC832C6001085
:1003B000C1650395250005052391A50039659305C1
:1003C000858388510566518D88D188511306068032
:1003D000518D88D10965930505900545C8C1324600
:1003E000C24552456244F24005617300203001115C
:1003F00006CE22CC0010232AA4FE2328B4FE2326F6
:10040000C4FE01456244F24005618280411106C686
:1004100022C40008416513050500232AA4FE6F00CD
:100420004000032544FFC165938585006371B502D3
:100430006F004000832544FF014588C16F004000E4
:10044000032544FF1105232AA4FE6FF09FFD2244DB
:10045000B24041018280011106CE22CC0010371536
:100460007000130505D4232AA4FE41651305050079
:100470002328A4FE4165130505002326A4FE6F0072
:100480004000032504FF8325C4FE6378B5026F0096
:100490004000032544FF03050500832504FF238056
:1004A000A500032504FF05052328A4FE032544FF1A
:1004B0000505232AA4FE6FF0DFFC6244F2400561CB
:1004C0008280011106CE22CC001037157000130572
:1004D00005D4232AA4FE5165130505002328A4FE94
:1004E00051651305051E2326A4FE6F004000032559
:1004F00004FF8325C4FE6378B5026F004000032526
:1005000044FF03050500832504FF2380A500032580
:1005100004FF05052328A4FE032544FF0505232A1F
:10052000A4FE6FF0DFFC6244F2400561828001119D
:1005300006CE22CC001037157000130505F2232AD1
:10054000A4FE130500002328A4FE130500002326A3
:10055000A4FE6F004000032504FF8325C4FE6378DA
:10056000B5026F004000032544FF03050500832505
:1005700004FF2380A500032504FF05052328A4FE0E
:10058000032544FF0505232AA4FE6FF0DFFC624427
:10059000F24005618280011106CE22CC0010371591
:1005A0007000130505F2232AA4FE056513050580D6
:1005B0002328A4FE0565130505802326A4FE6F00ED
:1005C0004000032504FF8325C4FE6378B5026F0055
:1005D0004000032544FF03050500832504FF238015
:1005E000A500032504FF05052328A4FE032544FFD9
:1005F0000505232AA4FE6FF0DFFC6244F24005618A
:100600008280411106C622C4000873E0107C39655F
:10061000930505C013058006A8C173F0107C224421
:10062000B24041018280411106C622C4000873E035
:10063000107C3965930505C013058002A8C173F0CD
:10064000107C2244B24041018280411106C622C47E
:100650000008453F73E0107CB96503A505C6136526
:10066000150023A0A5C673F0107C4D33ED33913DEA
:100670007D3D1537974091FFE780C0986D37224444
:10068000B24041018280411106C622C400086F00B9
:1006900040006F000000411106C622C400086F0030
:1006A00040006F000000411106C622C400086F0020
:1006B00040006F000000411106C622C400086F0010
:1006C00040006F000000411106C622C400086F0000
:1006D00040006F000000411106C622C400086F00F0
:1006E00040006F000000411106C622C400086F00E0
:1006F00040006F000000411106C622C400086F00D0
:1007000040006F000000411106C622C400086F00BF
:1007100040006F000000411106C622C400086F00AF
:1007200040006F000000411106C622C400086F009F
:1007300040006F000000411106C622C400086F008F
:1007400040006F000000411106C622C400086F007F
:1007500040006F000000411106C622C400086F006F
:1007600040006F000000411106C622C400086F005F
:1007700040006F000000411106C622C400086F004F
:1007800040006F000000411106C622C400086F003F
:1007900040006F000000411106C622C400086F002F
:1007A00040006F000000411106C622C400086F001F
:1007B00040006F000000411106C622C400086F000F
:1007C00040006F000000411106C622C400086F00FF
:1007D00040006F000000411106C622C400086F00EF
:1007E00040006F000000411106C622C400086F00DF
:1007F00040006F000000411106C622C400086F00CF
:1008000040006F000000411106C622C400086F00BE
:1008100040006F000000411106C622C400086F00AE
:1008200040006F000000411106C622C400086F009E
:1008300040006F000000411106C622C400086F008E
:1008400040006F000000411106C622C400086F007E
:1008500040006F000000411106C622C400086F006E
:1008600040006F000000411106C622C400086F005E
:1008700040006F000000411106C622C400086F004E
:1008800040006F000000411106C622C400086F003E
:1008900040006F000000411106C622C400086F002E
:1008A00040006F000000411106C622C400086F001E
:1008B00040006F000000411106C622C400086F000E
:1008C00040006F000000411106C622C400086F00FE
:1008D00040006F000000411106C622C400086F00EE
:1008E00040006F000000411106C622C400086F00DE
:1008F00040006F000000411106C622C400086F00CE
:1009000040006F000000411106C622C400086F00BD
:1009100040006F000000411106C622C400086F00AD
:1009200040006F000000011106CE22CC00103715E8
:100930007000130585B72328A4FE0965130505A0DB
:100940002326A4FE73E0107C0145231BA4FE6F0048
:100950004000831564FF1305F006634BB5026F007A
:100960004000032504FF930545002328B4FE0841F9
:100970008325C4FE138645002326C4FE88C16F006C
:100980004000031564FF0505231BA4FE6FF07FFCE8
:1009900073F0107C736004306244F2400561828021
:1009A000411106C622C400083128412A35282945AC
:1009B0008D45973091FFE78040678D282244B240F3
:1009C00041018280411106C622C4000873E0107CF8
:1009D0003965930505C013058006A8C173F0107C26
:1009E0002244B24041018280411106C622C400085F
:1009F00073E0107C3965930505C0C8511375F5EF98
:100A0000C8D1C8517999C8D1C8510966518DC8D18A
:100A1000C8511166518DC8D1C85113650540C8D160
:100A200073F0107C2244B24041018280411106C61D
:100A300022C4000873E0107C3966930506C009459E
:100A400088CD032506C07199136525002320A6C013
:100A500088451365850088C588451365250088C5C8
:100A6000C84913651500C8C9C84913652500C8C918
:100A7000C84913654500C8C9C84913650510C8C9E8
:100A8000C84913650520C8C9C84913650540C8C9C8
:100A9000C84513650510C8C5C84513651500C8C508
:100AA000C84513652500C8C5C84513654500C8C5B8
:100AB000C84513658500C8C5C84513650501C8C587
:100AC000C84513650502C8C5C84513650504C8C5F2
:100AD000C8490966518DC8C988451365150088C580
:100AE00088451365050188C588451365054088C597
:100AF00088451365051088C588451365052088C598
:100B000088451166518D88C588491365051088C9C7
:100B100088491365052088C9C845518DC8C5C84591
:100B20002166518DC8C588451365450088C573F099
:100B3000107C2244B2404101828037457A008345CF
:100B400015BF898985E973E0107C8325058E17D64A
:100B500090FF1306260B4CCE8325458E0CD28325A1
:100B6000858E39662326B6C80325C58E2328A6C8D8
:100B700073F0107C8280000086067000960670007C
:100B8000F6087000A6067000B6067000C606700073
:100B9000D6067000E6067000F606700006077000C4
:100BA0001607700026077000F6087000F60870003F
:100BB000F6087000F60870003607700046077000EF
:100BC0005607700066077000F6087000F60870009F
:100BD000F6087000F608700076077000760770005F
:100BE000F6087000F6087000F6087000F60870004D
:100BF000F6087000F608700086077000F6087000AE
:100C0000F6087000F6087000F6087000F60870002C
:100C1000F6087000F608700096077000A6077000CE
:100C2000F6087000F6087000F6087000F60870000C
:100C3000F6087000F6087000B6077000C60770006E
:100C4000D6077000E6077000F6077000060870000F
:100C5000F6087000F608700016087000F6087000BC
:100C6000F6087000F6087000F6087000F6087000CC
:100C7000F6087000F608700026087000360870004C
:100C8000460870005608700066087000760870000C
:100C9000F6087000F6087000F6087000F60870009C
:100CA0008608700096087000A6087000B6087000EC
:100CB000C6087000D6087000F6087000F6087000CC
:100CC000F6087000F6087000F6087000F60870006C
:100CD000F6087000F6087000E6087000F60870006C
:100CE000F6087000F6087000F6087000F60870004C
:100CF000F6087000F608700006097000F60870002B
:100D0000F6087000F6087000F6087000F60870002B
:100D1000F6087000F608700016097000F6087000FA
:100D2000F6087000F6087000F6087000F60870000B
:080D3000F6087000F6087000DF
:100D4000411106C622C4000873E0107C37057B0001
:100D500093050580114523A6A50A73F0107C224453
:100D6000B24041018280411106C622C40008231B03
:100D7000A4FE231AB4FE3965130505C048411D8140
:100D80000D8981456301B5026F00400073E0107C5E
:100D90003965930505C0C8411375F5E7C8C173F0FF
:100DA000107C6F0040003965130505C008557D892A
:100DB000835564FF6306B5046F00400073E0107C48
:100DC000035664FF3965930505C088557D8A0199EE
:100DD000518D88D573F0107C97D06E00E780C0925B
:100DE0006F0040003965130505C0484105898145FC
:100DF0006316B5006F0040006FF0DFFE6F0040002B
:100E0000035544FF8545630BB5006F004000035553
:100E100044FF89456316B5026F00400073E0107C03
:100E2000035644FF3965930505C0C8410D8A1E0667
:100E30001375F5E7518DC8C173F0107C6F00400049
:100E4000035544FF8D45631FB5026F00400073E0FA
:100E5000107C3965930505C02328B4FEC84113757D
:100E6000F5E713650510C8C105651305157659200A
:100E7000832504FFC84113650518C8C173F0107CB1
:100E80006F0040002244B24041018280411106C6F9
:100E900022C4000873E0107C37057B0093050580B1
:100EA00003A5850A1365150023A4A50A114523A6E9
:100EB000A50A05651305959D23A0A50813057027B0
:100EC00023A8A50A1305D04E23ACA50A3775260022
:100ED0001305153C23A2A50823A4A5080D65130539
:100EE000951323AAA50A73F0107C2244B240410155
:100EF0008280000031112EC8F325007C2EC6F32518
:100F0000003001000B002566010073900530B245EA
:0A0F10007390057CC24551018280F8
:02000004007387
:06FFE800B70070008280EA
:10FFF000FFFFFFFFFFFFFFFFFFFFFFFFFFFFFFFF11
:040000050070000087
:00000001FF
