:02000004007C7E
:1000000081400141814101428142014381430144D8
:1000100081440145814501468146014781470148A8
:10002000814801498149014A814A014B814B014C78
:10003000814C014D814D014E814E014F814FF9623E
:1000400073A002308542FE0263C3020001A0970242
:1000500000009382220473905230970185FF9381B0
:10006000617A170284FF1302D27D137202FC73259A
:1000700040F185456370B5001316150132921701E2
:1000800084FF130121786111EF007076EF00E06EBC
:100090006D7106C20AC40EC612C816CA1ACC1ECE8C
:1000A00022D026D22AD42ED632D836DA3ADC3EDE18
:1000B000C2C0C6C2CAC4CEC6D2C8D6CADACCDECE88
:1000C000E2D0E6D2EAD4EED6F2D8F6DAFADCFEDEF8
:1000D00073252034F32510340A86EF00F04B73109B
:1000E000153489629382028073A0023092402241CB
:1000F000B2414242D2426243F243025492542255E8
:10010000B2554256D2566257F2570648964826498B
:10011000B649464AD64A664BF64B065C965C265D67
:10012000B65D465ED65E665FF65F51617300203055
:10018000011106CE2ECC32CA36C83AC63EC442C28F
:1001900089E5370500807D1575A00B860560B3964F
:1001A000C50093D5560193F5C57F17970300130734
:1001B0006787BA9503A745E093052003918D8B17B8
:1001C000D7FE37080040B307F8400B17F7FA8B1635
:1001D000D7FEB306D8408B17D7FA7D47B396A70250
:1001E000636CB7003385A7023355B50039163396D3
:1001F000C60032952E8729A04945118D33D5A640DA
:1002000033D6E64093051500B3B6A5007D55369666
:100210006384A5006345C000639FA50009EE370510
:1002200000807D151248A2473247C2465246E24539
:10023000F24005618280FD56370500806344D60098
:100240000BA5C5821248A2473247C2465246E24534
:10025000F24005618280011106CE2ECC32CA36C82A
:100260003AC63EC442C28B05A04237C67C51130633
:10027000761B3393C5028B93C5C2B74624039315EF
:10028000130093F5C57F178703001307A7D7BA9507
:10029000984183A505209386B6F633B6D302B306FC
:1002A000E040B317B60213D81640C187F57693869F
:1002B0006655B386D702C296B316D602B695B31565
:1002C000B602BA9563540500B305B04013D5554145
:1002D0001248A2473247C2465246E245F240056103
:1002E00082800B15B5D28280411106C622C4000857
:1002F0002D669305060003A5450A1365150023A284
:10030000A50A0565130585BBC8C90145C8C588C9C7
:100310009306C05DD4D188D5032506007199136575
:1003200025002320A600032506006D992320A600A2
:10033000032506001375F5C72320A6000325060034
:10034000F9769386F63F758D2320A600C84D3D991A
:10035000C8CDC84D1375F5FBC8CDC84D7199C8CD32
:10036000C84D4D99C8CDC8551375F5FC13650502E8
:10037000C8D5C8551375F5F313650504C8D5885954
:100380007D761306F63F718D1365054088D988592F
:100390001375F5CF1365052088D9E8516199136568
:1003A0001500E8D1E85113658500E8D1A855719989
:1003B00013651500A8D5C85D1166518DC8DDC85DEF
:1003C00013653500C8DDC85D4D9913658500C8DD2E
:1003D000C85D1375F5FCC8DD1305C012A8C1E8C1DE
:1003E0002244B24041018280411106C622C4000865
:1003F0002D669305064003A5450A1365150023A243
:10040000A50A0565130505E1C8C91305803EC8C5E1
:10041000014588C99306C05DD4D188D5032506401F
:100420007199136525002320A640032506406D9988
:100430002320A640032506401375F5C72320A640B8
:1004400003250640F9769386F63F758D2320A64056
:10045000C84D3D99C8CDC84D1375F5FBC8CDC84DE5
:100460007199C8CDC84D4D99C8CDC8551375F5FCC7
:1004700013650502C8D5C8551375F5F31365050452
:10048000C8D588597D761306F63F718D13650540F2
:1004900088D988591375F5CF1365052088D9C85DAB
:1004A0001166518DC8DDC85D13653500C8DDC85DB6
:1004B0004D9913658500C8DDC85D1375F5FCC8DD71
:1004C0001305C012A8C1E8C12244B2404101828094
:1004D000411106C622C4000831669305068003A5B3
:1004E000450A1365150023A2A50A0565130585BBFA
:1004F000C8C91305007DC8C5014588C99306C05DFC
:10050000D4D188D503250680719913652500232051
:10051000A680032506806D992320A68003250680EA
:100520001375F5C72320A68003250680F9769386E8
:10053000F63F758D2320A680C84D3D99C8CDC84D86
:100540001375F5FBC8CDC84D7199C8CDC84D4D99EF
:10055000C8CDC8551375F5FC13650502C8D5C85537
:100560001375F5F313650504C8D588597D76130610
:10057000F63F718D1365054088D988591375F5CFFD
:100580001365052088D9C85D1166518DC8DDC85D29
:1005900013653500C8DDC85D4D9913658500C8DD5C
:1005A000C85D1375F5FCC8DD1305C012A8C1E8C10C
:1005B0002244B240410182805D7186C696C49AC2CF
:1005C0009EC022DE2ADC2EDA32D836D63AD43ED28B
:1005D00042D046CE72CC76CA7AC87EC680084D28F4
:1005E0002D6593050500A85913651500A8D909655F
:1005F000930505901145C8C1B24F424FD24E624E8D
:10060000F248025892572257B2564256D255625576
:10061000725486431643A642B6406161730020308F
:10062000411106C622C400084165232AA4FE832581
:10063000050085052320B500032505009305800CE2
:100640002328B4FE353E832504FF2A86032544FF74
:10065000C16623A0C60803250500631AB5006F0014
:100660004000C165014523A0A5006F0040001305AF
:10067000806423A2A18841650325050883A54188DC
:100680008605853123A4A1882244B240410182809D
:10069000011106CE22CC001061372326A4FE03A54B
:1006A00081882322B4FE83A54188AA9523A6B18818
:1006B00003A5C1884D36AA85032544FE2328C4FE20
:1006C00023A8B18803A541888D452320B4FE4D3C65
:1006D0002A860325C4FE2324B4FE23AAC18803A5C9
:1006E000818883A54189AA9523ACB18803A5818916
:1006F0009D36832504FE2A86032544FE232AD4FE44
:1007000023AEC18803A54188A53C832584FE2A86A3
:100710000325C4FE23AAC18803A5818883A5418936
:10072000B305B54023A0B18A03A5018A2D3603265F
:1007300004FF832544FFAA8623A2D18A03A6018948
:1007400006061306C65DAD6693860600D0D283A565
:10075000C18986059385C55D2D66130606404CD27A
:1007600003A5418A06051305C55DB165938505801E
:10077000C8D16244F24005618280011106CE22CCCC
:10078000001001452324A4FE232AA4FE4D2911268E
:10079000B126612EE526032584FEB7151000232817
:1007A000B4FE23A8A5C0B715100023A8A5D02929F9
:1007B00073E0107C37057C001305855B89659385A4
:1007C00005A0A8C173F0107C73E0107C3965930517
:1007D00005C02326B4FE88456D9988C573F0107C4A
:1007E00021361931F5310326C4FE832504FF73E059
:1007F000107C08461365450008C673F0107C11454F
:1008000023A8A5C0096593050590884D13651500BB
:1008100088CD736004306F0040002D65130505001E
:10082000485123A4A18A2D6513050540485123A6EC
:10083000A18A316513050580485123A8A18A6FF06C
:10084000DFFD411106C622C400086F0040006F00A2
:100850000000411106C622C400086F0040006F006E
:100860000000411106C622C400086F0040006F005E
:100870000000411106C622C400086F0040006F004E
:100880000000411106C622C400086F0040006F003E
:100890000000411106C622C400086F0040006F002E
:1008A0000000411106C622C400086F0040006F001E
:1008B0000000411106C622C400086F0040006F000E
:1008C0000000411106C622C400086F0040006F00FE
:1008D0000000411106C622C400086F0040006F00EE
:1008E0000000411106C622C400086F0040006F00DE
:1008F0000000411106C622C400086F0040006F00CE
:100900000000411106C622C400086F0040006F00BD
:100910000000411106C622C400086F0040006F00AD
:100920000000411106C622C400086F0040006F009D
:100930000000411106C622C400086F0040006F008D
:100940000000411106C622C400086F0040006F007D
:100950000000411106C622C400086F0040006F006D
:100960000000411106C622C400086F0040006F005D
:100970000000411106C622C400086F0040006F004D
:100980000000411106C622C400086F0040006F003D
:100990000000411106C622C400086F0040006F002D
:1009A0000000411106C622C400086F0040006F001D
:1009B0000000411106C622C400086F0040006F000D
:1009C0000000411106C622C400086F0040006F00FD
:1009D0000000411106C622C400086F0040006F00ED
:1009E0000000411106C622C400086F0040006F00DD
:1009F0000000411106C622C400086F0040006F00CD
:100A00000000411106C622C400086F0040006F00BC
:100A10000000411106C622C400086F0040006F00AC
:100A20000000411106C622C400086F0040006F009C
:100A30000000411106C622C400086F0040006F008C
:100A40000000411106C622C400086F0040006F007C
:100A50000000411106C622C400086F0040006F006C
:100A60000000411106C622C400086F0040006F005C
:100A70000000411106C622C400086F0040006F004C
:100A80000000411106C622C400086F0040006F003C
:100A90000000411106C622C4000873E0107CB9654D
:100AA00013860580085A1365150008DA085A13657D
:100AB000250008DA03A5058071991365150023A0A8
:100AC000A58003A505804D991365450023A0A58049
:100AD00073F0107C2244B24041018280411106C66D
:100AE00022C4000873E0107CB96513860580085A9B
:100AF0001365450008DA085A1365850008DA03A56E
:100B000005801375F5FC1365050123A0A58003A5D9
:100B100005801375F5F31365050423A0A58073F014
:100B2000107C2244B24041018280411106C622C499
:100B3000000873E0107CB96513860580085A1365B8
:100B4000050108DA085A1365050208DA03A50580CD
:100B50001375F5CF1365051023A0A58003A50580A7
:100B60007D761306F63F718D1365054023A0A580A1
:100B700073F0107C2244B24041018280411106C6CC
:100B800022C400087370043009659305059001457F
:100B900088C588C988CD88D188D588D988DDA8C17D
:100BA000A8C5A8C9A8CDA8D1C8C5C8C9C8CDC8D12D
:100BB000C8D5C8D9C8DDE8C1E8C5E8C9E8CDE8D1DD
:100BC0002244B24041018280011106CE22CC0010A5
:100BD00037157C00130585092328A4FE0965130534
:100BE00005A02326A4FE73E0107C0145231BA4FE70
:100BF0006F004000831564FF1305F006634BB502D8
:100C00006F004000032504FF930545002328B4FE30
:100C100008418325C4FE138645002326C4FE88C1EF
:100C20006F004000031564FF0505231BA4FE6FF051
:100C30007FFC73F0107C6244F240056182804111B8
:100C400006C622C400083128CD26352829458D4501
:100C5000971085FFE780603D8D282244B240410116
:100C60008280411106C622C4000873E0107C3965F9
:100C7000930505C013058006A8C173F0107C2244BB
:100C8000B24041018280411106C622C4000873E0CF
:100C9000107C3965930505C0C8511375F5EFC8D1AF
:100CA000C8517999C8D1C8510966518DC8D1C85168
:100CB0001166518DC8D1C85113650540C8D173F074
:100CC000107C2244B24041018280411106C622C4F8
:100CD000000873E0107C396593050580C8411365F1
:100CE0000503C8C13966930506C0094588CD0325AB
:100CF00006C07199136525002320A6C08845136599
:100D0000850088C5C84913651500C8C9C849136559
:100D10002500C8C9C84913650510C8C9C849136565
:100D20000520C8C9C84913650540C8C9C845136529
:100D30000510C8C5C84513651500C8C5C845136565
:100D40002500C8C5C84513654500C8C5C845136515
:100D50008500C8C5C8490966518DC8C9884513654D
:100D6000150088C588451365050188C58845136544
:100D7000054088C588451365051088C5C8451166B6
:100D8000518DC8C588451365450088C573F0107C32
:100D90002244B24041018280011106CE22CC0010D3
:100DA000232AA4FE2328B4FE2326C4FE0145624460
:100DB000F24005618280411106C622C400081385F5
:100DC0000188232AA4FE6F004000032544FF938579
:100DD000818B6371B5026F004000832544FF01459C
:100DE00088C16F004000032544FF1105232AA4FE9B
:100DF0006FF0BFFD2244B24041018280011106CE56
:100E000022CC001037157C0013050526232AA4FEEA
:100E10004165130505002328A4FE13858180232640
:100E2000A4FE6F004000032504FF8325C4FE637801
:100E3000B5026F004000032544FF0305050083252C
:100E400004FF2380A500032504FF05052328A4FE35
:100E5000032544FF0505232AA4FE6FF0DFFC62444E
:100E6000F24005618280011106CE22CC00103715B8
:100E70007C0013058526232AA4FE49651305050079
:100E80002328A4FE49651305851D2326A4FE6F00B3
:100E90004000032504FF8325C4FE6378B5026F007C
:100EA0004000032544FF03050500832504FF23803C
:100EB000A500032504FF05052328A4FE032544FF00
:100EC0000505232AA4FE6FF0DFFC6244F2400561B1
:100ED0008280011106CE22CC001037157C0013054C
:100EE0000544232AA4FE130500002328A4FE1305AD
:100EF00000002326A4FE6F004000032504FF832585
:100F0000C4FE6378B5026F004000032544FF03056B
:100F10000500832504FF2380A500032504FF0505A4
:100F20002328A4FE032544FF0505232AA4FE6FF011
:100F3000DFFC6244F24005618280011106CE22CCC2
:100F4000001037157C0013050544232AA4FE05650F
:100F5000130505802328A4FE0565130505802326B7
:100F6000A4FE6F004000032504FF8325C4FE6378C0
:100F7000B5026F004000032544FF030505008325EB
:100F800004FF2380A500032504FF05052328A4FEF4
:100F9000032544FF0505232AA4FE6FF0DFFC62440D
:100FA000F24005618280411106C622C4000873E048
:100FB000107C3965930505C013058006A8C173F040
:100FC000107C2244B24041018280411106C622C4F5
:100FD000000873E0107C3965930505C01305800295
:100FE000A8C173F0107C2244B240410182804111BB
:100FF00006C622C40008453F73E0107CB96503A50E
:1010000005C61365150023A0A5C673F0107C6533D3
:10101000F533913D7D3D1537971085FFE780A01989
:101020006D372244B24041018280B7457A0003C542
:1010300015BF09892DE173E0107C03A6058E17D535
:1010400084FF130525BC50CD03A6458E10D183A681
:10105000858E39662326D6C883A6C58E2328D6C892
:1010600083A5058CB7B6AA55938656A56393D5027A
:10107000B7457A0083A6058D54CD83A6458D14D13E
:1010800003A5858D2326A6C803A5C58D930506C98E
:1010900088C173F0107C828042087C0052087C007A
:1010A000620A7C0062087C0072087C0082087C0076
:1010B00092087C00A2087C00B2087C00C2087C0078
:1010C000D2087C00E2087C00620A7C00620A7C0094
:1010D000620A7C00620A7C00F2087C0002097C0043
:1010E00012097C0022097C00620A7C00620A7C00F2
:1010F000620A7C00620A7C0032097C00620A7C0081
:10110000620A7C00620A7C00620A7C00620A7C003F
:10111000620A7C00620A7C0042097C00620A7C0050
:10112000620A7C00620A7C00620A7C00620A7C001F
:10113000620A7C00620A7C0052097C0062097C0021
:10114000620A7C00620A7C00620A7C00620A7C00FF
:10115000620A7C00620A7C0072097C0082097C00C1
:1011600092097C00A2097C00620A7C00620A7C0071
:10117000620A7C00620A7C00B2097C00C2097C0021
:10118000620A7C00620A7C00620A7C00620A7C00BF
:10119000620A7C00620A7C00D2097C00E2097C00C1
:1011A000620A7C00620A7C00620A7C00620A7C009F
:1011B000620A7C00620A7C00620A7C00620A7C008F
:1011C000F2097C00020A7C00120A7C00220A7C00E0
:1011D000320A7C00420A7C00620A7C00620A7C00BF
:1011E000620A7C00620A7C00620A7C00620A7C005F
:1011F000620A7C00620A7C00520A7C00620A7C005F
:10120000620A7C00620A7C00620A7C00620A7C003E
:10121000620A7C00620A7C00720A7C00620A7C001E
:10122000620A7C00620A7C00620A7C00620A7C001E
:10123000620A7C00620A7C00820A7C00620A7C00EE
:10124000620A7C00620A7C00620A7C00620A7C00FE
:08125000620A7C00620A7C00C6
:041260000100000089
:1012680031112EC8F325007C2EC6F325003001006D
:101278000B002566010073900530B2457390057C1C
:10128800C24551018280411106C622C40008231BB1
:10129800A4FE231AB4FE3965130505C048411D8113
:1012A8000D8981456301B5026F00400073E0107C31
:1012B8003965930505C0C8411375F5E7C8C173F0D2
:1012C800107C6F0040003965130505C008557D89FD
:1012D800835564FF6306B5046F00400073E0107C1B
:1012E800035664FF3965930505C088557D8A0199C1
:1012F800518D88D573F0107C97F07A00E780A0BCF8
:101308006F0040003965130505C0484105898145CE
:101318006316B5006F0040006FF0DFFE6F004000FD
:10132800035544FF8545630BB5006F004000035526
:1013380044FF89456316B5026F00400073E0107CD6
:10134800035644FF3965930505C0C8410D8A1E063A
:101358001375F5E7518DC8C173F0107C6F0040001C
:10136800035544FF8D45631FB5026F00400073E0CD
:10137800107C3965930505C02328B4FEC841137550
:10138800F5E713650510C8C1056513051576C93D50
:10139800832504FFC84113650518C8C173F0107C84
:1013A8006F0040002244B24041018280411106C6CC
:1013B80022C4000873E0107C37057B009305058084
:1013C80003A5850A1365150023A4A50A114523A6BC
:1013D800A50A05651305959D23A0A5081305702783
:1013E80023A8A50A1305D04E23ACA50A37752600F5
:1013F8001305153C23A2A50823A4A5080D6513050C
:10140800951323AAA50A73F0107C2244B240410127
:101418008280411106C622C4000873E0107C37059B
:101428007B0093050580114523A6A50A73F0107C5F
:081438002244B2404101828010
:02000004007D7D
:06FFE800B7007C008280DE
:10FFF000FFFFFFFFFFFFFFFFFFFFFFFFFFFFFFFF11
:04000005007C00007B
:00000001FF
