:0200000400708A
:1000000081400141814101428142014381430144D8
:1000100081440145814501468146014781470148A8
:10002000814801498149014A814A014B814B014C78
:10003000814C014D814D014E814E014F814FF9623E
:1000400073A002308542FE0263C3020001A0970242
:1000500000009382220473905230970191FF9381A4
:10006000617A170290FF1302D27D137202FC73258E
:1000700040F185456370B5001316150132921701E2
:1000800090FF130121786111EF00A07FEF00604B1A
:100090006D7106C20AC40EC612C816CA1ACC1ECE8C
:1000A00022D026D22AD42ED632D836DA3ADC3EDE18
:1000B000C2C0C6C2CAC4CEC6D2C8D6CADACCDECE88
:1000C000E2D0E6D2EAD4EED6F2D8F6DAFADCFEDEF8
:1000D00073252034F32510340A86EF00C04F7310C7
:1000E000153489629382028073A0023092402241CB
:1000F000B2414242D2426243F243025492542255E8
:10010000B2554256D2566257F2570648964826498B
:10011000B649464AD64A664BF64B065C965C265D67
:10012000B65D465ED65E665FF65F51617300203055
:1001300041114AC27329107C73F0107C06C622C498
:10014000000873E0107C396593050580C8413706C7
:1001500000D07D16718D37060010518DC8C1C84181
:10016000370600409306F6FF758D518DC8C188593A
:10017000370600C07D16718D88D9885937060080F2
:100180007D16718D88D9C84D37060030518DC8CD88
:1001900073F0107C2244B2404101828019714AC23E
:1001A0007329107C73F0107C86DEA2DC000173E002
:1001B000107C2565130505002324A4F86C4923222F
:1001C000B4FE832544FE93E585002322B4FE8325F7
:1001D00044FE6CC92C4D2324B4FE832584FE93E594
:1001E00085002324B4FE832584FE2CCDA5651386CB
:1001F00005202326C4F84C42C1994CC24C42BD99FB
:100200004CC24C42F9769386F60FF58D4CC24C4A9F
:10021000C1994CCA4C4ABD994CCA4C4AF58D4CCA3E
:10022000FD550CCD4CDD6CC10C55232CB4FA832547
:1002300084FB0566D18D232CB4FA832584FB0CD571
:1002400008592320A4FC6F00400025651305050014
:1002500008592320A4FC6F004000032504FC1181F1
:1002600005898145E303B5FE6F0040000145232E5B
:10027000A4FA0325C4FBB70501FFFD156D8DB70575
:1002800002004D8D232EA4FA0325C4FB619913654A
:100290004500232EA4FA0325C4FB137575F81365D6
:1002A0008506232EA4FA8325C4FB256513050500C6
:1002B0004CD50C55232CB4FA832584FB7D767D1612
:1002C000F18D232CB4FA832584FB0CD50859232007
:1002D000A4FC6F0040002565130505000859232084
:1002E000A4FC6F004000032504FC118105898145B1
:1002F000E313B5FE6F004000A566814523A0B6005C
:10030000256713060720084AB70704E01388F7FF9C
:1003100033750501B70704005D8D08CA0325072062
:10032000337505015D8D2320A720484A4199136547
:10033000250048CA484241991365250048C21385E3
:1003400006005041799A50C150411366260050C1B1
:1003500003A606001366160023A0C60003A6060027
:100360001366260023A0C60008450589630DB50065
:100370006F0040002565930505008845136515004D
:1003800088C56F00400073F0107C6654F650096118
:10039000828001114AC27329107C73F0107C06CE52
:1003A00022CC2ACA2EC832C6001025659305050046
:1003B000C85D7D892315A4FE25651305052023222C
:1003C000A4FE032544FE0356A4FE120632950841FE
:1003D000032604FE08C2032644FE0355A4FE1205AC
:1003E00032950845032604FE48C2032644FE035501
:1003F000A4FE120532954845032604FE08C60326CE
:1004000044FE0355A4FE1205329548413D8903265A
:1004100004FE2316A600884D1365250088CD7D5562
:10042000C8DDE8C1096593050590C841136505104D
:10043000C8C13246C24552456244F2407310197C2D
:10044000124905617300203041114AC27329107CA2
:1004500073F0107C06C622C400086F0040002565BA
:1004600013050500084D81456316B5006F00400077
:100470006FF0FFFE2565130505200C4DE181231B60
:10048000B4FE084D41811375F50F231AA4FE031520
:1004900044FF93158500031564FF4D8D231BA4FEB7
:1004A0002565930505007D5588CD035564FF2244DD
:1004B000B2404101828041114AC27329107C73F01D
:1004C000107C06C622C400084137231BA4FE031675
:1004D00064FF25659305052088456206B70600017F
:1004E000FD16758D518D88C5031564FF22053706ED
:1004F000FF00698E8845B70601FFFD16758D518D89
:1005000088C525659305050088451365150088C5D0
:100510006F004000256513050500084905898145E0
:100520006316B5006F0040006FF0DFFE2565930590
:10053000050088491365150088C92244B24041016D
:10054000828001114AC27329107C73F0107C06CEA0
:1005500022CC001001452326A4FE232AA4FEAD26AA
:10056000C13E2D390325C4FE73E0107C8965938557
:100570000590B0453D9AB0C52566130606002328B0
:10058000C4FE28C228C67D5548DE68C268467599F3
:1005900068C628421365150028C237057000130588
:1005A00025390966130606A02328A61073F0107CCF
:1005B000A84513650501A8C5B715100003A505C119
:1005C0001365051023A8A5C0736004306F004000B8
:1005D000DD356FF0FFFF01114AC27329107C73F003
:1005E000107C06CE22CC0010232AA4FE2328B4FEC1
:1005F0002326C4FE01456244F24005618280411118
:100600004AC27329107C73F0107C06C622C400080D
:10061000416513050500232AA4FE6F004000032551
:1006200044FFC165938505006371B5026F0040000A
:10063000832544FF014588C16F004000032544FF26
:100640001105232AA4FE6FF09FFD2244B240410110
:10065000828001114AC27329107C73F0107C06CE8F
:1006600022CC001037157000130505AD232AA4FE17
:100670004165130505002328A4FE41651305050007
:100680002326A4FE6F004000032504FF8325C4FE3B
:100690006378B5026F004000032544FF03050500A1
:1006A000832504FF2380A500032504FF05052328D7
:1006B000A4FE032544FF0505232AA4FE6FF0DFFCFA
:1006C0006244F2400561828001114AC27329107CA4
:1006D00073F0107C06CE22CC001037157000130585
:1006E00005AD232AA4FE5165130505002328A4FEA9
:1006F00051651305851F2326A4FE6F0040000325C6
:1007000004FF8325C4FE6378B5026F004000032513
:1007100044FF03050500832504FF2380A50003256E
:1007200004FF05052328A4FE032544FF0505232A0D
:10073000A4FE6FF0DFFC6244F2400561828001118B
:100740004AC27329107C73F0107C06CE22CC0010B4
:1007500037157000130585CC232AA4FE130500006D
:100760002328A4FE130500002326A4FE6F004000EA
:10077000032504FF8325C4FE6378B5026F004000A3
:10078000032544FF03050500832504FF2380A500FE
:10079000032504FF05052328A4FE032544FF0505C2
:1007A000232AA4FE6FF0DFFC6244F24005618280E0
:1007B00001114AC27329107C73F0107C06CE22CC42
:1007C000001037157000130585CC232AA4FE05659B
:1007D000130505802328A4FE05651305058023263F
:1007E000A4FE6F004000032504FF8325C4FE637848
:1007F000B5026F004000032544FF03050500832573
:1008000004FF2380A500032504FF05052328A4FE7B
:10081000032544FF0505232AA4FE6FF0DFFC624494
:10082000F2400561828041114AC27329107C73F045
:10083000107C06C622C4000873E0107C396593055D
:1008400005C013058006A8C173F0107C2244B24095
:100850004101828041114AC27329107C73F0107CDF
:1008600006C622C4000873E0107C3965930505C0F4
:1008700013058002A8C173F0107C2244B2404101EC
:10088000828041114AC27329107C73F0107C06C625
:1008900022C40008493F73E0107CB96503A505C672
:1008A0001365150023A0A5C673F0107C893B553352
:1008B000213D7135F53D973091FFE780A074593F98
:1008C0002244B2404101828041114AC27329107C06
:1008D00073F0107C06C622C4000831287D229920BE
:1008E00029458D45973091FFE780C07459202244F7
:1008F000B2404101828041114AC27329107C73F0D9
:10090000107C06C622C4000873E0107C396593058C
:1009100005C013058006A8C173F0107C2244B240C4
:100920004101828041114AC27329107C73F0107C0E
:1009300006C622C4000873E0107C3965930505C023
:10094000C8511375F5EFC8D1C8517999C8D1C851AC
:100950000966518DC8D1C8511166518DC8D1C85191
:1009600013650540C8D173F0107C2244B2404101A8
:10097000828041114AC27329107C73F0107C06C634
:1009800022C4000873E0107C3966930506C009454F
:1009900088CD032506C07199136525002320A6C0C4
:1009A00088451365850088C588451365250088C579
:1009B000C84913651500C8C9C84913652500C8C9C9
:1009C000C84913654500C8C9C84913650510C8C999
:1009D000C84913650520C8C9C84913650540C8C979
:1009E000C84513650510C8C5C84513651500C8C5B9
:1009F000C84513652500C8C5C84513654500C8C569
:100A0000C84513658500C8C5C84513650501C8C537
:100A1000C84513650502C8C5C84513650504C8C5A2
:100A2000C8490966518DC8C988451365150088C530
:100A300088451365050188C588451365054088C547
:100A400088451365051088C588451365052088C548
:100A500088451166518D88C588491365051088C978
:100A600088491365052088C9C845518DC8C5C84542
:100A70002166518DC8C588451365450088C573F04A
:100A8000107C2244B2404101828037457A00834580
:100A900015BF898985E973E0107C8325058E17D6FB
:100AA00090FF130626164CCE8325458E0CD2832547
:100AB000858E39662326B6C80325C58E2328A6C889
:060AC00073F0107C82803F
:100AD00041114AC27329107C73F0107C06C622C4EF
:100AE000000873E0107C37057B00930505801145F5
:100AF00023A6A50A73F0107C2244B24041018280F3
:100B000041114AC27329107C73F0107C06C622C4BE
:100B10000008231BA4FE231AB4FE3965130505C083
:100B200048411D810D8981456301B5026F00400078
:100B300073E0107C3965930505C0C8411375F5E76E
:100B4000C8C173F0107C6F0040003965130505C003
:100B500008557D89835564FF6306B5046F00400026
:100B600073E0107C035664FF3965930505C0885512
:100B70007D8A0199518D88D573F0107C97D06E00D5
:100B8000E780A0846F0040003965130505C0484127
:100B9000058981456316B5006F0040006FF0DFFEE8
:100BA0006F004000035544FF8545630BB5006F009F
:100BB0004000035544FF89456316B5026F004000AD
:100BC00073E0107C035644FF3965930505C0C841A6
:100BD0000D8A1E061375F5E7518DC8C173F0107CA0
:100BE0006F004000035544FF8D45631FB5026F0041
:100BF000400073E0107C3965930505C02328B4FEDE
:100C0000C8411375F5E713650510C8C105651305DF
:100C100015767920832504FFC84113650518C8C1DE
:100C200073F0107C6F0040002244B240410182808A
:100C300041114AC27329107C73F0107C06C622C48D
:100C4000000873E0107C37057B009305058003A541
:100C5000850A1365150023A4A50A114523A6A50A34
:100C600005651305959D23A0A5081305702723A8E6
:100C7000A50A1305D04E23ACA50A37752600130527
:100C8000153C23A2A50823A4A5080D6513059513FB
:100C900023AAA50A73F0107C2244B240410182804D
:100CA00031112EC8F325007C2EC6F325003001003B
:100CB0000B002566010073900530B2457390057CEA
:060CC000C24551018280D3
:02000004007387
:06FFE800B70070008280EA
:10FFF000FFFFFFFFFFFFFFFFFFFFFFFFFFFFFFFF11
:040000050070000087
:00000001FF
