:0200000400708A
:1000000081400141814101428142014381430144D8
:1000100081440145814501468146014781470148A8
:10002000814801498149014A814A014B814B014C78
:10003000814C014D814D014E814E014F814FF9623E
:1000400073A002308542FE0263C3020001A0970242
:1000500000009382220473905230970191FF9381A4
:10006000617A170290FF1302D27D137202FC73258E
:1000700040F185456370B5001316150132921701E2
:1000800090FF130121786111EF00F001EF000052A1
:100090006D7106C20AC40EC612C816CA1ACC1ECE8C
:1000A00022D026D22AD42ED632D836DA3ADC3EDE18
:1000B000C2C0C6C2CAC4CEC6D2C8D6CADACCDECE88
:1000C000E2D0E6D2EAD4EED6F2D8F6DAFADCFEDEF8
:1000D00073252034F32510340A86EF00205773105F
:1000E000153489629382028073A0023092402241CB
:1000F000B2414242D2426243F243025492542255E8
:10010000B2554256D2566257F2570648964826498B
:10011000B649464AD64A664BF64B065C965C265D67
:10012000B65D465ED65E665FF65F51617300203055
:10013000732045308280000073304530828000009B
:10014000733045348280411106C622C40008AD6672
:10015000138506309305007D4CC9014758C518C961
:100160001306E07950D110D583A50630F19993E5B7
:10017000250023A0B63083A50630ED9923A0B63024
:1001800083A5063093F5F5C723A0B63083A50630C6
:10019000F9779387F73FFD8D23A0B6304C4DBD997D
:1001A0004CCD4C4D93F5F5FB4CCD4C4DBD994CCD04
:1001B0004C4D93F5F5FB4CCD4C5593F5F5FC93E583
:1001C00005024CD54C5593F5F5F393E505044CD554
:1001D0000C5993F5F5CF93E505200CD90C59FD7614
:1001E0009386F63FF58D93E505400CD96C51E19966
:1001F00093E515006CD16C5193E585006CD12C55BD
:1002000093E535002CD5C16693850600854723927A
:10021000F5002393E5002394E50023A0A600239591
:10022000C500130520032396A5002397C500239836
:10023000A5002244B24041018280411106C622C479
:1002400000082D67930607401305007DC8CA814743
:10025000DCC69CCA13052003C8D21306E07990D6E9
:1002600083250740F19993E525002320B740832596
:100270000740ED992320B7408325074093F5F5C744
:100280002320B7408325074079781308F83FB3F55A
:1002900005012320B740CC4EBD99CCCECC4E93F572
:1002A000F5FBCCCECC4EF199CCCECC4ECD99CCCE6C
:1002B000CC5693F5F5FC93E50502CCD6CC567D776C
:1002C0001307F73FF98D93E50540CCD68C5AF19989
:1002D00093E515008CDA8C5ACD9993E585008CDA7C
:1002E000EC52E19993E51500ECD2EC5293E58500D0
:1002F000ECD2AC5693E53500ACD641679305470187
:10030000054823920501239305012394F500232A30
:10031000D7002395C5002396A5002397C5002398F1
:10032000A5002244B240410182805D7186C696C418
:100330009AC29EC022DE2ADC2EDA32D836D63AD4D1
:100340003ED242D046CE72CC76CA7AC87EC68008EB
:10035000416513050500232CA4FAC128832584FBDD
:100360000395850005052394A5002D6593050530AB
:10037000A85913651500A8D909659305059011457D
:10038000C8C1B24F424FD24E624EF2480258925705
:100390002257B2564256D25562557254864316437E
:1003A000A642B6406161730020305D7186C696C476
:1003B0009AC29EC022DE2ADC2EDA32D836D63AD451
:1003C0003ED242D046CE72CC76CA7AC87EC680086B
:1003D000416513054501232CA4FA8128832584FB5C
:1003E0000395850005052394A5002D65930505401B
:1003F000A85913651500A8D90965930505901145FD
:10040000C8C1B24F424FD24E624EF2480258925784
:100410002257B2564256D2556255725486431643FD
:10042000A642B640616173002030411106C622C465
:100430000008232AA4FE032544FF03558500A9458F
:100440006349B5146F004000832544FF01452394A0
:10045000A500032544FF0355450085456317B504F2
:100460006F004000032544FF08414851832544FFA5
:1004700083D5A500637CB5006F004000032544FFD1
:100480000C41C8512905C8D16F00E001832544FF04
:1004900001452392A500032544FF0C41C85159157D
:1004A000C8D16F0040006F00A004032544FF08413D
:1004B0004851832544FF83D5C5006311B5026F0001
:1004C0004000832544FF05452392A500032544FFF2
:1004D0000C41C8512905C8D16F004001032544FFD4
:1004E0000C41C8515915C8D16F0040006F00400041
:1004F000032544FF0355650085456317B5046F0068
:100500004000032544FF08410855832544FF83D557
:10051000E500637CB5006F004000032544FF0C41FB
:100520008855290588D56F00E001832544FF0145E2
:100530002393A500032544FF0C418855591588D500
:100540006F0040006F00A004032544FF08410855D8
:10055000832544FF83D505016311B5026F00400078
:10056000832544FF05452393A500032544FF0C4143
:100570008855290588D56F004001032544FF0C41AB
:100580008855591588D56F0040006F0040006F00F6
:100590006001832544FF0395850005052394A5008C
:1005A0006F0040002244B24041018280011106CE1A
:1005B00022CC00100145232AA4FE252FD923192D72
:1005C000B52541657D152326A4FEBD360325C4FE51
:1005D000853E5D2573E0107C370570001305A5325C
:1005E0008965938505A0E8C5370570001305A53A10
:1005F000A8C973F0107C73E0107C3965930505C0C1
:100600002328B4FE88456D9988C573F0107C253E7B
:100610002D31832504FF73E0107C88451365450068
:1006200088C573F0107C1145213609659305059046
:10063000884D1365850088CD884D1365050188CDEB
:10064000736004306F0040006F000000011106CE9F
:1006500022CC0010232AA4FE2328B4FE2326C4FEA5
:1006600001456244F24005618280411106C622C400
:100670000008416513050500232AA4FE6F00400011
:10068000032544FF938581826371B5026F004000AA
:10069000832544FF014588C16F004000032544FFC6
:1006A0001105232AA4FE6FF0BFFD2244B240410190
:1006B0008280011106CE22CC001037157000130580
:1006C0000509232AA4FE4165130505002328A4FE7D
:1006D0004165130505002326A4FE6F004000032595
:1006E00004FF8325C4FE6378B5026F004000032534
:1006F00044FF03050500832504FF2380A50003258F
:1007000004FF05052328A4FE032544FF0505232A2D
:10071000A4FE6FF0DFFC6244F240056182800111AB
:1007200006CE22CC00103715700013050509232AC8
:10073000A4FE5165130505002328A4FE5165130589
:10074000051E2326A4FE6F004000032504FF832519
:10075000C4FE6378B5026F004000032544FF030523
:100760000500832504FF2380A500032504FF05055C
:100770002328A4FE032544FF0505232AA4FE6FF0C9
:10078000DFFC6244F24005618280011106CE22CC7A
:1007900000103715700013050527232AA4FE130542
:1007A00000002328A4FE130500002326A4FE6F00EA
:1007B0004000032504FF8325C4FE6378B5026F0063
:1007C0004000032544FF03050500832504FF238023
:1007D000A500032504FF05052328A4FE032544FFE7
:1007E0000505232AA4FE6FF0DFFC6244F240056198
:1007F0008280011106CE22CC00103715700013053F
:100800000527232AA4FE0565130505802328A4FED9
:100810000565130505802326A4FE6F00400003250F
:1008200004FF8325C4FE6378B5026F0040000325F2
:1008300044FF03050500832504FF2380A50003254D
:1008400004FF05052328A4FE032544FF0505232AEC
:10085000A4FE6FF0DFFC6244F2400561828041112A
:1008600006C622C4000873E0107C3965930505C0F4
:1008700013058006A8C173F0107C2244B2404101E8
:100880008280411106C622C4000873E0107C3965DD
:10089000930505C013058002A8C173F0107C2244A3
:1008A000B24041018280411106C622C40008453F82
:1008B00073E0107CB96503A505C61365150023A078
:1008C000A5C673F0107C5533ED33913D7D3D153752
:1008D000973091FFE78000736D372244B2404101A9
:1008E0008280411106C622C400086F0040006F00DC
:1008F0000000411106C622C400086F0040006F00CE
:100900000000411106C622C400086F0040006F00BD
:100910000000411106C622C400086F0040006F00AD
:100920000000411106C622C400086F0040006F009D
:100930000000411106C622C400086F0040006F008D
:100940000000411106C622C400086F0040006F007D
:100950000000411106C622C400086F0040006F006D
:100960000000411106C622C400086F0040006F005D
:100970000000411106C622C400086F0040006F004D
:100980000000411106C622C400086F0040006F003D
:100990000000411106C622C400086F0040006F002D
:1009A0000000411106C622C400086F0040006F001D
:1009B0000000411106C622C400086F0040006F000D
:1009C0000000411106C622C400086F0040006F00FD
:1009D0000000411106C622C400086F0040006F00ED
:1009E0000000411106C622C400086F0040006F00DD
:1009F0000000411106C622C400086F0040006F00CD
:100A00000000411106C622C400086F0040006F00BC
:100A10000000411106C622C400086F0040006F00AC
:100A20000000411106C622C400086F0040006F009C
:100A30000000411106C622C400086F0040006F008C
:100A40000000411106C622C400086F0040006F007C
:100A50000000411106C622C400086F0040006F006C
:100A60000000411106C622C400086F0040006F005C
:100A70000000411106C622C400086F0040006F004C
:100A80000000411106C622C400086F0040006F003C
:100A90000000411106C622C400086F0040006F002C
:100AA0000000411106C622C400086F0040006F001C
:100AB0000000411106C622C400086F0040006F000C
:100AC0000000411106C622C400086F0040006F00FC
:100AD0000000411106C622C400086F0040006F00EC
:100AE0000000411106C622C400086F0040006F00DC
:100AF0000000411106C622C400086F0040006F00CC
:100B00000000411106C622C400086F0040006F00BB
:100B10000000411106C622C400086F0040006F00AB
:100B20000000411106C622C400086F0040006F009B
:100B30000000411106C622C400086F0040006F008B
:100B40000000411106C622C400086F0040006F007B
:100B50000000411106C622C400086F0040006F006B
:100B60000000411106C622C400086F0040006F005B
:100B70000000411106C622C400086F0040006F004B
:100B80000000411106C622C4000873E0107CB9655C
:100B900013860580085A1365050408DA085A136598
:100BA000050808DA03A5058075767D16718D056642
:100BB000518D23A0A58003A5058051767D16718DEA
:100BC0001166518D23A0A58073F0107C2244B240A1
:100BD00041018280411106C622C4000873E0107CE6
:100BE000B96513860580085A1365051008DA085A96
:100BF0001365052008DA03A505803706FDFF7D167D
:100C0000718D4166518D23A0A58003A5058037060F
:100C1000F4FF7D16718D37060400518D23A0A58049
:100C200073F0107C2244B24041018280411106C61B
:100C300022C40008737004300965930505900145CE
:100C400088C588C988CD88D188D588D988DDA8C1CC
:100C5000A8C5A8C9A8CDA8D1C8C5C8C9C8CDC8D17C
:100C6000C8D5C8D9C8DDE8C1E8C5E8C9E8CDE8D12C
:100C70002244B24041018280011106CE22CC0010F4
:100C800037157000130585EC2328A4FE09651305AC
:100C900005A02326A4FE73E0107C0145231BA4FEBF
:100CA0006F004000831564FF1305F006634BB50227
:100CB0006F004000032504FF930545002328B4FE80
:100CC00008418325C4FE138645002326C4FE88C13F
:100CD0006F004000031564FF0505231BA4FE6FF0A1
:100CE0007FFC73F0107C736004306244F240056155
:100CF0008280411106C622C400083128412A3528C5
:100D000029458D45973091FFE78020328D28224478
:100D1000B24041018280411106C622C4000873E03E
:100D2000107C3965930505C013058006A8C173F0D2
:100D3000107C2244B24041018280411106C622C487
:100D4000000873E0107C3965930505C0C851137520
:100D5000F5EFC8D1C8517999C8D1C8510966518DEC
:100D6000C8D1C8511166518DC8D1C851136505400D
:100D7000C8D173F0107C2244B240410182804111FD
:100D800006C622C4000873E0107C3966930506C0CD
:100D9000094588CD032506C07199136525002320D8
:100DA000A6C088451365850088C58845136525005C
:100DB00088C5C84913651500C8C9C8491365250009
:100DC000C8C9C84913654500C8C9C8491365051095
:100DD000C8C9C84913650520C8C9C8491365054075
:100DE000C8C9C84513650510C8C5C84513651500B1
:100DF000C8C5C84513652500C8C5C8451365450065
:100E0000C8C5C84513658500C8C5C8451365050133
:100E1000C8C5C84513650502C8C5C845136505049E
:100E2000C8C5C8490966518DC8C9884513651500EC
:100E300088C588451365050188C588451365054043
:100E400088C588451365051088C588451365052044
:100E500088C588451166518D88C588491365051078
:100E600088C988491365052088C9C845518DC8C5FA
:100E7000C8452166518DC8C588451365450088C59C
:100E800073F0107C2244B2404101828037457A00E1
:100E9000834515BF898985E973E0107C8325058E1C
:100EA00017D690FF130606D64CCE8325458E0CD25E
:100EB0008325858E39662326B6C80325C58E23284B
:100EC000A6C873F0107C8280E2087000F2087000FF
:100ED000520B7000020970001209700022097000A4
:100EE00032097000420970005209700062097000F6
:100EF0007209700082097000520B7000520B700072
:100F0000520B7000520B700092097000A209700021
:100F1000B2097000C2097000520B7000520B7000D1
:100F2000520B7000520B7000D2097000D209700091
:100F3000520B7000520B7000520B7000520B70007D
:100F4000520B7000520B7000E2097000520B7000DF
:100F5000520B7000520B7000520B7000520B70005D
:100F6000520B7000520B7000F2097000020A700000
:100F7000520B7000520B7000520B7000520B70003D
:100F8000520B7000520B7000120A7000220A70009F
:100F9000320A7000420A7000520A7000620A700041
:100FA000520B7000520B7000720A7000520B7000EE
:100FB000520B7000520B7000520B7000520B7000FD
:100FC000520B7000520B7000820A7000920A70007F
:100FD000A20A7000B20A7000C20A7000D20A700041
:100FE000520B7000520B7000520B7000520B7000CD
:100FF000E20A7000F20A7000020B7000120B70001F
:10100000220B7000320B7000520B7000520B7000FC
:10101000520B7000520B7000520B7000520B70009C
:10102000520B7000520B7000420B7000520B70009C
:10103000520B7000520B7000520B7000520B70007C
:10104000520B7000520B7000620B7000520B70005C
:10105000520B7000520B7000520B7000520B70005C
:10106000520B7000520B7000720B7000520B70002C
:10107000520B7000520B7000520B7000520B70003C
:08108000520B7000520B7000CE
:10109000411106C622C4000873E0107C37057B00AE
:1010A00093050580114523A6A50A73F0107C224400
:1010B000B24041018280411106C622C40008231BB0
:1010C000A4FE231AB4FE3965130505C048411D81ED
:1010D0000D8981456301B5026F00400073E0107C0B
:1010E0003965930505C0C8411375F5E7C8C173F0AC
:1010F000107C6F0040003965130505C008557D89D7
:10110000835564FF6306B5046F00400073E0107CF4
:10111000035664FF3965930505C088557D8A01999A
:10112000518D88D573F0107C97D06E00E780E0C7B2
:101130006F0040003965130505C0484105898145A8
:101140006316B5006F0040006FF0DFFE6F004000D7
:10115000035544FF8545630BB5006F004000035500
:1011600044FF89456316B5026F00400073E0107CB0
:10117000035644FF3965930505C0C8410D8A1E0614
:101180001375F5E7518DC8C173F0107C6F004000F6
:10119000035544FF8D45631FB5026F00400073E0A7
:1011A000107C3965930505C02328B4FEC84113752A
:1011B000F5E713650510C8C10565130515765920B7
:1011C000832504FFC84113650518C8C173F0107C5E
:1011D0006F0040002244B24041018280411106C6A6
:1011E00022C4000873E0107C37057B00930505805E
:1011F00003A5850A1365150023A4A50A114523A696
:10120000A50A05651305959D23A0A508130570275C
:1012100023A8A50A1305D04E23ACA50A37752600CE
:101220001305153C23A2A50823A4A5080D651305E5
:10123000951323AAA50A73F0107C2244B240410101
:101240008280000031112EC8F325007C2EC6F325C4
:10125000003001000B002566010073900530B24597
:0A1260007390057CC24551018280A5
:02000004007387
:06FFE800B70070008280EA
:10FFF000FFFFFFFFFFFFFFFFFFFFFFFFFFFFFFFF11
:040000050070000087
:00000001FF
