:02000004007C7E
:1000000081400141814101428142014381430144D8
:1000100081440145814501468146014781470148A8
:10002000814801498149014A814A014B814B014C78
:10003000814C014D814D014E814E014F814FF9623E
:1000400073A002308542FE0263C3020001A0970242
:1000500000009382220473905230970185FF9381B0
:10006000617A170284FF1302D27D137202FC73259A
:1000700040F185456370B5001316150132921701E2
:1000800084FF130121786111EF10E018EF00C07BAD
:100090006D7106C20AC40EC612C816CA1ACC1ECE8C
:1000A00022D026D22AD42ED632D836DA3ADC3EDE18
:1000B000C2C0C6C2CAC4CEC6D2C8D6CADACCDECE88
:1000C000E2D0E6D2EAD4EED6F2D8F6DAFADCFEDEF8
:1000D00073252034F32510340A86EF00706E7310F8
:1000E000153489629382028073A0023092402241CB
:1000F000B2414242D2426243F243025492542255E8
:10010000B2554256D2566257F2570648964826498B
:10011000B649464AD64A664BF64B065C965C265D67
:10012000B65D465ED65E665FF65F51617300203055
:10018000411106C622C4000873E0107C0565832572
:100190000540DD992320B5408325054093E54500C2
:1001A0002320B54093050540C84D13650502C8CD11
:1001B000C84D1375F5FBC8CDC84D0199C8CDE845AC
:1001C0001375F5C313650514E8C5E84541761306B4
:1001D000F67F718D156613060680518DE8C5E845DA
:1001E000019913656500E8C573F0107C2244B240A4
:1001F00041018280411106C622C42AC22EC00008D5
:100200006F0040000565032505403581058981455E
:100210006306B5006F0040006FF0DFFE0565032543
:10022000C549C16523A0A50873E0107C0565930549
:100230000540C84513654500C8C5C8491365450054
:10024000C8C909659305059013050020C8C173F05E
:10025000107C824512452244B24041017300203097
:10026000411106C622C4000873E0107C396593056D
:1002700005C0C84913652500C8C9884513658500B0
:1002800088C5B16503A505081365150023A0A50859
:1002900003A50508137575F023A0A50803A5050897
:1002A0001375F5EF23A0A50803A50508759923A0EC
:1002B000A508138605084846137505C01365051083
:1002C00048C60846799908C603A505081365450080
:1002D00023A0A50873F0107C2244B2404101828023
:1002E000411106C622C400082D66930506001305B9
:1002F000007DC8C90145C8C588C99306803ED4D1D0
:1003000088D5032506007199136525002320A600D2
:10031000032506006D992320A6000325060013750A
:10032000F5C72320A60003250600F9769386F63F3D
:10033000758D2320A600C84D3D99C8CDC84D1375B5
:10034000F5FBC8CDC84D7199C8CDC84D4D99C8CDE4
:10035000C8551375F5FC13650502C8D5C855137546
:10036000F5F313650504C8D588591375F5CF1365E2
:10037000051088D98859056613060680518D1375B6
:10038000F5BF88D9C85D13653500C8DDC85D4D99D6
:1003900013658500C8DDC85D1375F5FCC8DD130560
:1003A0002003A8C1E8C173E0107C03A5050C4199A6
:1003B0001365250023A0A50C03A5050C1375F5F006
:1003C0001365050123A0A50CE84561991365350067
:1003D000E8C503A5450C799923A2A50C03A5450CF6
:1003E0001365250023A2A50CA8451166518DA8C54B
:1003F000A849719913651500A8C9A8494D991365B5
:100400008500A8C9E84913654500E8C973F0107C68
:100410002244B24041018280411106C622C4000834
:100420002D66930506401305007DC8C90145C8C562
:1004300088C99306803ED4D188D50325064071999A
:10044000136525002320A640032506406D9923202F
:10045000A640032506401375F5C72320A6400325B3
:100460000640F9769386F63F758D2320A640C84D49
:100470003D99C8CDC84D1375F5FBC8CDC84D7199D0
:10048000C8CDC84D4D99C8CDC8551375F5FC136539
:100490000502C8D5C8551375F5F313650504C8D50D
:1004A00088591375F5CF1365051088D988590566E5
:1004B00013060680518D1375F5BF88D9C85D136585
:1004C0003500C8DDC85D4D9913658500C8DDC85D80
:1004D0001375F5FCC8DD13052003A8C1E8C173E05E
:1004E000107C03A5050C41991365250023A0A50CDC
:1004F00003A5050C1375F5F01365050123A0A50CE4
:10050000E845137575FC13658502E8C503A5450C20
:10051000799923A2A50C03A5450C1365250023A2F8
:10052000A50CA84513650504A8C5A84971991365CC
:100530001500A8C9A8494D9913658500A8C9E849BF
:1005400013652500E8C973F0107C2244B2404101D4
:100550008280411106C622C40008316693050680D8
:100560001305007DC8C90145C8C588C99306803EEA
:10057000D4D188D5032506807199136525002320E1
:10058000A680032506806D992320A680032506807A
:100590001375F5C72320A68003250680F976938678
:1005A000F63F758D2320A680C84D3D99C8CDC84D16
:1005B0001375F5FBC8CDC84D7199C8CDC84D4D997F
:1005C000C8CDC8551375F5FC13650502C8D5C855C7
:1005D0001375F5F313650504C8D588591375F5CF60
:1005E0001365051088D98859056693060680558DD0
:1005F0001375F5BF88D9C85D13653500C8DDC85DC2
:100600004D9913658500C8DDC85D1375F5FCC8DD1F
:1006100013052003A8C1E8C1E8511375F58F1365D0
:100620000520E8D1E851558DE8D1A8551375F5CFCF
:1006300013650510A8D573E0107C03A5050C41993E
:1006400023A0A50C03A5050C1375F5F01365050192
:1006500023A0A50CE845137575FC13658502E8C554
:1006600003A5450C799923A2A50C03A5450C136598
:10067000250023A2A50C03A5050CFD769386F60F95
:10068000758D23A0A50C03A5050CC576FD16758DEB
:10069000518D23A0A50CE8451375F5E313650514EA
:1006A000E8C503A5850C799923A4A50C03A5850CA1
:1006B0001365250023A4A50CA8491375F5F313654C
:1006C0000504A8C9A8491375F5CF13650520A8C965
:1006D000E84913650501E8C973F0107C2244B24073
:1006E00041018280411106C622C42AC22EC00008E0
:1006F00073E0107C2D65130505006C4D93E5150026
:100700006CCD73F0107C284D098105898145630DFE
:10071000B5006F004000396593058583C84D1365AA
:100720001500C8CD6F006001396593058583884D3C
:100730001365150088CD6F0040000965930505908D
:100740000945C8C1824512452244B24041017300A7
:100750002030411106C622C42AC22EC0000873E010
:10076000107C2D65130505406C4D93E525006CCD7F
:100770006C4D93E515006CCD73F0107C284D058110
:10078000058981456306B5006F0040006F00800059
:100790006F0040000965930505900945C8C1824571
:1007A00012452244B240410173002030411106C677
:1007B00022C42AC22EC0000873E0107C31651305E4
:1007C00005806C4D93E505016CCD6C4D93E50502FC
:1007D0006CCD6C4D93E515006CCD73F0107C284DFD
:1007E0001181058981456306B5006F0040006F00E7
:1007F00080006F0040000965930505900945C8C158
:10080000824512452244B24041017300203041111B
:1008100006C622C4000873E0107C39659305058084
:100820008845719988C588551365150088D539653F
:1008300093058583884D1365150088CD73F0107C72
:100840002244B24041018280011106CE22CC001028
:1008500001452322A4FE232AA4FE192DF5261529DD
:100860004121C129D92889225D379123032544FEDE
:10087000B71510002326B4FE23A8A5C0B715100095
:1008800023A8A5D09D2B73E0107C37057C001305B1
:10089000456E8965938505A088D137057C001305D1
:1008A0002575C8D137057C001305C57A88D537056D
:1008B0007C001305451F23A4A51273F0107C73E080
:1008C000107C3965930505C02324B4FE88456D99D5
:1008D00088C573F0107C29348136A539832584FEC0
:1008E00073E0107C88451365450088C573F0107C63
:1008F0004138BD328325C4FE03A505C113652520FB
:1009000023A8A5C00965930505902328B4FE88494E
:100910001365150088C988491365250088C9884969
:100920001365450088C9A84913654500A8C97360C7
:1009300004306F0040006F000000411106C622C461
:10094000000873E0107C3965930505C08845136580
:10095000850088C53965930505C6C84161767D1651
:10096000718DC8C18565138605404842619913653C
:10097000150048C203A505401166518D23A0A5406E
:1009800073F0107C6F004000056503250540118160
:10099000058981456316B5006F0040006FF0DFFEEA
:1009A0002244B24041018280411106C622C400089F
:1009B00073E0107C396693050680885913658500BD
:1009C00088D9032506801365050C2320A680C84519
:1009D0001375F5CF13650520C8C5C845370600FD5A
:1009E0007D16718D37060002518DC8C573F0107CDD
:1009F0002244B24041018280411106C622C400084F
:100A00006F0040006F000000411106C622C40008BC
:100A10006F0040006F000000411106C622C40008AC
:100A20006F0040006F000000411106C622C400089C
:100A30006F0040006F000000411106C622C400088C
:100A40006F0040006F000000411106C622C400087C
:100A50006F0040006F000000411106C622C400086C
:100A60006F0040006F000000411106C622C400085C
:100A70006F0040006F000000411106C622C400084C
:100A80006F0040006F000000411106C622C400083C
:100A90006F0040006F000000411106C622C400082C
:100AA0006F0040006F000000411106C622C400081C
:100AB0006F0040006F000000411106C622C400080C
:100AC0006F0040006F000000411106C622C40008FC
:100AD0006F0040006F000000411106C622C40008EC
:100AE0006F0040006F000000411106C622C40008DC
:100AF0006F0040006F000000411106C622C40008CC
:100B00006F0040006F000000411106C622C40008BB
:100B10006F0040006F000000411106C622C40008AB
:100B20006F0040006F000000411106C622C400089B
:100B30006F0040006F000000411106C622C400088B
:100B40006F0040006F000000411106C622C400087B
:100B50006F0040006F000000411106C622C400086B
:100B60006F0040006F000000411106C622C400085B
:100B70006F0040006F000000411106C622C400084B
:100B80006F0040006F000000411106C622C400083B
:100B90006F0040006F000000411106C622C400082B
:100BA0006F0040006F000000411106C622C400081B
:100BB0006F0040006F000000411106C622C400080B
:100BC0006F0040006F000000411106C622C40008FB
:100BD0006F0040006F000000411106C622C40008EB
:100BE0006F0040006F000000411106C622C40008DB
:100BF0006F0040006F000000411106C622C40008CB
:100C00006F0040006F000000411106C622C40008BA
:100C10006F0040006F000000411106C622C40008AA
:100C20006F0040006F000000411106C622C400089A
:100C30006F0040006F000000411106C622C400088A
:100C40006F0040006F000000411106C622C400087A
:100C500073E0107CB96513860580085A136515008A
:100C600008DA085A1365250008DA03A5058071998A
:100C70001365150023A0A58003A505804D99136574
:100C8000450023A0A58073F0107C2244B2404101AE
:100C90008280411106C622C4000873E0107CB96549
:100CA00013860580085A1365450008DA085A13654B
:100CB000850008DA03A505801375F5FC13650501A9
:100CC00023A0A58003A505801375F5F3136505041E
:100CD00023A0A58073F0107C2244B24041018280A1
:100CE000411106C622C4000873E0107CB965138662
:100CF0000580085A1365050108DA085A13650502CC
:100D000008DA03A505801375F5CF1365051023A038
:100D1000A58003A505807D761306F63F718D1365CA
:100D2000054023A0A58073F0107C2244B24041010D
:100D30008280411106C622C4000873E0107C396627
:100D4000930506808859FD76FD16758D88D98859DA
:100D5000C176FD16758D88D988598176FD16758DF9
:100D600088D9884DB7060003558D88CDC84D1365C9
:100D70003500C8CDC84D1365C500C8CD0325068014
:100D8000B70600FDFD16758DB7060001558D2320B1
:100D9000A680C84113653500C8C1C8411365C500A8
:100DA000C8C173F0107C2244B240410182804111DD
:100DB00006C622C4000873700430096593050590C7
:100DC000014588C588C988CD88D188D588D988DD6E
:100DD000A8C1A8C5A8C9A8CDA8D1C8C5C8C9C8CD2B
:100DE000C8D1C8D5C8D9C8DDE8C1E8C5E8C9E8CDCB
:100DF000E8D12244B24041018280011106CE22CCCA
:100E0000001037157C00130505292328A4FE096569
:100E1000130505A02326A4FE73E0107C0145231BC7
:100E2000A4FE6F004000831564FF1305F006634BBA
:100E3000B5026F004000032504FF930545002328F9
:100E4000B4FE08418325C4FE138645002326C4FE54
:100E500088C16F004000031564FF0505231BA4FE35
:100E60006FF07FFC73F0107C6244F2400561828079
:100E7000411106C622C400080520E12E81206545E7
:100E800005468D46B285971085FFE780A0178D280F
:100E90002244B24041018280411106C622C40008AA
:100EA00073E0107C3965930505C013058006A8C161
:100EB00073F0107C2244B24041018280411106C689
:100EC00022C4000873E0107C3965930505C0C85141
:100ED0001375F5EFC8D1C8517999C8D1C8510966C1
:100EE000518DC8D1C8511166518DC8D1C8511365F3
:100EF0000540C8D173F0107C2244B2404101828089
:100F0000411106C622C4000873E0107C39669305BF
:100F100006C0094588CD032506C0719913652500D3
:100F20002320A6C088451365850088C5C849136578
:100F30001500C8C9C84913652500C8C9C849136543
:100F40000510C8C9C84913650520C8C9C849136533
:100F50000540C8C9C84513650510C8C5C84513650F
:100F60001500C8C5C84513652500C8C5C845136523
:100F70004500C8C5C84513658500C8C5C849096688
:100F8000518DC8C988451365150088C58845136506
:100F9000050188C588451365054088C588451365E2
:100FA000051088C5C8451166518DC8C588451365AB
:100FB000450088C573F0107C2244B2404101828014
:100FC000011106CE22CC0010232AA4FE2328B4FE51
:100FD0002326C4FE01456244F2400561828041112E
:100FE00006C622C4000813850188232AA4FE6F00C8
:100FF0004000032544FF938581886371B5026F002B
:101000004000832544FF014588C16F00400003254F
:1010100044FF1105232AA4FE6FF0BFFD2244B24015
:1010200041018280011106CE22CC001037157C00D0
:1010300013050545232AA4FE416513050500232851
:10104000A4FE138501852326A4FE6F00400003251E
:1010500004FF8325C4FE6378B5026F0040000325BA
:1010600044FF03050500832504FF2380A500032515
:1010700004FF05052328A4FE032544FF0505232AB4
:10108000A4FE6FF0DFFC6244F24005618280011132
:1010900006CE22CC001037157C001305054A232A02
:1010A000A4FE4965130505002328A4FE4965130520
:1010B000051E2326A4FE6F004000032504FF8325A0
:1010C000C4FE6378B5026F004000032544FF0305AA
:1010D0000500832504FF2380A500032504FF0505E3
:1010E0002328A4FE032544FF0505232AA4FE6FF050
:1010F000DFFC6244F24005618280011106CE22CC01
:10110000001037157C0013050568232AA4FE13057B
:1011100000002328A4FE130500002326A4FE6F0070
:101120004000032504FF8325C4FE6378B5026F00E9
:101130004000032544FF03050500832504FF2380A9
:10114000A500032504FF05052328A4FE032544FF6D
:101150000505232AA4FE6FF0DFFC6244F24005611E
:101160008280011106CE22CC001037157C001305B9
:101170000568232AA4FE0565130505802328A4FE1F
:101180000565130505802326A4FE6F004000032596
:1011900004FF8325C4FE6378B5026F004000032579
:1011A00044FF03050500832504FF2380A5000325D4
:1011B00004FF05052328A4FE032544FF0505232A73
:1011C000A4FE6FF0DFFC6244F240056182804111B1
:1011D00006C622C4000873E0107C3965930505C07B
:1011E00013058006A8C173F0107C2244B24041016F
:1011F0008280411106C622C4000873E0107C396564
:10120000930505C013058002A8C173F0107C224429
:10121000B24041018280411106C622C40008453F08
:1012200073E0107CB96503A505C61365150023A0FE
:10123000A5C673F0107C6533F533913D7D3D1537C0
:1012400097F084FFE78060DE6D372244B2404101B1
:10125000828037357A00834515FF898985E973E0F7
:10126000107C832505FC39662326B6C8832545FCFA
:1012700097D684FF93860699CCCE832585FC8CD2A5
:101280000325C5FC2322A6C673F0107C82800000D3
:10129000F8097C00080A7C00180C7C00180A7C0005
:1012A000280A7C00380A7C00480A7C00580A7C0026
:1012B000680A7C00780A7C00880A7C00980A7C0016
:1012C000180C7C00180C7C00180C7C00180C7C009E
:1012D000A80A7C00B80A7C00C80A7C00D80A7C00F6
:1012E000180C7C00180C7C00180C7C00180C7C007E
:1012F000E80A7C00180C7C00180C7C00180C7C00A0
:10130000180C7C00180C7C00180C7C00180C7C005D
:10131000F80A7C00180C7C00180C7C00180C7C006F
:10132000180C7C00180C7C00180C7C00180C7C003D
:10133000080B7C00180B7C00180C7C00180C7C003F
:10134000180C7C00180C7C00180C7C00180C7C001D
:10135000280B7C00380B7C00480B7C00580B7C0071
:10136000180C7C00180C7C00180C7C00180C7C00FD
:10137000680B7C00780B7C00180C7C00180C7C003F
:10138000180C7C00180C7C00180C7C00180C7C00DD
:10139000880B7C00980B7C00180C7C00180C7C00DF
:1013A000180C7C00180C7C00180C7C00180C7C00BD
:1013B000180C7C00180C7C00A80B7C00B80B7C007F
:1013C000C80B7C00D80B7C00E80B7C00F80B7C0081
:1013D000180C7C00180C7C00180C7C00180C7C008D
:1013E000180C7C00180C7C00180C7C00180C7C007D
:1013F000080C7C00180C7C00180C7C00180C7C007D
:10140000180C7C00180C7C00180C7C00180C7C005C
:10141000280C7C00180C7C00180C7C00180C7C003C
:10142000180C7C00180C7C00180C7C00180C7C003C
:10143000380C7C00180C7C00180C7C00180C7C000C
:10144000180C7C00180C7C00180C7C00180C7C001C
:1014500031112EC8F325007C2EC6F3250030010083
:101460000B002566010073900530B2457390057C32
:10147000C24551018280411106C622C4000873E0B2
:10148000107C37057B0093050580114523A6A50A2E
:0C14900073F0107C2244B24041018280C5
:1014A000011106CE22CC0010231BA4FE231AB4FE89
:1014B0002319C4FE2318D4FE3965130505C048411D
:1014C0001D810D8981456301B5026F00400073E005
:1014D000107C3965930505C0C8411375F5E7C8C18F
:1014E00073F0107C6F0040003965130505C0085586
:1014F00019813D89835544FF6306B5026F004000A2
:1015000073E0107C035644FF3965930505C0885588
:101510003D8A1A061375F5C3518D88D573F0107C7A
:101520006F0040003965130505C0085529813D89C4
:10153000835524FF6308B5026F00400073E0107C00
:10154000035624FF3965930505C088553D8A2A0650
:10155000F1769386F63F758D518D88D573F0107CAA
:101560006F0040003965130505C008551375F50374
:10157000835564FF6306B5026F00400073E0107C82
:10158000035664FF3965930505C088551376F60345
:10159000137505FC518D88D573F0107C6F004000E9
:1015A000035504FF8545630BB5006F0040000355EC
:1015B00004FF89456316B5026F00400073E0107C9C
:1015C000035604FF3965930505C0C8410D8A1E0600
:1015D0001375F5E7518DC8C173F0107C6F004000A2
:1015E000035504FF8D456310B5046F00400073E0A0
:1015F000107C3965930505C02326B4FEC8411375D8
:10160000F5E713650510C8C1056513051576EFD01C
:101610003FE98325C4FEC84113650518C8C173F0AE
:10162000107C6F0040006F0040003965130505C055
:101630004841058981456316B5006F0040006FF091
:10164000DFFE6244F24005618280411106C622C479
:10165000000873E0107C37057B009305058003A527
:10166000850A1365150023A4A50A114523A6A50A1A
:0C16700073F0107C2244B24041018280E3
:02000004007D7D
:06FFE000B7007C008280E6
:10FFF000FFFFFFFFFFFFFFFFFFFFFFFFFFFFFFFF11
:04000005007C00007B
:00000001FF
