:0200000400708A
:1000000081400141814101428142014381430144D8
:1000100081440145814501468146014781470148A8
:10002000814801498149014A814A014B814B014C78
:10003000814C014D814D014E814E014F814FF9623E
:1000400073A002308542FE0263C3020001A0970242
:1000500000009382220473905230970191FF9381A4
:10006000617A170290FF1302D27D137202FC73258E
:1000700040F185456370B5001316150132921701E2
:1000800090FF130121786111EF00B010EF00005CC8
:100090006D7106C20AC40EC612C816CA1ACC1ECE8C
:1000A00022D026D22AD42ED632D836DA3ADC3EDE18
:1000B000C2C0C6C2CAC4CEC6D2C8D6CADACCDECE88
:1000C000E2D0E6D2EAD4EED6F2D8F6DAFADCFEDEF8
:1000D00073252034F32510340A86EF00E065731091
:1000E000153489629382028073A0023092402241CB
:1000F000B2414242D2426243F243025492542255E8
:10010000B2554256D2566257F2570648964826498B
:10011000B649464AD64A664BF64B065C965C265D67
:10012000B65D465ED65E665FF65F51617300203055
:10013000411106C622C400082D6793060700130666
:10014000007DD0CA0145C8C688CA9305803ECCD27E
:1001500088D683250700F19993E525002320B70071
:1001600083250700ED992320B7008325070093F529
:10017000F5C72320B70083250700F9779387F73F5A
:10018000FD8D2320B700CC4EBD99CCCECC4E93F53F
:10019000F5FBCCCECC4EF199CCCECC4ECD99CCCE7D
:1001A000CC5693F5F5FC93E50502CCD6CC5693F5E9
:1001B000F5F393E50504CCD68C5A7D771307F73F0A
:1001C000F98D93E505408CDA8C5A93F5F5CF93E5DC
:1001D00005208CDAEC52E19993E51500ECD2EC5253
:1001E00093E58500ECD2AC5693E53500ACD6CC5EF9
:1001F00093E53500CCDECC5ECD9993E58500CCDE71
:10020000CC5E93F5F5FCCCDEA8C2E8C2C16523A0A4
:10021000D5009385050085462399D500239BC5000D
:10022000239AA5002244B24041018280411106C6B2
:1002300022C400082D67930607101306007DD0CA5C
:100240000145C8C688CA9305803ECCD288D683258E
:100250000710F19993E525002320B7108325071097
:10026000ED992320B7108325071093F5F5C72320B8
:10027000B71083250710F9779387F73FFD8D23206B
:10028000B710CC4EBD99CCCECC4E93F5F5FBCCCE71
:10029000CC4EF199CCCECC4ECD99CCCECC5693F55C
:1002A000F5FC93E50502CCD6CC5693F5F5F393E532
:1002B0000504CCD68C5A7D771307F73FF98D93E56B
:1002C00005408CDA8C5A93F5F5CF93E505208CDA4E
:1002D000EC52E19993E51500ECD2EC5293E58500E0
:1002E000ECD2AC5693E53500ACD6CC5E93E5350048
:1002F000CCDECC5ECD9993E58500CCDECC5E93F56B
:10030000F5FCCCDEE8C2A8C2C16523ACD50093855C
:10031000850185462399D500239BC500239AA50016
:100320002244B24041018280411106C622C4000825
:100330002D67930607201306007DD0CA0145C8C665
:1003400088CA9305803ECCD288D683250720F199B0
:1003500093E525002320B72083250720ED9923204E
:10036000B7208325072093F5F5C72320B7208325E1
:100370000720F9779387F73FFD8D2320B720CC4ED8
:10038000BD99CCCECC4E93F5F5FBCCCECC4EF199AD
:10039000CCCECC4ECD99CCCECC5693F5F5FC93E596
:1003A0000502CCD6CC5693F5F5F393E50504CCD6EF
:1003B0008C5A7D771307F73FF98D93E505408CDA6A
:1003C0008C5A93F5F5CF93E505208CDAEC52E19940
:1003D00093E51500ECD2EC5293E58500ECD2AC56D7
:1003E00093E53500ACD6CC5E93E53500CCDECC5E33
:1003F000CD9993E58500CCDECC5E93F5F5FCCCDEA3
:10040000E8C2A8C223A8D182938501838546239997
:10041000D500239BC500239AA5002244B240410188
:100420008280411106C622C40008232AA4FE0325A7
:1004300044FF0355250185456313B5066F00400051
:10044000032544FF08416841832544FF83D56501A6
:100450006372B5026F004000032544FF0C41E84180
:100460002905E8C1032544FF0C41A8412905A8C17D
:100470006F00A002832544FF01452399A5000325B1
:1004800044FF0C41E8415915E8C1032544FF0C41E4
:10049000A8415915A8C16F0040006F002006032530
:1004A00044FF08416841832544FF83D54501631714
:1004B000B5026F004000832544FF05452399A50040
:1004C000032544FF0C41E8412905E8C1032544FF09
:1004D0000C41A8412905A8C16F000002032544FF73
:1004E0000C41E8415915E8C1032544FF0C41A841DE
:1004F0005915A8C16F0040006F0040002244B2406F
:10050000410182805D7186C696C49AC29EC022DE79
:100510002ADC2EDA32D836D63AD43ED242D046CE73
:1005200072CC76CA7AC87EC680084165130505007C
:10053000CD3D2D6593050500A85913651500A8D973
:100540000965930505901145C8C1B24F424FD24E7F
:10055000624EF248025892572257B2564256D2552E
:100560006255725486431643A642B64061617300D9
:1005700020305D7186C696C49AC29EC022DE2ADCF7
:100580002EDA32D836D63AD43ED242D046CE72CCCB
:1005900076CA7AC87EC68008416513058501513543
:1005A0002D6593050510A85913651500A8D909658F
:1005B000930505901145C8C1B24F424FD24E624ECD
:1005C000F248025892572257B2564256D2556255B7
:1005D000725486431643A642B640616173002030D0
:1005E0005D7186C696C49AC29EC022DE2ADC2EDACF
:1005F00032D836D63AD43ED242D046CE72CC76CA23
:100600007AC87EC6800813850183213D2D65930538
:100610000520A85913651500A8D90965930505900B
:100620001145C8C1B24F424FD24E624EF2480258F5
:1006300092572257B2564256D2556255725486434B
:100640001643A642B640616173002030011106CE08
:1006500022CC001001452322A4FE232AA4FEEF0091
:10066000007C3125912D4525C52D032544FEB71568
:1006700010002326B4FE23A8A5C0B715100023A898
:10068000A5D00D2773E0107C370570001305455089
:100690008965938505A0A8C1370570001305255706
:1006A000E8C1370570001305055EA8C573F0107C1E
:1006B00073E0107C3965930505C02324B4FE88459A
:1006C0006D9988C573F0107CA5348D36B139032639
:1006D00084FE8325C4FE73E0107C08461365450044
:1006E00008C673F0107C03A505C11365650023A837
:1006F000A5C00965930505902328B4FE884D1365B0
:10070000150088CD884D1365250088CD884D13656B
:10071000450088CD88491365150088C98849136547
:10072000250088C988491365450088C9736004306D
:100730006F0040006F000000011106CE22CC0010B7
:10074000232AA4FE2328B4FE2326C4FE01456244C6
:10075000F24005618280411106C622C4000841654D
:1007600013050500232AA4FE6F004000032544FF63
:10077000938581846371B5026F004000832544FF37
:10078000014588C16F004000032544FF1105232A5D
:10079000A4FE6FF0BFFD2244B240410182800111EE
:1007A00006CE22CC0010371570001305051C232A35
:1007B000A4FE4165130505002328A4FE4165130529
:1007C00005002326A4FE6F004000032504FF8325B7
:1007D000C4FE6378B5026F004000032544FF0305A3
:1007E0000500832504FF2380A500032504FF0505DC
:1007F0002328A4FE032544FF0505232AA4FE6FF049
:10080000DFFC6244F24005618280011106CE22CCF9
:100810000010371570001305051C232AA4FE51652E
:10082000130505002328A4FE51651305051E232684
:10083000A4FE6F004000032504FF8325C4FE6378F7
:10084000B5026F004000032544FF03050500832522
:1008500004FF2380A500032504FF05052328A4FE2B
:10086000032544FF0505232AA4FE6FF0DFFC624444
:10087000F24005618280011106CE22CC00103715AE
:1008800070001305053A232AA4FE1305000023284F
:10089000A4FE130500002326A4FE6F0040000325DC
:1008A00004FF8325C4FE6378B5026F004000032572
:1008B00044FF03050500832504FF2380A5000325CD
:1008C00004FF05052328A4FE032544FF0505232A6C
:1008D000A4FE6FF0DFFC6244F240056182800111EA
:1008E00006CE22CC0010371570001305053A232AD6
:1008F000A4FE0565130505802328A4FE05651305E0
:1009000005802326A4FE6F004000032504FF8325F5
:10091000C4FE6378B5026F004000032544FF030561
:100920000500832504FF2380A500032504FF05059A
:100930002328A4FE032544FF0505232AA4FE6FF007
:10094000DFFC6244F24005618280411106C622C488
:10095000000873E0107C3965930505C01305800617
:10096000A8C173F0107C2244B24041018280411141
:1009700006C622C4000873E0107C3965930505C0E3
:1009800013058002A8C173F0107C2244B2404101DB
:100990008280411106C622C40008453F73E0107CE6
:1009A000B96503A505C61365150023A0A5C673F098
:1009B000107C5533ED33913D7D3D1537973091FFD8
:1009C000E78040646D372244B2404101828041118A
:1009D00006C622C400086F0040006F0000004111ED
:1009E00006C622C400086F0040006F0000004111DD
:1009F00006C622C400086F0040006F0000004111CD
:100A000006C622C400086F0040006F0000004111BC
:100A100006C622C400086F0040006F0000004111AC
:100A200006C622C400086F0040006F00000041119C
:100A300006C622C400086F0040006F00000041118C
:100A400006C622C400086F0040006F00000041117C
:100A500006C622C400086F0040006F00000041116C
:100A600006C622C400086F0040006F00000041115C
:100A700006C622C400086F0040006F00000041114C
:100A800006C622C400086F0040006F00000041113C
:100A900006C622C400086F0040006F00000041112C
:100AA00006C622C400086F0040006F00000041111C
:100AB00006C622C400086F0040006F00000041110C
:100AC00006C622C400086F0040006F0000004111FC
:100AD00006C622C400086F0040006F0000004111EC
:100AE00006C622C400086F0040006F0000004111DC
:100AF00006C622C400086F0040006F0000004111CC
:100B000006C622C400086F0040006F0000004111BB
:100B100006C622C400086F0040006F0000004111AB
:100B200006C622C400086F0040006F00000041119B
:100B300006C622C400086F0040006F00000041118B
:100B400006C622C400086F0040006F00000041117B
:100B500006C622C400086F0040006F00000041116B
:100B600006C622C400086F0040006F00000041115B
:100B700006C622C400086F0040006F00000041114B
:100B800006C622C400086F0040006F00000041113B
:100B900006C622C400086F0040006F00000041112B
:100BA00006C622C400086F0040006F00000041111B
:100BB00006C622C400086F0040006F00000041110B
:100BC00006C622C400086F0040006F0000004111FB
:100BD00006C622C400086F0040006F0000004111EB
:100BE00006C622C400086F0040006F0000004111DB
:100BF00006C622C400086F0040006F0000004111CB
:100C000006C622C400086F0040006F0000004111BA
:100C100006C622C400086F0040006F0000004111AA
:100C200006C622C400086F0040006F00000041119A
:100C300006C622C400086F0040006F00000041118A
:100C400006C622C400086F0040006F00000041117A
:100C500006C622C400086F0040006F00000041116A
:100C600006C622C400086F0040006F00000041115A
:100C700006C622C4000873E0107CB965138605809F
:100C8000085A1365150008DA085A1365250008DAB2
:100C900003A5058071991365150023A0A58003A500
:100CA00005804D991365450023A0A58073F0107C45
:100CB0002244B24041018280411106C622C400088C
:100CC00073E0107CB96513860580085A13654500EA
:100CD00008DA085A1365850008DA03A5058013753C
:100CE000F5FC1365050123A0A58003A505801375F8
:100CF000F5F31365050423A0A58073F0107C22444E
:100D0000B24041018280411106C622C4000873E04E
:100D1000107CB96513860580085A1365050108DA49
:100D2000085A1365050208DA03A505801375F5CF87
:100D30001365051023A0A58003A505807D76130605
:100D4000F63F718D1365054023A0A58073F0107CDC
:100D50002244B24041018280411106C622C40008EB
:100D600073700430096593050590014588C588C9ED
:100D700088CD88D188D588D988DDA8C1A8C5A8C95B
:100D8000A8CDA8D1C8C5C8C9C8CDC8D1C8D5C8D9EB
:100D9000C8DDE8C1E8C5E8C9E8CDE8D12244B240E1
:100DA00041018280011106CE22CC0010371570005F
:100DB000130545FF2328A4FE0965130505A0232676
:100DC000A4FE73E0107C0145231BA4FE6F004000CD
:100DD000831564FF1305F006634BB5026F004000F6
:100DE000032504FF930545002328B4FE084183250D
:100DF000C4FE138645002326C4FE88C16F00400050
:100E0000031564FF0505231BA4FE6FF07FFC73F040
:100E1000107C736004306244F240056182804111AD
:100E200006C622C400083128412A352829458D45A7
:100E3000973091FFE780601F8D282244B240410126
:100E40008280411106C622C4000873E0107C396517
:100E5000930505C013058006A8C173F0107C2244D9
:100E6000B24041018280411106C622C4000873E0ED
:100E7000107C3965930505C0C8511375F5EFC8D1CD
:100E8000C8517999C8D1C8510966518DC8D1C85186
:100E90001166518DC8D1C85113650540C8D173F092
:100EA000107C2244B24041018280411106C622C416
:100EB000000873E0107C3966930506C0094588CDAB
:100EC000032506C07199136525002320A6C0884517
:100ED0001365850088C588451365250088C5C84900
:100EE00013651500C8C9C84913652500C8C9C84994
:100EF00013654500C8C9C84913650510C8C9C84964
:100F000013650520C8C9C84913650540C8C9C84547
:100F100013650510C8C5C84513651500C8C5C84583
:100F200013652500C8C5C84513654500C8C5C84533
:100F300013658500C8C5C84513650501C8C5C84502
:100F400013650502C8C5C84513650504C8C5C84969
:100F50000966518DC8C988451365150088C588453F
:100F60001365050188C588451365054088C5884512
:100F70001365051088C588451365052088C5884513
:100F80001166518D88C588491365051088C988493F
:100F90001365052088C9C845518DC8C5C845216657
:100FA000518DC8C588451365450088C573F0107C10
:100FB0002244B2404101828037457A00834515BF03
:100FC000898985E973E0107C8325058E17D690FF0B
:100FD000130646C34CCE8325458E0CD28325858EC1
:100FE00039662326B6C80325C58E2328A6C873F004
:100FF000107C8280CE097000DE0970003E0C70000B
:10100000EE097000FE0970000E0A70001E0A7000E2
:101010002E0A70003E0A70004E0A70005E0A7000D0
:101020006E0A70003E0C70003E0C70003E0C7000AA
:101030003E0C70007E0A70008E0A70009E0A7000DE
:10104000AE0A70003E0C70003E0C70003E0C70004A
:101050003E0C7000BE0A7000BE0A70003E0C7000AC
:101060003E0C70003E0C70003E0C70003E0C700098
:101070003E0C7000CE0A70003E0C70003E0C7000FA
:101080003E0C70003E0C70003E0C70003E0C700078
:101090003E0C7000DE0A7000EE0A70003E0C70001C
:1010A0003E0C70003E0C70003E0C70003E0C700058
:1010B0003E0C7000FE0A70000E0B70001E0B7000DC
:1010C0002E0B70003E0B70004E0B70003E0C70003B
:1010D0003E0C70005E0B70003E0C70003E0C700009
:1010E0003E0C70003E0C70003E0C70003E0C700018
:1010F0003E0C70006E0B70007E0B70008E0B70004B
:101100009E0B7000AE0B7000BE0B70003E0C7000AA
:101110003E0C70003E0C70003E0C7000CE0B700058
:10112000DE0B7000EE0B7000FE0B70000E0C7000FA
:101130001E0C70003E0C70003E0C70003E0C7000E7
:101140003E0C70003E0C70003E0C70003E0C7000B7
:101150003E0C70002E0C70003E0C70003E0C7000B7
:101160003E0C70003E0C70003E0C70003E0C700097
:101170003E0C70004E0C70003E0C70003E0C700077
:101180003E0C70003E0C70003E0C70003E0C700077
:101190003E0C70005E0C70003E0C70003E0C700047
:1011A0003E0C70003E0C70003E0C70003E0C700057
:0411B0003E0C700081
:1011C000411106C622C4000873E0107C37057B007D
:1011D00093050580114523A6A50A73F0107C2244CF
:1011E000B24041018280411106C622C40008231B7F
:1011F000A4FE231AB4FE3965130505C048411D81BC
:101200000D8981456301B5026F00400073E0107CD9
:101210003965930505C0C8411375F5E7C8C173F07A
:10122000107C6F0040003965130505C008557D89A5
:10123000835564FF6306B5046F00400073E0107CC3
:10124000035664FF3965930505C088557D8A019969
:10125000518D88D573F0107C97D06E00E780A0DAAE
:101260006F0040003965130505C048410589814577
:101270006316B5006F0040006FF0DFFE6F004000A6
:10128000035544FF8545630BB5006F0040000355CF
:1012900044FF89456316B5026F00400073E0107C7F
:1012A000035644FF3965930505C0C8410D8A1E06E3
:1012B0001375F5E7518DC8C173F0107C6F004000C5
:1012C000035544FF8D45631FB5026F00400073E076
:1012D000107C3965930505C02328B4FEC8411375F9
:1012E000F5E713650510C8C1056513051576592086
:1012F000832504FFC84113650518C8C173F0107C2D
:101300006F0040002244B24041018280411106C674
:1013100022C4000873E0107C37057B00930505802C
:1013200003A5850A1365150023A4A50A114523A664
:10133000A50A05651305959D23A0A508130570272B
:1013400023A8A50A1305D04E23ACA50A377526009D
:101350001305153C23A2A50823A4A5080D651305B4
:10136000951323AAA50A73F0107C2244B2404101D0
:101370008280000031112EC8F325007C2EC6F32593
:10138000003001000B002566010073900530B24566
:0A1390007390057CC2455101828074
:02000004007387
:06FFE800B70070008280EA
:10FFF000FFFFFFFFFFFFFFFFFFFFFFFFFFFFFFFF11
:040000050070000087
:00000001FF
