:020000021000EC
:1020000081400141814101428142014381430144B8
:102010008144014581450146814601478147014888
:10202000814801498149014A814A014B814B014C58
:10203000814C014D814D014E814E014F814FF9621E
:1020400073A002308542FE0263C3020001A0970222
:102050000000938222047390523097110000938104
:10206000614A17E2FEFF1302D27D137202FC732550
:1020700040F185456370B50013161501329217E1E2
:10208000FEFF130121786111EF00F00FEF00400F08
:102090006D7106C20AC40EC612C816CA1ACC1ECE6C
:1020A00022D026D22AD42ED632D836DA3ADC3EDEF8
:1020B000C2C0C6C2CAC4CEC6D2C8D6CADACCDECE68
:1020C000E2D0E6D2EAD4EED6F2D8F6DAFADCFEDED8
:1020D00073252034F32510340A86EF0010007310A6
:1020E000153489629382028073A0023092402241AB
:1020F000B2414242D2426243F243025492542255C8
:10210000B2554256D2566257F2570648964826496B
:10211000B649464AD64A664BF64B065C965C265D47
:10212000B65D465ED65E665FF65F51617300203035
:10218000011106CE22CC001001452326A4FE232AED
:10219000A4FED52B737004303D230325C4FEB71570
:1021A000100023A8A5C0B715100023A8A5D095231B
:1021B000E120012A138581A1B725F4481386054043
:1021C000B705F0422328B4FE2524832504FF0965C2
:1021D0001306058108463D9908C6138581A2372656
:1021E000744813060640292409659305058288452D
:1021F0003D9988C5736004306F0040000965130580
:10220000058108453D81058981456307B5026F0059
:10221000400009659305058188452166518D88C573
:1022200088453D9988C5396593058583C8491365F7
:102230000508C8C96F0040000965130505820845F7
:102240003D81058981456307B5026F00400009653E
:102250009305058288452166518D88C588453D993D
:1022600088C5396593058583C84913650504C8C9C0
:102270006F0040006FF09FF8411106C622C40008AD
:1022800073E0107C396603250680D175FD156D8DD0
:102290002320A68093050680C85113650508C8D180
:1022A00003250680F576FD16758D2320A680C8517E
:1022B00013650504C8D173F0107C2244B24041017B
:1022C0008280411106C622C400085D20138581A0CA
:1022D000B705F04237067A44212A0965930505803F
:1022E00088451166518D88C588453D9988C573E03C
:1022F000107C49651305A5328965938505A088CDB5
:1023000073F0107CB715100003A505C11365150007
:1023100023A8A5C0096593050590884513650504A4
:1023200088C52244B24041018280011106CE22CCF0
:102330002ACA2EC832C60010138601A048420505DD
:1023400048C2038501A0136515002380A1A073E096
:10235000107C0965930505900545C8C173F0107C94
:102360003246C24552456244F24005617300203056
:10237000411106C622C4000809651307058023A47D
:10238000E1A0FD5654C3014548C710471366060136
:1023900010C710471366060210C7938581A0C8C1F5
:1023A00089659387058123ACF1A089651387058230
:1023B00023A4E1A2D4C354C3C8C748C7944793E633
:1023C000060194C7144793E6060114C7944793E6A1
:1023D000060294C7144793E6060214C7138681A128
:1023E00048C2938581A2C8C12244B2404101828083
:1023F000011106CE22CC0010232AA4FE2328B4FE0D
:102400002326C4FE032504FF832544FF88C5032536
:10241000C4FE832544FFC8C5032504FF8325C4FEED
:10242000512B89252324A4FE032584FE832544FF04
:102430008C41C8C1032544FF0C410145C8C5832513
:1024400044FF90410C4693E505010CC6832544FFEB
:1024500090410C4693E505020CC6832544FF90414C
:102460000C469166D58D0CC6832544FFC8C16244D5
:10247000F24005618280411106C622C400086F0047
:1024800040006F000000411106C622C400086F0022
:1024900040006F000000411106C622C400086F0012
:1024A00040006F000000411106C622C400086F0002
:1024B00040006F000000411106C622C400086F00F2
:1024C00040006F000000411106C622C400086F00E2
:1024D00040006F000000411106C622C400086F00D2
:1024E00040006F000000411106C622C400086F00C2
:1024F00040006F000000411106C622C400086F00B2
:1025000040006F000000411106C622C400086F00A1
:1025100040006F000000411106C622C400086F0091
:1025200040006F000000411106C622C400086F0081
:1025300040006F000000411106C622C400086F0071
:1025400040006F000000411106C622C400086F0061
:1025500040006F000000411106C622C400086F0051
:1025600040006F000000411106C622C400086F0041
:1025700040006F000000411106C622C400086F0031
:1025800040006F000000411106C622C400086F0021
:1025900040006F000000411106C622C400086F0011
:1025A00040006F000000411106C622C400086F0001
:1025B00040006F000000411106C622C400086F00F1
:1025C00040006F000000411106C622C400086F00E1
:1025D00040006F000000411106C622C400086F00D1
:1025E00040006F000000411106C622C400086F00C1
:1025F00040006F000000411106C622C400086F00B1
:1026000040006F000000411106C622C400086F00A0
:1026100040006F000000411106C622C400086F0090
:1026200040006F000000411106C622C400086F0080
:1026300040006F000000411106C622C400086F0070
:1026400040006F000000411106C622C400086F0060
:1026500040006F000000411106C622C400086F0050
:1026600040006F000000411106C622C400086F0040
:1026700040006F000000411106C622C400086F0030
:1026800040006F000000411106C622C400086F0020
:1026900040006F000000411106C622C400086F0010
:1026A00040006F000000411106C622C400086F0000
:1026B00040006F000000411106C622C400086F00F0
:1026C00040006F000000411106C622C4000873706C
:1026D0000430096593050590014588C588C988CDF2
:1026E00088D188D588D988DDA8C1A8C5A8C9A8CDB2
:1026F000A8D1C8C5C8C9C8CDC8D1C8D5C8D9C8DD32
:10270000E8C1E8C5E8C9E8CDE8D12244B2404101BA
:102710008280011106CE22CC00104D651305C5B193
:102720002328A4FE0965130505A02326A4FE73E053
:10273000107C0145231BA4FE6F004000831564FF3D
:102740001305F006634BB5026F004000032504FF3C
:10275000930545002328B4FE08418325C4FE138653
:1027600045002326C4FE88C16F004000031564FFA6
:102770000505231BA4FE6FF07FFC73F0107C624400
:10278000F24005618280411106C622C40008192862
:10279000392E1D2829458D4579238D282244B240A4
:1027A00041018280411106C622C4000873E0107CFA
:1027B0003965930505C013058006A8C173F0107C28
:1027C0002244B24041018280411106C622C4000861
:1027D00073E0107C3965930505C0C8511375F5EF9A
:1027E000C8D1C8517999C8D1C8510966518DC8D18D
:1027F000C8511166518DC8D1C85113650540C8D163
:1028000073F0107C2244B24041018280411106C61F
:1028100022C4000873E0107C396593050580C84127
:1028200013650503C8C13966930506C0094588CDFF
:10283000032506C07199136525002320A6C088458D
:102840001365850088C5C84913651500C8C9C849FE
:1028500013652500C8C9C84913650510C8C9C8490A
:1028600013650520C8C9C84913650540C8C9C845CE
:1028700013650510C8C5C84513651500C8C5C8450A
:1028800013652500C8C5C84513654500C8C5C845BA
:1028900013658500C8C5C8490966518DC8C98845F2
:1028A0001365150088C588451365050188C58845E9
:1028B0001365054088C588451365051088C5C8455A
:1028C0001166518DC8C588451365450088C573F0EC
:1028D000107C2244B24041018280011106CE22CCFC
:1028E0000010232AA4FE2328B4FE2326C4FE01459B
:1028F0006244F24005618280411106C622C400088C
:10290000138501A0232AA4FE6F004000032544FF85
:10291000938581A36371B5026F004000832544FF56
:10292000014588C16F004000032544FF1105232A9B
:10293000A4FE6FF0BFFD2244B240410182804111EC
:1029400006C622C4000873E0107C3965930505C0F3
:1029500013058006A8C173F0107C2244B2404101E7
:102960008280411106C622C4000873E0107C3965DC
:10297000930505C013058002A8C173F0107C2244A2
:10298000B24041018280411106C622C40008453F81
:1029900073E0107CB96503A505C61365150023A077
:1029A000A5C673F0107C893F1123653F2244B240D5
:1029B00041018280370700809302F00FB347B500D2
:1029C000F98F13161500618293961500E18229CEC6
:1029D000BDC6630F56046389560636962205598D87
:1029E000A205D98DB306B5023335B502B336D00092
:1029F000558D6344050006057D16130616F86348D9
:102A00000604FD12635F56009316850121815E0660
:102A1000329563D606000505860691E279995D8DAB
:102A200082803705807FE5BF638D56003E858280BA
:102A3000260501E9E39756FEA60581E5DDB7E31714
:102A400056FE3705C07F8280A605E5FDD9BF050685
:102A500071FE2185930215000905E39902FC3705F3
:102A6000800075BF9357F5411316150093558601E5
:102A7000938515F863CF0500B70600807D470D8F5D
:102A8000635BE0002205558D3355E5003D8D1D8DBE
:102A900082800145828013C7F6FFB70500FF63F30C
:102AA000C500798D758D634305003A858280B745F1
:102AB0007A0003C515BF09892DE173E0107C03A6D8
:102AC000058E17B5FFFF1305E51350CD03A6458E00
:102AD00010D183A6858E39662326D6C883A6C58ED7
:102AE0002328D6C883A5058CB7B6AA55938656A5C4
:102AF0006393D502B7457A0083A6058D54CD83A68E
:102B0000458D14D103A5858D2326A6C803A5C58DA3
:102B1000930506C988C173F0107C82807624010079
:102B2000862401009626010096240100A6240100B7
:102B3000B6240100C6240100D6240100E6240100C9
:102B4000F624010006250100162501009626010045
:102B500096260100962601009626010026250100F2
:102B60003625010046250100562501009626010064
:102B70009626010096260100962601006625010092
:102B80009626010096260100962601009626010051
:102B90009626010096260100962601007625010062
:102BA0009626010096260100962601009626010031
:102BB0009626010096260100962601008625010032
:102BC0009625010096260100962601009626010012
:102BD000962601009626010096260100A6250100F2
:102BE000B6250100C6250100D62501009626010064
:102BF000962601009626010096260100E625010092
:102C0000F625010096260100962601009626010071
:102C10009626010096260100962601000626010050
:102C20001626010096260100962601009626010030
:102C300096260100962601009626010096260100A0
:102C400096260100262601003626010046260100B0
:102C50005626010066260100762601009626010010
:102C60009626010096260100962601009626010070
:102C70009626010096260100962601008626010070
:102C80009626010096260100962601009626010050
:102C9000962601009626010096260100A626010030
:102CA0009626010096260100962601009626010030
:102CB000962601009626010096260100B626010000
:102CC0009626010096260100962601009626010010
:0C2CD000962601009626010096260100C1
:102D000031112EC8F325007C2EC6F32500300100BA
:102D10000B002566010073900530B2457390057C69
:102D2000C24551018280411106C622C40008231BFE
:102D3000A4FE231AB4FE3965130505C048411D8160
:102D40000D8981456301B5026F00400073E0107C7E
:102D50003965930505C0C8411375F5E7C8C173F01F
:102D6000107C6F0040003965130505C008557D894A
:102D7000835564FF6303B5046F00400073E0107C6B
:102D8000035664FF3965930505C088557D8A01990E
:102D9000518D88D573F0107C31346F004000396557
:102DA000130505C04841058981456316B5006F00CC
:102DB00040006FF0DFFE6F004000035544FF854583
:102DC000630BB5006F004000035544FF894563164F
:102DD000B5026F00400073E0107C035644FF396574
:102DE000930505C0C8410D8A1E061375F5E7518D80
:102DF000C8C173F0107C6F004000035544FF8D453F
:102E0000631FB5026F00400073E0107C39659305C5
:102E100005C02328B4FEC8411375F5E713650510F6
:102E2000C8C1056513051576E13D832504FFC8413A
:102E300013650518C8C173F0107C6F004000224470
:102E4000B24041018280411106C622C4000873E0ED
:102E5000107C37057B009305058003A5850A136563
:102E6000150023A4A50A114523A6A50A0565130587
:102E7000959D23A0A5081305702723A8A50A13056F
:102E8000D04E23ACA50A377526001305153C23A2A6
:102E9000A50823A4A5080D651305951323AAA50A63
:102EA00073F0107C2244B24041018280411106C679
:102EB00022C4000873E0107C37057B009305058071
:102EC000114523A6A50A73F0107C2244B2404101AB
:022ED0008280FE
:0400000310002000C9
:00000001FF
