:02000004007C7E
:1000000081400141814101428142014381430144D8
:1000100081440145814501468146014781470148A8
:10002000814801498149014A814A014B814B014C78
:10003000814C014D814D014E814E014F814FF9623E
:1000400073A002308542FE0263C3020001A0970242
:1000500000009382220473905230970185FF9381B0
:10006000617A170284FF1302D27D137202FC73259A
:1000700040F185456370B5001316150132921701E2
:1000800084FF130121786111EF001051EF00E0129D
:100090006D7106C20AC40EC612C816CA1ACC1ECE8C
:1000A00022D026D22AD42ED632D836DA3ADC3EDE18
:1000B000C2C0C6C2CAC4CEC6D2C8D6CADACCDECE88
:1000C000E2D0E6D2EAD4EED6F2D8F6DAFADCFEDEF8
:1000D00073252034F32510340A86EF009026731020
:1000E000153489629382028073A0023092402241CB
:1000F000B2414242D2426243F243025492542255E8
:10010000B2554256D2566257F2570648964826498B
:10011000B649464AD64A664BF64B065C965C265D67
:10012000B65D465ED65E665FF65F51617300203055
:10018000411106C622C4000873E0107C396593054E
:1001900005808845719988C588551365150088D5EF
:1001A000396593058583884D1365150088CD73F0F7
:1001B000107C2244B24041018280797106D622D45B
:1001C000001801452326A4FE232AA4FEEF00700296
:1001D000453FB92F0325C4FEB715100023A8A5C0BD
:1001E000B715100023A8A5D0EF00407973E0107C6C
:1001F00037057C001305A5348965938505A023A0E8
:10020000A50C73F0107C096593050580884513657E
:10021000050188C581290325C4FE2319A4FE6F00AA
:100220004000835524FF1305F01F6341B5046F00A0
:100230004000035524FFC965938505000605AA956E
:1002400001452390A500035524FFC9651386054089
:1002500093151500B2952390A5006F00400003157B
:1002600024FF05052319A4FE6FF0BFFB4965930524
:10027000050041652320B508C9651386054023A202
:10028000C1880325050883A5418839217D45094694
:100290002322C4FEB285A121032644FE3D45B2853A
:1002A000412141651306F5FF81462324D4FE3285A2
:1002B000B6854529032884FE0A8585482322150131
:1002C000232015011145C6854686C2864287C2870E
:1002D000C521152D0965832505804176F18D93E5AE
:1002E00005202320B5809305058088451166518D32
:1002F00088C588453D9988C5B715100013050004C9
:1003000023A8A5C0096593050590885D13651500B0
:1003100088DD736004306F00400049659305054037
:100320000395250005052391A500416503250508D2
:1003300083A541889526C12B0D65130515ED970002
:1003400085FFE78020CC6FF05FFD01114AC24EC4EB
:1003500052C673290030F3291034732A007C06CE6C
:1003600022CC2ACA2EC832C600103965930585836F
:10037000C84D13651500C8CD014523A4A1886F00A1
:10038000400083A581881305F01F636EB5046F00DC
:10039000400003A5818849661306060006053295CC
:1003A0000355050083A58188496613060640860526
:1003B000B29583D50500630DB5006F004000396527
:1003C00093058583884D1365150088CD6F008000E7
:1003D0006F0040006F00400003A58188050523A43D
:1003E000A1886FF01FFA09659305059013050004B5
:1003F000C8C13246C24552456244F24073100A7C7D
:100400007390193473100930324AA24912490561B8
:1004100073002030411106C622C400086F0040005E
:100420006F000000411106C622C400086F004000A2
:100430006F000000411106C622C400086F00400092
:100440006F000000411106C622C400086F00400082
:100450006F000000411106C622C400086F00400072
:100460006F000000411106C622C400086F00400062
:100470006F000000411106C622C400086F00400052
:100480006F000000411106C622C400086F00400042
:100490006F000000411106C622C400086F00400032
:1004A0006F000000411106C622C400086F00400022
:1004B0006F000000411106C622C400086F00400012
:1004C0006F000000411106C622C400086F00400002
:1004D0006F000000411106C622C400086F004000F2
:1004E0006F000000411106C622C400086F004000E2
:1004F0006F000000411106C622C400086F004000D2
:100500006F000000411106C622C400086F004000C1
:100510006F000000411106C622C400086F004000B1
:100520006F000000411106C622C400086F004000A1
:100530006F000000411106C622C400086F00400091
:100540006F000000411106C622C400086F00400081
:100550006F000000411106C622C400086F00400071
:100560006F000000411106C622C400086F00400061
:100570006F000000411106C622C400086F00400051
:100580006F000000411106C622C400086F00400041
:100590006F000000411106C622C400086F00400031
:1005A0006F000000411106C622C400086F00400021
:1005B0006F000000411106C622C400086F00400011
:1005C0006F000000411106C622C400086F00400001
:1005D0006F000000411106C622C400086F004000F1
:1005E0006F000000411106C622C400086F004000E1
:1005F0006F000000411106C622C400086F004000D1
:100600006F000000411106C622C400086F004000C0
:100610006F000000411106C622C400086F004000B0
:100620006F000000411106C622C400086F004000A0
:100630006F000000411106C622C400086F00400090
:100640006F000000411106C622C400086F00400080
:100650006F000000411106C622C400086F00400070
:100660006F000000411106C622C4000873E0107C30
:100670000965831505C093E515002310B5C0010079
:10068000930505C0C8412166518DC8C173F0107C27
:100690002244B24041018280411106C622C40008B2
:1006A000232AA4FE2328B4FE73E0107C032504FF54
:1006B0008965938505C023A0A50C032504FF23A20B
:1006C000A50C032544FF23A8A50C032544FF23AA5A
:1006D000A50C73F0107C2244B240410182800111CC
:1006E00006CE22CC0010232AA4FE2328B4FE232603
:1006F000C4FE73E0107C032544FF8965938505C023
:1007000023A4A508032504FF23A8A5080325C4FEE8
:1007100023AAA50873F0107C6244F2400561828030
:10072000011106CE22CC0010232AA4FE2328B4FEF9
:100730002326C4FE73E0107C032544FF896593855E
:1007400005C023ACA508032504FF23A0A50A0325A3
:10075000C4FE23A2A50A73F0107C6244F240056136
:100760008280011106CE22CC0010232AA4FE232869
:10077000B4FE2326C4FE2324D4FE73E0107C03259C
:1007800044FF8965938505C023A4A50A032504FFBA
:1007900023A8A50A0325C4FE23AAA50A032584FECF
:1007A00023AEA50A73F0107C6244F240056182809A
:1007B000797106D622D400188322440083220400D3
:1007C000232AA4FE2328B4FE2326C4FE2324D4FE19
:1007D0002322E4FE2320F4FE232E04FD232C14FD0B
:1007E00073E0107C032644FF0965930505C003A54B
:1007F00005087D8A0199518D23A0A508032604FFD1
:1008000003A50508058A22061375F5EF518D23A06F
:10081000A5080326C4FE03A50508058A2A06137544
:10082000F5BF518D23A0A508032684FE03A5050866
:10083000058A2E06FD761387F67F798D518D23A0CC
:10084000A508032644FE03A50508058A3206FD1601
:10085000758D518D23A0A508032604FE03A5050868
:10086000058A3606F976FD16758D518D23A0A508EB
:100870000326C4FD03A50508058A1E061375F5F7B2
:10088000518D23A0A508032684FD03A50508058A2C
:100890003A06F176FD16758D518D23A0A5081040FE
:1008A00003A50508058A26061375F5DF518D23A0DB
:1008B000A508504003A50508058A3E06E176FD1609
:1008C000758D518D23A0A50803A545081365050165
:1008D00023A2A50803A545081365050423A2A508BE
:1008E00003A545081365050823A2A5080965930516
:1008F0000590885D1365150088DD73F0107C225427
:10090000B25045618280411106C622C4000873E0DE
:10091000107C0965930505C003A5450813651500FE
:1009200023A2A50873F0107C2244B24041018280CA
:10093000411106C622C4000873700430096593058E
:100940000590014588C588C988CD88D188D588D9C2
:1009500088DDA8C1A8C5A8C9A8CDA8D1C8C5C8C9DF
:10096000C8CDC8D1C8D5C8D9C8DDE8C1E8C5E8C96F
:10097000E8CDE8D12244B24041018280011106CE87
:1009800022CC001037157C00130505E12328A4FEB6
:100990000965130505A02326A4FE73E0107C01451C
:1009A000231BA4FE6F004000831564FF1305F006AF
:1009B000634BB5026F004000032504FF930545001B
:1009C0002328B4FE08418325C4FE13864500232650
:1009D000C4FE88C16F004000031564FF0505231B9A
:1009E000A4FE6FF07FFC73F0107C6244F24005615E
:1009F0008280411106C622C400080520E12E812014
:100A0000654505468D46B285972085FFE78080DFE6
:100A10008D282244B24041018280411106C622C481
:100A2000000873E0107C3965930505C01305800646
:100A3000A8C173F0107C2244B24041018280411170
:100A400006C622C4000873E0107C3965930505C012
:100A5000C8511375F5EFC8D1C8517999C8D1C8519B
:100A60000966518DC8D1C8511166518DC8D1C85180
:100A700013650540C8D173F0107C2244B240410197
:100A80008280411106C622C4000873E0107C3966DA
:100A9000930506C0094588CD032506C071991365E5
:100AA00025002320A6C088451365850088C5C84950
:100AB00013651500C8C9C84913652500C8C9C849C8
:100AC00013650510C8C9C84913650520C8C9C849B8
:100AD00013650540C8C9C84513650510C8C5C84594
:100AE00013651500C8C5C84513652500C8C5C845A8
:100AF00013654500C8C5C84513658500C8C5C84904
:100B00000966518DC8C988451365150088C5884593
:100B10001365050188C588451365054088C5884566
:100B20001365051088C5C8451166518DC8C588452F
:100B30001365450088C573F0107C2244B240410122
:100B40008280011106CE22CC0010232AA4FE232885
:100B5000B4FE2326C4FE01456244F2400561828052
:100B6000411106C622C4000813850188232AA4FE69
:100B70006F004000032544FF938501896371B5022E
:100B80006F004000832544FF014588C16F0040008D
:100B9000032544FF1105232AA4FE6FF0BFFD224464
:100BA000B24041018280011106CE22CC00103715DF
:100BB0007C00130505FD232AA4FE416513050500ED
:100BC0002328A4FE138501852326A4FE6F00400080
:100BD000032504FF8325C4FE6378B5026F0040003F
:100BE000032544FF03050500832504FF2380A5009A
:100BF000032504FF05052328A4FE032544FF05055E
:100C0000232AA4FE6FF0DFFC6244F240056182807B
:100C1000011106CE22CC001037157C001305050209
:100C2000232AA4FE4965130505002328A4FE4D656B
:100C30001305059E2326A4FE6F004000032504FF34
:100C40008325C4FE6378B5026F004000032544FF8E
:100C500003050500832504FF2380A500032504FF69
:100C600005052328A4FE032544FF0505232AA4FE29
:100C70006FF0DFFC6244F24005618280011106CE14
:100C800022CC001037257C00130505A0232AA4FEE2
:100C9000130500002328A4FE130500002326A4FE4C
:100CA0006F004000032504FF8325C4FE6378B5026E
:100CB0006F004000032544FF03050500832504FF62
:100CC0002380A500032504FF05052328A4FE032592
:100CD00044FF0505232AA4FE6FF0DFFC6244F240C6
:100CE00005618280011106CE22CC001037257C00E0
:100CF000130505A0232AA4FE0565130505802328F6
:100D0000A4FE0565130505802326A4FE6F004000A0
:100D1000032504FF8325C4FE6378B5026F004000FD
:100D2000032544FF03050500832504FF2380A50058
:100D3000032504FF05052328A4FE032544FF05051C
:100D4000232AA4FE6FF0DFFC6244F240056182803A
:100D5000411106C622C4000873E0107C3965930572
:100D600005C013058006A8C173F0107C2244B24070
:100D700041018280411106C622C4000873E0107C44
:100D80003965930505C013058002A8C173F0107C76
:100D90002244B24041018280411106C622C40008AB
:100DA000453F73E0107CB96503A505C613651500C2
:100DB00023A0A5C673F0107C6533F533913D7D3DCE
:100DC000153797F084FFE78040266D372244B24004
:100DD0004101828037357A00834515FF898985E98D
:100DE00073E0107C832505FC39662326B6C883256D
:100DF00045FC97D684FF9386E6E0CCCE832585FC20
:100E00008CD20325C5FC2322A6C673F0107C8280F9
:100E100014047C0024047C0034067C0034047C0030
:100E200044047C0054047C0064047C0074047C0052
:100E300084047C0094047C00A4047C00B4047C0042
:100E400034067C0034067C0034067C0034067C00CA
:100E5000C4047C00D4047C00E4047C00F4047C0022
:100E600034067C0034067C0034067C0034067C00AA
:100E700004057C0034067C0034067C0034067C00CB
:100E800034067C0034067C0034067C0034067C008A
:100E900014057C0034067C0034067C0034067C009B
:100EA00034067C0034067C0034067C0034067C006A
:100EB00024057C0034057C0034067C0034067C006C
:100EC00034067C0034067C0034067C0034067C004A
:100ED00044057C0054057C0064057C0074057C009E
:100EE00034067C0034067C0034067C0034067C002A
:100EF00084057C0094057C0034067C0034067C006C
:100F000034067C0034067C0034067C0034067C0009
:100F1000A4057C00B4057C0034067C0034067C000B
:100F200034067C0034067C0034067C0034067C00E9
:100F300034067C0034067C00C4057C00D4057C00AB
:100F4000E4057C00F4057C0004067C0014067C00AB
:100F500034067C0034067C0034067C0034067C00B9
:100F600034067C0034067C0034067C0034067C00A9
:100F700024067C0034067C0034067C0034067C00A9
:100F800034067C0034067C0034067C0034067C0089
:100F900044067C0034067C0034067C0034067C0069
:100FA00034067C0034067C0034067C0034067C0069
:100FB00054067C0034067C0034067C0034067C0039
:100FC00034067C0034067C0034067C0034067C0049
:100FD00031112EC8F325007C2EC6F3250030010008
:100FE0000B002566010073900530B2457390057CB7
:100FF000C24551018280411106C622C4000873E037
:10100000107C37057B0093050580114523A6A50AB2
:0C10100073F0107C2244B2404101828049
:1010200000000000000000000000000000000000C0
:1010300000000000000000000000000000000000B0
:1010400000000000000000000000000000000000A0
:101050000000000000000000000000000000000090
:10182000011106CE22CC0010231BA4FE231AB4FE05
:101830002319C4FE2318D4FE3965130505C0484199
:101840001D810D8981456301B5026F00400073E081
:10185000107C3965930505C0C8411375F5E7C8C10B
:1018600073F0107C6F0040003965130505C0085502
:1018700019813D89835544FF6306B5026F0040001E
:1018800073E0107C035644FF3965930505C0885505
:101890003D8A1A061375F5C3518D88D573F0107CF7
:1018A0006F0040003965130505C0085529813D8941
:1018B000835524FF6308B5026F00400073E0107C7D
:1018C000035624FF3965930505C088553D8A2A06CD
:1018D000F1769386F63F758D518D88D573F0107C27
:1018E0006F0040003965130505C008551375F503F1
:1018F000835564FF6306B5026F00400073E0107CFF
:10190000035664FF3965930505C088551376F603C1
:10191000137505FC518D88D573F0107C6F00400065
:10192000035504FF8545630BB5006F004000035568
:1019300004FF89456316B5026F00400073E0107C18
:10194000035604FF3965930505C0C8410D8A1E067C
:101950001375F5E7518DC8C173F0107C6F0040001E
:10196000035504FF8D456310B5046F00400073E01C
:10197000107C3965930505C02326B4FEC841137554
:10198000F5E713650510C8C1056513051576EFD099
:101990002FE98325C4FEC84113650518C8C173F03B
:1019A000107C6F0040006F0040003965130505C0D2
:1019B0004841058981456316B5006F0040006FF00E
:1019C000DFFE6244F24005618280411106C622C4F6
:1019D000000873E0107C37057B009305058003A5A4
:1019E000850A1365150023A4A50A114523A6A50A97
:0C19F00073F0107C2244B2404101828060
:02000004007D7D
:06FFE000B7007C008280E6
:10FFF000FFFFFFFFFFFFFFFFFFFFFFFFFFFFFFFF11
:04000005007C00007B
:00000001FF
