:0200000400708A
:1000000081400141814101428142014381430144D8
:1000100081440145814501468146014781470148A8
:10002000814801498149014A814A014B814B014C78
:10003000814C014D814D014E814E014F814FF9623E
:1000400073A002308542FE0263C3020001A0970242
:1000500000009382220473905230970191FF9381A4
:10006000617A170290FF1302127E137202FC73254D
:1000700040F185456370B5001316150132921701E2
:1000800090FF130121786111EF000050EF00400A4A
:100090006D7106C20AC40EC612C816CA1ACC1ECE8C
:1000A00022D026D22AD42ED632D836DA3ADC3EDE18
:1000B000C2C0C6C2CAC4CEC6D2C8D6CADACCDECE88
:1000C000E2D0E6D2EAD4EED6F2D8F6DAFADCFEDEF8
:1000D00073252034F32510340A86EF002025731091
:1000E000153489629382028073A0023092402241CB
:1000F000B2414242D2426243F243025492542255E8
:10010000B2554256D2566257F2570648964826498B
:10011000B649464AD64A664BF64B065C965C265D67
:10012000B65D465ED65E665FF65F51617300203055
:10013000011106CE22CC001001452324A4FE232A5F
:10014000A4FE4921032684FE73E0107C39659305E3
:1001500005802326B4FE8845B70600FDFD16758D83
:1001600088C588558566558D88D58845370740FFF1
:100170007D17798D88C5885513870680598D88D558
:1001800073F0107C396593058583884D558D88CD36
:10019000B7151111938515112320B0001305000028
:1001A00073E0107C8966938506C02328B4FE23A2E1
:1001B000C534BD4723A0F53423AEC53223ACF53298
:1001C00023AAC53423A8F53423AEC53423ACF534B3
:1001D00023A6C53423A4F53483A706C083A746C04D
:1001E00023A2F6C023A0A6C08845D4450565130503
:1001F0000580D4C588C5D44D884D45991365450003
:10020000D4CD88CDD44D884D1375F5F8136505020E
:10021000D4CD88CD944DC84DFD777D8D13654500B7
:1002200094CDC8CDD44D884DB70790FFFD177D8D77
:10023000D4CD88CDF441A84113650520F4C1A8C1EF
:10024000B441E84113651500B4C1E8C1B441E841C7
:100250000D9913654500B4C1E8C1B441E841F9778F
:100260009387F77F7D8D598DB4C1E8C123AAC5302E
:100270001305101023A8A53023AEC53023ACA5303C
:1002800023A2C53223A0A53223A6C53223A4A532BA
:1002900023AAC53223A8A53203A7C53983A6853969
:1002A00093E6160023AEE53823ACD53823A2C53A31
:1002B00023A0A53A73F0107C6F0040000965130578
:1002C00005C08325452C0325052C0589814563162A
:1002D000B5006F0040006FF07FFE032500008565CC
:1002E00083A505806312B5026F0040003965930550
:1002F0008583C84D0566518DC8CDC84D130606804F
:10030000518DC8CD6F000002396593058583884DF6
:100310000566518D88CD884D13060680518D88CD98
:100320006F0040006F0040006F000000011106CE1A
:1003300022CC0010232AA4FE2328B4FE2326C4FEC8
:1003400001456244F24005618280411106C622C423
:100350000008416513050500232AA4FE6F00400034
:10036000032544FFC165938505006371B5026F00E5
:100370004000832544FF014588C16F0040000325EC
:1003800044FF1105232AA4FE6FF09FFD2244B240D2
:1003900041018280011106CE22CC00103705700089
:1003A0001305057A232AA4FE4165130505002328B9
:1003B000A4FE4165130505002326A4FE6F0040003E
:1003C000032504FF8325C4FE6378B5026F00400057
:1003D000032544FF03050500832504FF2380A500B2
:1003E000032504FF05052328A4FE032544FF050576
:1003F000232AA4FE6FF0DFFC6244F2400561828094
:10040000011106CE22CC0010370570001305057AC5
:10041000232AA4FE5165130505002328A4FE516577
:100420001305051E2326A4FE6F004000032504FFCC
:100430008325C4FE6378B5026F004000032544FFA6
:1004400003050500832504FF2380A500032504FF81
:1004500005052328A4FE032544FF0505232AA4FE41
:100460006FF0DFFC6244F24005618280011106CE2C
:1004700022CC00103715700013050598232AA4FE1E
:10048000130500002328A4FE130580002326A4FEE4
:100490006F004000032504FF8325C4FE6378B50286
:1004A0006F004000032544FF03050500832504FF7A
:1004B0002380A500032504FF05052328A4FE0325AA
:1004C00044FF0505232AA4FE6FF0DFFC6244F240DE
:1004D00005618280011106CE22CC00103715700014
:1004E00013058598232AA4FE056513050580232896
:1004F000A4FE0565130585802326A4FE6F00400039
:10050000032504FF8325C4FE6378B5026F00400015
:10051000032544FF03050500832504FF2380A50070
:10052000032504FF05052328A4FE032544FF050534
:10053000232AA4FE6FF0DFFC6244F2400561828052
:10054000411106C622C4000873E0107C396593058A
:1005500005C013058006A8C173F0107C2244B24088
:1005600041018280411106C622C4000873E0107C5C
:100570003965930505C013058002A8C173F0107C8E
:100580002244B24041018280411106C622C40008C3
:10059000453F73E0107CB96503A505C613651500DA
:1005A00023A0A5C673F0107C4D33ED33913D7D3D06
:1005B0001537974091FFE780E0A46D372244B240A1
:1005C00041018280411106C622C400083128412A17
:1005D000352829458D45974091FFE78000A58D2856
:1005E0002244B24041018280411106C622C4000863
:1005F00073E0107C3965930505C013058006A8C11A
:1006000073F0107C2244B24041018280411106C641
:1006100022C4000873E0107C3965930505C0C851F9
:100620001375F5EFC8D1C8517999C8D1C851096679
:10063000518DC8D1C8511166518DC8D1C8511365AB
:100640000540C8D173F0107C2244B2404101828041
:10065000411106C622C4000873E0107C3966930578
:1006600006C0094588CD032506C07199136525008C
:100670002320A6C088451365850088C58845136575
:10068000250088C5C84913651500C8C9C849136540
:100690002500C8C9C84913654500C8C9C8491365BC
:1006A0000510C8C9C84913650520C8C9C8491365DC
:1006B0000540C8C9C84513650510C8C5C8451365B8
:1006C0001500C8C5C84513652500C8C5C8451365CC
:1006D0004500C8C5C84513658500C8C5C84513652C
:1006E0000501C8C5C84513650502C8C5C8451365D9
:1006F0000504C8C5C8490966518DC8C98845136530
:10070000150088C588451365050188C588451365AA
:10071000054088C588451365051088C5884513655B
:10072000052088C588451166518D88C5884913659F
:10073000051088C988491365052088C9C845518DA9
:10074000C8C5C8452166518DC8C588451365450093
:1007500088C573F0107C2244B24041018280374545
:100760007A00834515BF898985E973E0107C83256C
:10077000058E17D690FF1306E6484CCE8325458E8E
:100780000CD28325858E39662326B6C80325C58EEF
:0A0790002328A6C873F0107C8280B5
:1007A000411106C622C4000873E0107C37057B00A7
:1007B00093050580114523A6A50A73F0107C2244F9
:1007C000B24041018280411106C622C40008231BA9
:1007D000A4FE231AB4FE3965130505C048411D81E6
:1007E0000D8981456301B5026F00400073E0107C04
:1007F0003965930505C0C8411375F5E7C8C173F0A5
:10080000107C6F0040003965130505C008557D89CF
:10081000835564FF6306B5046F00400073E0107CED
:10082000035664FF3965930505C088557D8A019993
:10083000518D88D573F0107C97C06E00E78000550D
:100840006F0040003965130505C0484105898145A1
:100850006316B5006F0040006FF0DFFE6F004000D0
:10086000035544FF8545630BB5006F0040000355F9
:1008700044FF89456316B5026F00400073E0107CA9
:10088000035644FF3965930505C0C8410D8A1E060D
:100890001375F5E7518DC8C173F0107C6F004000EF
:1008A000035544FF8D45631FB5026F00400073E0A0
:1008B000107C3965930505C02328B4FEC841137523
:1008C000F5E713650510C8C10565130515765920B0
:1008D000832504FFC84113650518C8C173F0107C57
:1008E0006F0040002244B24041018280411106C69F
:1008F00022C4000873E0107C37057B009305058057
:1009000003A5850A1365150023A4A50A114523A68E
:10091000A50A05651305959D23A0A5081305702755
:1009200023A8A50A1305D04E23ACA50A37752600C7
:100930001305153C23A2A50823A4A5080D651305DE
:10094000951323AAA50A73F0107C2244B2404101FA
:100950008280000031112EC8F325007C2EC6F325BD
:10096000003001000B002566010073900530B24590
:0A0970007390057CC245510182809E
:040980000000000073
:04098800000000006B
:02000004007387
:06FFE800B70070008280EA
:10FFF000FFFFFFFFFFFFFFFFFFFFFFFFFFFFFFFF11
:040000050070000087
:00000001FF
