:02000004007C7E
:1000000081400141814101428142014381430144D8
:1000100081440145814501468146014781470148A8
:10002000814801498149014A814A014B814B014C78
:10003000814C014D814D014E814E014F814FF9623E
:1000400073A002308542FE0263C3020001A0970242
:1000500000009382220473905230970185FF9381B0
:10006000617A170284FF1302D27D137202FC73259A
:1000700040F185456370B5001316150132921701E2
:1000800084FF130121786111EF00A05FEF00400FA2
:100090006D7106C20AC40EC612C816CA1ACC1ECE8C
:1000A00022D026D22AD42ED632D836DA3ADC3EDE18
:1000B000C2C0C6C2CAC4CEC6D2C8D6CADACCDECE88
:1000C000E2D0E6D2EAD4EED6F2D8F6DAFADCFEDEF8
:1000D00073252034F32510340A86EF002035731081
:1000E000153489629382028073A0023092402241CB
:1000F000B2414242D2426243F243025492542255E8
:10010000B2554256D2566257F2570648964826498B
:10011000B649464AD64A664BF64B065C965C265D67
:10012000B65D465ED65E665FF65F51617300203055
:10018000797106D622D400180145232EA4FC232A17
:10019000A4FE812229221305E003972085FFE78032
:1001A00060E62316A4FE4165130505000325051F1F
:1001B000938501A04146930604FE972085FFE780C2
:1001C00040FAAA850325C4FD2316B4FE2328A4FE05
:1001D0002317A4FE6F0040008355E4FE3D456346AF
:1001E000B5046F0040004165130505000325051F98
:1001F0008355E4FE8A052E950841138601A0B29529
:100200008C41630BB5006F004000032504FF05051A
:100210002328A4FE6F0040006F0040000315E4FE99
:1002200005052317A4FE6FF03FFB6F004000032578
:1002300004FF8145631DB5006F00400039659305DB
:100240008583C84D13651500C8CD6F00000539655D
:1002500093058583884D1365150088CD01452317C7
:10026000A4FE6F0040008355E4FE1305301F634475
:10027000B5026F00400075651305554B972085FF4B
:10028000E780003D6F0040000315E4FE05052317DD
:10029000A4FE6FF05FFD6F0040006FF05FF9411149
:1002A00006C622C4000873E0107C396593050580FA
:1002B00088551365150088D5396593058583C84130
:1002C00013651500C8C173F0107C2244B24041018F
:1002D0008280411106C622C400083128CD26352867
:1002E00029458D45972085FFE780E0388D282244F9
:1002F000B24041018280411106C622C4000873E069
:10030000107C3965930505C013058006A8C173F0FC
:10031000107C2244B24041018280411106C622C4B1
:10032000000873E0107C3965930505C0C85113754A
:10033000F5EFC8D1C8517999C8D1C8510966518D16
:10034000C8D1C8511166518DC8D1C8511365054037
:10035000C8D173F0107C2244B24041018280411127
:1003600006C622C4000873E0107C39659305058039
:10037000C84113650503C8C13966930506C0094520
:1003800088CD032506C07199136525002320A6C0DA
:1003900088451365850088C5C84913651500C8C917
:1003A000C84913652500C8C9C84913650510C8C9DF
:1003B000C84913650520C8C9C84913650540C8C99F
:1003C000C84513650510C8C5C84513651500C8C5DF
:1003D000C84513652500C8C5C84513654500C8C58F
:1003E000C84513658500C8C5C8490966518DC8C987
:1003F00088451365150088C588451365050188C5BE
:1004000088451365054088C588451365051088C56E
:10041000C8451166518DC8C588451365450088C516
:1004200073F0107C2244B24041018280011106CE5B
:1004300022CC0010232AA4FE2328B4FE2326C4FEC7
:1004400001456244F24005618280411106C622C422
:100450000008138501A8232AA4FE6F00400003258D
:1004600044FF938581A96371B5026F004000832525
:1004700044FF014588C16F004000032544FF11057A
:10048000232AA4FE6FF0BFFD2244B24041018280C6
:10049000011106CE22CC001037057C001305057330
:1004A000232AA4FE4165130505002328A4FE138515
:1004B00001A42326A4FE6F004000032504FF83252A
:1004C000C4FE6378B5026F004000032544FF0305B6
:1004D0000500832504FF2380A500032504FF0505EF
:1004E0002328A4FE032544FF0505232AA4FE6FF05C
:1004F000DFFC6244F24005618280011106CE22CC0D
:10050000001037157C0013050597232AA4FE4965C2
:10051000130505002328A4FE4D65130585822326B7
:10052000A4FE6F004000032504FF8325C4FE63780A
:10053000B5026F004000032544FF03050500832535
:1005400004FF2380A500032504FF05052328A4FE3E
:10055000032544FF0505232AA4FE6FF0DFFC624457
:10056000F24005618280011106CE22CC00103715C1
:100570007C0013058519232AA4FE130500002328F7
:10058000A4FE130500002326A4FE6F0040000325EF
:1005900004FF8325C4FE6378B5026F004000032585
:1005A00044FF03050500832504FF2380A5000325E0
:1005B00004FF05052328A4FE032544FF0505232A7F
:1005C000A4FE6FF0DFFC6244F240056182800111FD
:1005D00006CE22CC001037157C0013058519232A7E
:1005E000A4FE0565130505802328A4FE05651305F3
:1005F00005802326A4FE6F004000032504FF832509
:10060000C4FE6378B5026F004000032544FF030574
:100610000500832504FF2380A500032504FF0505AD
:100620002328A4FE032544FF0505232AA4FE6FF01A
:10063000DFFC6244F24005618280411106C622C49B
:10064000000873E0107C3965930505C0130580062A
:10065000A8C173F0107C2244B24041018280411154
:1006600006C622C4000873E0107C3965930505C0F6
:1006700013058002A8C173F0107C2244B2404101EE
:100680008280411106C622C40008453F73E0107CF9
:10069000B96503A505C61365150023A0A5C673F0AB
:1006A000107C6533F533913D7D3D1537972085FFEF
:1006B000E78020156D372244B24041018280B74562
:1006C0007A0003C515BF09892DE173E0107C03A6EC
:1006D000058E17D584FF1305E55250CD03A6458E30
:1006E00010D183A6858E39662326D6C883A6C58EEB
:1006F0002328D6C883A5058CB7B6AA55938656A5D8
:100700006393D502B7457A0083A6058D54CD83A6A1
:10071000458D14D103A5858D2326A6C803A5C58DB7
:10072000930506C988C173F0107C828000F87A00B6
:1007300000007C00FF077C0000087C00FF0F7C00AD
:1007400000107C00FF177C0000187C00FF1F7C005D
:1007500000207C00FF277C0000287C00FF2F7C000D
:1007600000307C00FF377C0000387C00FF3F7C00BD
:1007700000407C00FF477C0000487C00FF4F7C006D
:1007800000507C00FF577C0000587C00FF5F7C001D
:1007900000607C00FF677C0000687C00FF6F7C00CD
:1007A00000707C00FF777C0000787C00FF7F7C007D
:1007B00000807C00FF877C0000887C00FF8F7C002D
:1007C00000907C00FF977C0000987C00FF9F7C00DD
:1007D00000A07C00FFA77C0000A87C00FFAF7C008D
:1007E00000B07C00FFB77C0000B87C00FFBF7C003D
:1007F00000C07C00FFC77C0000C87C00FFCF7C00ED
:1008000000D07C00FFD77C0000D87C00FFDF7C009C
:1008100000E07C00FFE77C0000E87C00FFEF7C004C
:1008200000F07C00FFF77C0000F87C00FFFF7C00FC
:1008300000007D00FF077D0000087D00FF0F7D00A8
:1008400000107D00FF177D0000187D00FF1F7D0058
:1008500000207D00FF277D0000287D00FF2F7D0008
:1008600000307D00FF377D0000387D00FF3F7D00B8
:1008700000407D00FF477D0000487D00FF4F7D0068
:1008800000507D00FF577D0000587D00FF5F7D0018
:1008900000607D00FF677D0000687D00FF6F7D00C8
:1008A00000707D00FF777D0000787D00FF7F7D0078
:1008B00000807D00FF877D0000887D00FF8F7D0028
:1008C00000907D00FF977D0000987D00FF9F7D00D8
:1008D00000A07D00FFA77D0000A87D00FFAF7D0088
:1008E00000B07D00FFB77D0000B87D00FFBF7D0038
:1008F00000C07D00FFC77D0000C87D00FFCF7D00E8
:1009000000D07D00FFD77D0000D87D00FFDF7D0097
:1009100000E07D00FFE77D0000E87D00FFEF7D0047
:1009200000F07D00FFF77D0000F87D00FFFF7D00F7
:1009300001000000020000000300000004000000AD
:10094000050000000600000007000000080000008D
:100950000B0000000C0000000D0000000E00000065
:100960000F00000010000000000000000000000068
:10097000011106CE22CC00102328A4FE032504FF7B
:10098000938501A815282317A4FE0355E4FE81458D
:100990006309B5006F0040000545231BA4FE6F00EE
:1009A000E0000145231BA4FE6F004000035564FFD7
:1009B0006244F24005618280797106D622D4001823
:1009C0002328A4FE2326B4FE37057C000325C57228
:1009D0000841058981456309B5006F00400029453C
:1009E000231BA4FE6F00E00D0145631CA5006F00F2
:1009F0004000032504FF930500046369B5006F0000
:100A000040005145231BA4FE6F00A00B73E0107C37
:100A100037057C000326C5729305E0202328B60A1B
:100A20000326C572B7152000938515B22322B60898
:100A30000326C57291452326B60A73F0107C73E035
:100A4000107C032604FF8325C57203A505091376D0
:100A5000F603137505FC518D23A8A50873F0107CCF
:100A60006F00400037057C000325C572032545094A
:100A70000D81058981456306B5006F0040006FF068
:100A80007FFE032504FFC165938505000E052E95A5
:100A9000084193050020130604FE6D2E231FA4FCBD
:100AA0000355E4FD81456309B5006F0040005945D9
:100AB000231BA4FE6F00E0000145231BA4FE6F0072
:100AC0004000035564FF2254B250456182800111F9
:100AD00006CE22CC00102328A4FE2326B4FE232415
:100AE000C4FE2322D4FE032504FF8325C4FE03266F
:100AF00084FE832644FE15282311A4FE035524FEFC
:100B000081456309B5006F0040000545231BA4FE25
:100B10006F00E0000145231BA4FE6F004000035559
:100B200064FF6244F24005618280397106DE22DC96
:100B300080002328A4FE2326B4FE2324C4FE2322FF
:100B4000D4FE37057C000325C5720841058981451F
:100B50006309B5006F0040002945231BA4FE6F0008
:100B6000C01A032504FF832584FE130604FD6522B5
:100B700081456309B5006F0040007D45231BA4FE3D
:100B80006F00A01873E0107C37057C000326C57247
:100B90008325860993E51500232CB6080326C57224
:100BA0008565938555832320B6080326C572930572
:100BB000E0202328B60A0326C5729305B041232CF2
:100BC000B60A0326C572B7152000938515B22322F5
:100BD000B6088325C572114523A6A50A73F0107CBB
:100BE00001452320A4FE6F004000032504FE832559
:100BF00084FE6370B50E6F0040006F004000370543
:100C00007C000325C57203254509058905468145F4
:100C10002324C4FC6310B5086F00400037057C0036
:100C20000325C572032545090981058905468145C6
:100C30002324C4FC6310B5066F00400037057C0018
:100C40000325C572032545090D81058905468145A2
:100C50002324C4FC6310B5046F00400037057C00FA
:100C60000325C5720325450905810589054681458A
:100C70002324C4FC6310B5026F00400037057C00DC
:100C80000325C57203254509118105892324A4FC88
:100C90006F004000032584FC058981456306B5008B
:100CA0006F0040006FF0BFF50325C4FE832504FEEE
:100CB0001396250032950841832504FFB29588C11B
:100CC0006F004000032504FE05052320A4FE6FF0FD
:100CD000DFF1032504FF8325C4FE032684FE93066B
:100CE00084FDF1202317A4FC0355E4FC814563191E
:100CF000B5006F0040000145231BA4FE6F00E0001B
:100D00007945231BA4FE6F004000035564FF625425
:100D1000F25021618280011106CE22CC00102328DE
:100D2000A4FE2326B4FE2324C4FE01452320A4FEF2
:100D30002322A4FE6F004000032544FE8325C4FE49
:100D40006370B5046F004000032504FF832544FE53
:100D50008A052E950841FD55630BB5006F004000D4
:100D6000032504FE05052320A4FE6F0040006F004C
:100D70004000032544FE05052322A4FE6FF0DFFB9F
:100D8000032504FE81456319B5006F00400001454D
:100D9000231BA4FE6F00E0007D45231BA4FE6F0013
:100DA0004000035564FF6244F2400561828079711E
:100DB00006D622D400182328A4FE2326B4FE23241A
:100DC000C4FE2322D4FE0145232EA4FC2320A4FE2E
:100DD0006F004000032504FE832584FE6374B50480
:100DE0006F0040000325C4FE832504FE13962500F2
:100DF00032950841832504FFB2958C41630BB50001
:100E00006F0040000325C4FD0505232EA4FC6F00E0
:100E100040006F004000032504FE05052320A4FECA
:100E20006FF05FFB0325C4FD81456319B5006F00BA
:100E300040000145231BA4FE6F0000011305800242
:100E4000231BA4FE6F004000035564FF2254B250E0
:100E500045618280011106CE22CC00102328A4FE19
:100E60002326B4FE2324C4FE01452320A4FE23220E
:100E7000A4FE6F004000032544FE8325C4FE637F6B
:100E8000B5046F004000032504FF832544FE8A0556
:100E9000AA9537057E003D156369B5026F004000D5
:100EA000032504FF832544FE8A052E950841FD5540
:100EB000630BB5006F004000032504FE05052320E9
:100EC000A4FE6F0040006F0040006F00400003254B
:100ED00044FE05052322A4FE6FF0FFF9032504FE5E
:100EE00081456319B5006F0040000145231BA4FE36
:100EF0006F00E0005945231BA4FE6F00400003551E
:100F000064FF6244F24005618280411106C622C43A
:100F100000082328A4FE37057C000325C57208417C
:100F2000058981456309B5006F0040002945231BF1
:100F3000A4FE6F00E00773E0107C37057C000326F9
:100F4000C5729305E0202328B60A0326C5728D6575
:100F500093855590232AB60A0326C572B71520003B
:100F6000938515B22324B60873F0107C73E0107CCF
:100F70008325C57203A5C5081365150023A6A5081A
:100F800073F0107C6F00400037057C000325C572AC
:100F9000032545091181058981456306B5006F0068
:100FA00040006FF07FFE0145231BA4FE6F00400050
:100FB000035564FF2244B2404101828031112EC8A2
:100FC000F325007C2EC6F325003001000B002566BA
:100FD000010073900530B2457390057CC245510104
:100FE0008280411106C622C40008231BA4FE231AD6
:100FF000B4FE3965130505C048411D810D89814541
:101000006301B5026F00400073E0107C3965930501
:1010100005C0C8411375F5E7C8C173F0107C6F00B7
:1010200040003965130505C008557D89835564FF67
:101030006306B5046F00400073E0107C035664FF44
:101040003965930505C088557D8A0199518D88D5EC
:1010500073F0107C97E07A00E78020C16F004000B9
:101060003965130505C04841058981456316B500FA
:101070006F0040006FF0DFFE6F004000035544FF3B
:101080008545630BB5006F004000035544FF89455B
:101090006316B5026F00400073E0107C035644FFF6
:1010A0003965930505C0C8410D8A1E061375F5E71D
:1010B000518DC8C173F0107C6F004000035544FF90
:1010C0008D45631FB5026F00400073E0107C3965E9
:1010D000930505C02328B4FEC8411375F5E71365D1
:1010E0000510C8C1056513051576C93D832504FFA4
:1010F000C84113650518C8C173F0107C6F0040002B
:101100002244B24041018280411106C622C4000837
:1011100073E0107C37057B009305058003A5850AE5
:101120001365150023A4A50A114523A6A50A056584
:101130001305959D23A0A5081305702723A8A50ACC
:101140001305D04E23ACA50A377526001305153CB0
:1011500023A2A50823A4A5080D651305951323AAAA
:10116000A50A73F0107C2244B240410182804111F3
:1011700006C622C4000873E0107C37057B00930587
:101180000580114523A6A50A73F0107C2244B240C5
:041190004101828017
:02000004007D7D
:06FFE800B7007C008280DE
:10FFF000FFFFFFFFFFFFFFFFFFFFFFFFFFFFFFFF11
:04000005007C00007B
:00000001FF
