:0200000400708A
:1000000081400141814101428142014381430144D8
:1000100081440145814501468146014781470148A8
:10002000814801498149014A814A014B814B014C78
:10003000814C014D814D014E814E014F814FF9623E
:1000400073A002308542FE0263C3020001A0970242
:1000500000009382220473905230970191FF9381A4
:10006000617A170290FF1302D27D137202FC73258E
:1000700040F185456370B5001316150132921701E2
:1000800090FF130121786111EF00A065EF00E036C9
:100090006D7106C20AC40EC612C816CA1ACC1ECE8C
:1000A00022D026D22AD42ED632D836DA3ADC3EDE18
:1000B000C2C0C6C2CAC4CEC6D2C8D6CADACCDECE88
:1000C000E2D0E6D2EAD4EED6F2D8F6DAFADCFEDEF8
:1000D00073252034F32510340A86EF00203B73107B
:1000E000153489629382028073A0023092402241CB
:1000F000B2414242D2426243F243025492542255E8
:10010000B2554256D2566257F2570648964826498B
:10011000B649464AD64A664BF64B065C965C265D67
:10012000B65D465ED65E665FF65F51617300203055
:10013000411106C622C4000873E0107C3165832596
:10014000054093E515002320B54093050540C841BF
:100150001375F5F7C8C1C84113650504C8C1C84186
:100160001375F5FDC8C1C8411375F5DFC8C1C84195
:100170007999C8C1C84137060200518DC8C1C8412C
:10018000056693060680558DC8C1C841518DC8C10A
:10019000C84141769306F6FF758DC8C1C841136505
:1001A0000540C8C1C8416D99C8C1C841B706000122
:1001B000558DC8C1C841B7060002558DC8C17D55CF
:1001C00088C9C855718D1365250CC8D5C855370623
:1001D00000F17D16718D37060005518DC8D5A841F7
:1001E000619913655500A8C1A84113650530A8C1E0
:1001F000E8451365F50FE8C5E8453706FF00518D62
:10020000E8C5885537060700518D88D5C841136564
:100210000508C8C173F0107C2244B24041018280BD
:10022000411106C622C40008316593050540C84146
:100230001375F5F7C8C1C8416D99C8C1C8450966AD
:10024000518DC8C5C849518DC8C9E845B706FF00DA
:10025000558DE8C5E8451365F50FE8C5A849C17691
:100260009386F60F758D13060630518DA8C9C841C7
:1002700013650508C8C1885537060700518D88D514
:100280002244B240410182805D7186C696C49AC202
:100290009EC022DE2ADC2EDA32D836D63AD43ED2BE
:1002A00042D046CE72CC76CA7AC87EC68008316506
:1002B00013050540284941811375F50F93059004F6
:1002C0006317B5006F0040008D286F00E0023165B4
:1002D00013050540284941811375F50F9305300A30
:1002E000631AB5006F004000C16501452390A50069
:1002F0006F0040006F00400031659305054088495C
:100300000966518D88C9096593050590130500108C
:10031000C8C1B24F424FD24E624EF2480258925775
:100320002257B2564256D2556255725486431643EE
:10033000A642B640616173002030411106C622C456
:1003400000083165130505406C41232AB4FE284599
:10035000232AA4FE2244B24041018280411106C6F4
:1003600022C400084165035505008145631AB5069E
:100370006F004000C16501452390A5086F00400053
:1003800041658355050805651305F512634EB500F3
:100390006F0040006F004000C1650395050805052A
:1003A0002390A5086FF0DFFD3165130505406C4112
:1003B0006CC92C452CCD70492391C188304D2392B6
:1003C000C188039541881316850003952188518DB6
:1003D0002391A188C16505452390A5006F004000C9
:1003E000316593050540C8450966518DC8C503D5DB
:1003F00021882244B24041018280011106CE22CCE4
:10040000001001452326A4FE232AA4FEC525452B62
:100410000533112D0325C4FEB71510002328B4FEA3
:1004200023A8A5C0B715100023A8A5D0992583251A
:1004300004FF73E0107C37057000130585280966FA
:10044000130606A02326A61073F0107C03A505C191
:100450001365051023A8A5C0096593050590A84557
:1004600013658500A8C5736004305D3B3165930555
:100470000540A849137505F013653502A8C96F003A
:100480004000E93D2393A1886FF0BFFF011106CE24
:1004900022CC0010232AA4FE2328B4FE2326C4FE67
:1004A00001456244F24005618280411106C622C4C2
:1004B000000813850188232AA4FE6F00400003254D
:1004C00044FF938581886371B5026F0040008325E6
:1004D00044FF014588C16F004000032544FF11051A
:1004E000232AA4FE6FF0BFFD2244B2404101828066
:1004F000011106CE22CC001037157000130505E956
:10050000232AA4FE4165130505002328A4FE1385B4
:1005100081802326A4FE6F004000032504FF83256D
:10052000C4FE6378B5026F004000032544FF030555
:100530000500832504FF2380A500032504FF05058E
:100540002328A4FE032544FF0505232AA4FE6FF0FB
:10055000DFFC6244F24005618280011106CE22CCAC
:10056000001037157000130585E9232AA4FE516594
:10057000130505002328A4FE51651305051E232637
:10058000A4FE6F004000032504FF8325C4FE6378AA
:10059000B5026F004000032544FF030505008325D5
:1005A00004FF2380A500032504FF05052328A4FEDE
:1005B000032544FF0505232AA4FE6FF0DFFC6244F7
:1005C000F24005618280011106CE22CC0010371561
:1005D000700013058507232AA4FE130500002328B5
:1005E000A4FE130500002326A4FE6F00400003258F
:1005F00004FF8325C4FE6378B5026F004000032525
:1006000044FF03050500832504FF2380A50003257F
:1006100004FF05052328A4FE032544FF0505232A1E
:10062000A4FE6FF0DFFC6244F2400561828001119C
:1006300006CE22CC00103715700013058507232A3B
:10064000A4FE0565130505802328A4FE0565130592
:1006500005802326A4FE6F004000032504FF8325A8
:10066000C4FE6378B5026F004000032544FF030514
:100670000500832504FF2380A500032504FF05054D
:100680002328A4FE032544FF0505232AA4FE6FF0BA
:10069000DFFC6244F24005618280411106C622C43B
:1006A000000873E0107C3965930505C013058006CA
:1006B000A8C173F0107C2244B240410182804111F4
:1006C00006C622C4000873E0107C3965930505C096
:1006D00013058002A8C173F0107C2244B24041018E
:1006E0008280411106C622C40008453F73E0107C99
:1006F000B96503A505C61365150023A0A5C673F04B
:10070000107C6533F533913D7D3D1537974091FF62
:10071000E780408F6D372244B24041018280411111
:1007200006C622C400086F0040006F00000041119F
:1007300006C622C400086F0040006F00000041118F
:1007400006C622C400086F0040006F00000041117F
:1007500006C622C400086F0040006F00000041116F
:1007600006C622C400086F0040006F00000041115F
:1007700006C622C400086F0040006F00000041114F
:1007800006C622C400086F0040006F00000041113F
:1007900006C622C400086F0040006F00000041112F
:1007A00006C622C400086F0040006F00000041111F
:1007B00006C622C400086F0040006F00000041110F
:1007C00006C622C400086F0040006F0000004111FF
:1007D00006C622C400086F0040006F0000004111EF
:1007E00006C622C400086F0040006F0000004111DF
:1007F00006C622C400086F0040006F0000004111CF
:1008000006C622C400086F0040006F0000004111BE
:1008100006C622C400086F0040006F0000004111AE
:1008200006C622C400086F0040006F00000041119E
:1008300006C622C400086F0040006F00000041118E
:1008400006C622C400086F0040006F00000041117E
:1008500006C622C400086F0040006F00000041116E
:1008600006C622C400086F0040006F00000041115E
:1008700006C622C400086F0040006F00000041114E
:1008800006C622C400086F0040006F00000041113E
:1008900006C622C400086F0040006F00000041112E
:1008A00006C622C400086F0040006F00000041111E
:1008B00006C622C400086F0040006F00000041110E
:1008C00006C622C400086F0040006F0000004111FE
:1008D00006C622C400086F0040006F0000004111EE
:1008E00006C622C400086F0040006F0000004111DE
:1008F00006C622C400086F0040006F0000004111CE
:1009000006C622C400086F0040006F0000004111BD
:1009100006C622C400086F0040006F0000004111AD
:1009200006C622C400086F0040006F00000041119D
:1009300006C622C400086F0040006F00000041118D
:1009400006C622C400086F0040006F00000041117D
:1009500006C622C400086F0040006F00000041116D
:1009600006C622C400086F0040006F00000041115D
:1009700006C622C400086F0040006F00000041114D
:1009800006C622C400086F0040006F00000041113D
:1009900006C622C400086F0040006F00000041112D
:1009A00006C622C400086F0040006F00000041111D
:1009B00006C622C400086F0040006F00000041110D
:1009C00006C622C4000873E0107CB9651386058052
:1009D000085A1375F5DF08DA085AFD769386F67F14
:1009E000758D08DA084EB706C000558D08CE03A5F0
:1009F00005803706F4FF7D16718D37060800518D8E
:100A000023A0A58003A50580370640FF7D16718DC4
:100A100037068000518D23A0A58073F0107C2244FE
:100A2000B24041018280411106C622C400087370A1
:100A30000430096593050590014588C588C988CDAE
:100A400088D188D588D988DDA8C1A8C5A8C9A8CD6E
:100A5000A8D1C8C5C8C9C8CDC8D1C8D5C8D9C8DDEE
:100A6000E8C1E8C5E8C9E8CDE8D12244B240410177
:100A70008280011106CE22CC0010371570001305BC
:100A800045CC2328A4FE0965130505A02326A4FE52
:100A900073E0107C0145231BA4FE6F00400083150A
:100AA00064FF1305F006634BB5026F004000032599
:100AB00004FF930545002328B4FE08418325C4FEA6
:100AC000138645002326C4FE88C16F00400003152D
:100AD00064FF0505231BA4FE6FF07FFC73F0107C00
:100AE000736004306244F24005618280411106C6A1
:100AF00022C400083128412A352829458D459730E0
:100B000091FFE78080528D282244B24041018280CB
:100B1000411106C622C4000873E0107C39659305B4
:100B200005C013058006A8C173F0107C2244B240B2
:100B300041018280411106C622C4000873E0107C86
:100B40003965930505C0C8511375F5EFC8D1C85173
:100B50007999C8D1C8510966518DC8D1C85111665B
:100B6000518DC8D1C85113650540C8D173F0107CB0
:100B70002244B24041018280411106C622C40008CD
:100B800073E0107C3966930506C0094588CD0325BE
:100B900006C07199136525002320A6C088451365FA
:100BA000850088C588451365250088C5C849136533
:100BB0001500C8C9C84913652500C8C9C8491365C7
:100BC0004500C8C9C84913650510C8C9C849136597
:100BD0000520C8C9C84913650540C8C9C84513657B
:100BE0000510C8C5C84513651500C8C5C8451365B7
:100BF0002500C8C5C84513654500C8C5C845136567
:100C00008500C8C5C84513650501C8C5C845136535
:100C10000502C8C5C84513650504C8C5C8490966A5
:100C2000518DC8C988451365150088C58845136569
:100C3000050188C588451365054088C58845136545
:100C4000051088C588451365052088C58845116647
:100C5000518D88C588491365051088C98849136571
:100C6000052088C9C845518DC8C5C8452166518D24
:100C7000C8C588451365450088C573F0107C2244BB
:100C8000B2404101828037457A00834515BF89898A
:100C900085E973E0107C8325058E17D690FF130637
:100CA00066F64CCE8325458E0CD28325858E39661B
:100CB0002326B6C80325C58E2328A6C873F0107C4A
:100CC000828000001E0770002E0770008E097000E1
:100CD0003E0770004E0770005E0770006E077000E0
:100CE0007E0770008E0770009E077000AE077000D0
:100CF000BE0770008E0970008E0970008E097000AA
:100D00008E097000CE077000DE077000EE077000DD
:100D1000FE0770008E0970008E0970008E09700049
:100D20008E0970000E0870000E0870008E097000A9
:100D30008E0970008E0970008E0970008E09700097
:100D40008E0970001E0870008E0970008E097000F8
:100D50008E0970008E0970008E0970008E09700077
:100D60008E0970002E0870003E0870008E09700019
:100D70008E0970008E0970008E0970008E09700057
:100D80008E0970004E0870005E0870006E087000DA
:100D90007E0870008E0870009E0870008E0970003A
:100DA0008E097000AE0870008E0970008E09700008
:100DB0008E0970008E0970008E0970008E09700017
:100DC0008E097000BE087000CE087000DE0870004A
:100DD000EE087000FE0870000E0970008E097000A9
:100DE0008E0970008E0970008E0970001E09700057
:100DF0002E0970003E0970004E0970005E097000F7
:100E00006E0970008E0970008E0970008E097000E6
:100E10008E0970008E0970008E0970008E097000B6
:100E20008E0970007E0970008E0970008E097000B6
:100E30008E0970008E0970008E0970008E09700096
:100E40008E0970009E0970008E0970008E09700076
:100E50008E0970008E0970008E0970008E09700076
:100E60008E097000AE0970008E0970008E09700046
:100E70008E0970008E0970008E0970008E09700056
:040E80008E09700067
:020E900001005F
:100E9800411106C622C4000873E0107C37057B00A8
:100EA80093050580114523A6A50A73F0107C2244FA
:100EB800B24041018280411106C622C40008231BAA
:100EC800A4FE231AB4FE3965130505C048411D81E7
:100ED8000D8981456301B5026F00400073E0107C05
:100EE8003965930505C0C8411375F5E7C8C173F0A6
:100EF800107C6F0040003965130505C008557D89D1
:100F0800835564FF6306B5046F00400073E0107CEE
:100F1800035664FF3965930505C088557D8A019994
:100F2800518D88D573F0107C97D06E00E78080A72C
:100F38006F0040003965130505C0484105898145A2
:100F48006316B5006F0040006FF0DFFE6F004000D1
:100F5800035544FF8545630BB5006F0040000355FA
:100F680044FF89456316B5026F00400073E0107CAA
:100F7800035644FF3965930505C0C8410D8A1E060E
:100F88001375F5E7518DC8C173F0107C6F004000F0
:100F9800035544FF8D45631FB5026F00400073E0A1
:100FA800107C3965930505C02328B4FEC841137524
:100FB800F5E713650510C8C10565130515765920B1
:100FC800832504FFC84113650518C8C173F0107C58
:100FD8006F0040002244B24041018280411106C6A0
:100FE80022C4000873E0107C37057B009305058058
:100FF80003A5850A1365150023A4A50A114523A690
:10100800A50A05651305959D23A0A5081305702756
:1010180023A8A50A1305D04E23ACA50A37752600C8
:101028001305153C23A2A50823A4A5080D651305DF
:10103800951323AAA50A73F0107C2244B2404101FB
:101048008280000031112EC8F325007C2EC6F325BE
:10105800003001000B002566010073900530B24591
:0A1068007390057CC245510182809F
:02000004007387
:06FFE800B70070008280EA
:10FFF000FFFFFFFFFFFFFFFFFFFFFFFFFFFFFFFF11
:040000050070000087
:00000001FF
